:020000041000EA
:1000000000B5324B212058609868022188439860DF
:10001000D860186158612E4B002199600221596106
:100020000121F02299502B49196001219960352056
:1000300000F044F80222904214D00621196600F024
:1000400034F8196E01211966002018661A6600F04E
:100050002CF8196E196E196E052000F02FF8012189
:100060000842F9D1002199601B49196000215960AB
:100070001A491B48016001219960EB211966A021F2
:10008000196600F012F800219960164914480160C1
:100090000121996001BC002800D000471248134993
:1000A000086003C880F30888084703B5996A0420EC
:1000B0000142FBD001200142F8D103BD02B5186610
:1000C0001866FFF7F2FF186E186E02BD00000240BE
:1000D000000000180000070000035F00212200005C
:1000E000F4000018222000A00001001008ED00E03C
:1000F00000000000000000000000000074B24E7A12
:1001000000200420F7010010C3010010C5010010F9
:10011000C1010010C1010010C1010010C101001097
:10012000C1010010C1010010C1010010C701001081
:10013000C1010010C1010010C9010010CB01001065
:10014000CD010010CD010010CD010010CD01001037
:10015000CD010010CD010010CD010010CD01001027
:10016000CD010010CD010010CD010010CD01001017
:10017000CD010010CD010010CD010010CD01001007
:10018000CD010010CD010010CD010010CD010010F7
:10019000CD010010CD010010CD010010CD010010E7
:1001A000CD010010CD010010CD010010CD010010D7
:1001B000CD010010CD010010CD010010CD010010C7
:1001C00000BE00BE00BE00BE00BE00BE00F04BF888
:1001D000103800BEF2EB8871585E0010785E001097
:1001E0003402001090A31AE700202149086006C8D5
:1001F00081F3088810471F48006800282FD10DA4FC
:100200000ECC002902D000F012F8F9E71A491B4A77
:10021000002000E001C19142FCD1194988471949E9
:1002200088471949884700BEFDE701C901C29A42C3
:10023000FBD37047785E0010C0000020680A0020E1
:100240002068001000000420000004202068001036
:1002500000100420001004200000000070470B482C
:1002600003F07CFD0047EFF30580C0B2704700004B
:1002700008ED00E0000000D0680A0020540D0020C6
:100280008D170010A1030010AD1800105756000084
:1002900006005250ABB36053D05D001006005250C0
:1002A000861C0302E05D0010060052505422A29DFD
:1002B000005E001005005250DE65F46820680010F2
:1002C000F8B5C0460448054B10B5834203D0044B33
:1002D000002B00D0984710BD680A0020680A002053
:1002E0000000000006480749091A8910CB0F591869
:1002F00010B5491003D0044B002B00D0984710BD17
:10030000680A0020680A00200000000010B5074CB1
:100310002378002B09D1FFF7D5FF054B002B02D026
:10032000044800E000BF0123237010BD680A0020CC
:1003300000000000785A0010054B10B5002B03D0C8
:100340000449054800E000BFFFF7CCFF10BDC046E0
:10035000000000006C0A0020785A001070B51300ED
:1003600082B00E0015000A000A4900F081F8002052
:100370002021094B01AC094A2380A670E5709369DE
:100380001942FCD1235C013013600428F7D102B07C
:1003900070BDC046785A001055BBFFFF00400340B7
:1003A000F0B5D6464F464646C0B5274B82B000272B
:1003B0009A4600936B46254D254C264E26496846A5
:1003C00033602F60276000F053F8244B64211F70C6
:1003D0009946234B642298461F705346494201A810
:1003E0000193FFF7BBFF3222642101A8FFF7B6FF9C
:1003F00001234A46137043461B78002B1AD0012371
:100400002A68216830688C466344236015499B182C
:100410002A6000F02DF82468002C0FD012493068B3
:1004200000F026F80124200002B01CBC904699463A
:10043000A246F0BD2B685A1C0023E2E70B49306846
:1004400000F016F8EFE7C046085B0010BC0A002079
:10045000B80A0020C00A00209C5A0010410B00205E
:10046000400B0020B45A0010E05A0010C85A001087
:100470000EB400B582B003AA02CA036801929B6859
:10048000984702B008BC03B01847C0467047C04642
:10049000802000B5C1B013000A004100684600F09A
:1004A0000BF8684600F092FA024800F08FFA00203C
:1004B00041B000BDFC5A0010F0B5DE4657464E462E
:1004C00045468346E0B595B000930B000027140025
:1004D0005D46013B994613780491002B0CD04F45A3
:1004E0000ADA621C252B11D02B70637814005A464F
:1004F0000137D519002BF2D10023781C2B7015B0D1
:100500003CBC90469946A246AB46F0BD6378662B4C
:1005100000D1DAE026D9752B00D1A5E0782B6BD07D
:10052000732B01D01400D8E7009B1E68181D327889
:10053000002A13D0049BF61B991EC91B49087B1C7B
:10054000C91805E0F25C0135002A00D1D4E101337D
:100550001F002A708B42F5D159440D00A3780090FA
:100560000234BAE7252B40D0642BDBD14B46DB1B92
:100570000A2BC1DD009BA8461A1D1B6800929A46F3
:10058000002B06DA6B1C98462D232B7053465B42DA
:100590009A46019746465746A24600E02600380094
:1005A0000A2103F035FC3031317038000A2103F0A4
:1005B0002FFC741C071EF1D120005446BA46534646
:1005C000019F7370464508D9434631781A78013E39
:1005D000197001337270B342F7D303005A465D1BA2
:1005E0007F19A378D519023477E75A462B70013763
:1005F000A378D519023470E74A46781CD21B092A21
:1006000000DCCAE130222A70BA1C90465A465E4687
:100610001354009B46441A1D94460F271A68330052
:1006200000E00B0039001140CDB2280057300929F5
:1006300000D82738591C18701209F2D15A709E42FE
:1006400008D232001D781078013B157001325870C5
:100650009A42F7D3624600925A46891B4144A378D6
:100660000F000234551838E74B46DB1B0A2B00DC21
:1006700042E7009B2E001A1D1B680092984623003B
:10068000AA464446984600E02E0020000A2103F0C6
:10069000BFFB3031317020000A2103F0B9FB751C1B
:1006A000041EF1D152464346AA461C001500707044
:1006B000964208D9130031781A78013E1970013337
:1006C0007270B342F7D3534688E74B46D81B04F009
:1006D00029FABA4904F020FA002800D00CE70722D2
:1006E000009BAA4607339343013294461868596821
:1006F0009C44624600922F229446AC446246039288
:1007000003F096FEFF21C20D114003000691400246
:100710007F390291400A002B03DA2D232B706B1CCA
:100720009A46534600221A70029B802B00D1E9E0C2
:10073000534631221A702E2200215A70524691706F
:10074000039A023305930193D31A0793072B00DC16
:10075000D0E0830D460DF6183618030DF618C30CBD
:10076000F618830CF618430CF618830BF618430B97
:10077000F618C30AF618030AF61803095246F618C3
:100780003023A046C008D370137153719371D37195
:100790001372361808AB30000A211C0003F038FB36
:1007A0003031217030000A2103F032FB631C061E39
:1007B000F1D14346A0461C004346587008AB98450B
:1007C00008D9424610781978013A187001335170EF
:1007D0009342F7D3059B07999C4608AB1B780139D8
:1007E0006144002B00D1E1E0059E8E4200D3D7E0AA
:1007F00008AA01E08E4205D0013233701378013629
:10080000002BF7D10722059BF31AD11A2932327037
:10081000002900D0AAE0059902E08B4204D91E000D
:10082000731E1A78302AF8D0039B0196013B05937A
:100830009E4200D3AEE018002A2361493370322271
:10084000731C00E03300834200D19CE001311A7038
:100850000A785E1C002AF5D1039A0196921B9B1818
:1008600005930023337008AB9A46029B002B09DAEC
:1008700052462D231370069A52339B1A029301237A
:1008800053449A465346A0460397029F38000A21D4
:100890001C0003F0BDFA3031217038000A2103F04A
:1008A000B7FA631C071EF1D14346A0461C0043461D
:1008B000039F5870D04509D953464246107819789D
:1008C000013A1870013351709342F7D308AB1B788B
:1008D000002B0DD005998E420AD208AA01E08E4263
:1008E00005D00132337013780136002BF7D1019611
:1008F00000233370019B71E65B460090DD190234E2
:100900002378EAE55346039901930139002819D168
:100910008A4512D2524649231370483B9C46E24412
:100920005046284A6D33884205D00132037013784F
:100930000130002BF7D182460190534600221A70F5
:10094000019B4BE68A45F8D252464E2313704D3B2D
:100950009C46E24450461C4A60338842EBD0013248
:10096000037013780130002BF7D1E4E7002B1ADD78
:100970003020F31A013E3278725430709E42F9D121
:100980000599DE1D4CE7059A1E000192039A013A73
:10099000059266E70023337063E700232B70AEE512
:1009A00030235246937033000599EAE730235246CC
:1009B0009370059B1900DE1D32E7C04600006041C0
:1009C0001D5B0010155B0010195B001070B5074C23
:1009D00005002378002B03D100F00CF801232370CD
:1009E0002900034804F018FB70BDC046420B0020EC
:1009F000205B001010B504F057FB10BD094A8300BE
:100A000094464022634410B51C68C0006240C02474
:100A100014408022520113431C60034B9C466044E7
:100A2000416010BD04C0014000400140F8B5EFF343
:100A3000108C72B60D4F3B68002BFCD0BFF35F8F5C
:100A4000CB08C018057807242B000C40E340012692
:100A5000334008D1A64035430570BFF35F8F3B603C
:100A60008CF31088F8BD100000F022FF2C0100D09C
:100A70000021044B044ABFF35F8F02C39342FAD1B3
:100A80007047C046000100D0800100D0044A1078B1
:100A9000431CDBB2172B00D9102313707047C046DC
:100AA00080010020024B18688007C00F7047C046C5
:100AB00000C00640F8B5040006200D0001F08CF8D7
:100AC00003000020002B4CD02B4B2C49E3185A1E5E
:100AD00093418022120494465B42294A9B05634459
:100AE0001360284A136018008A689043FBD1224B98
:100AF0008021E3185A425341234A5B0049000620F3
:100B0000995201F069F82900C00003F081F9C30986
:100B100006D01E4A934225D91D4F00231D4A01E0ED
:100B200040270122260080256262A36200232C3622
:100B3000AD0135432B60062001F04EF839008000EE
:100B400003F066F96023E26A53406E221A40802364
:100B50005B0133431A60104B236310232B600D3B62
:100B6000A364F8BD7F221040013040089F011A00A5
:100B70003F180300D6E7C0460080FCBF00C000401D
:100B800000E0004000F00040480B0020FEFF0000A5
:100B9000C0FF3F00FFFF00000103000083680B4817
:100BA00010B5844661446244090112019A1859182B
:100BB00054684B6801209C4201D802D00020C0B28A
:100BC00010BD12680B689A42F9D8F7E7FFFFFF0FD4
:100BD000F0B5574645464E46DE46E0B583B01F00A9
:100BE0000FAB1B780E9C804616009A460568002CB9
:100BF00040D042469268E3B294469B46394B0C9AE9
:100C0000E3181B0163449A600D9A1E605F60DA600E
:100C100063001B19DA1E9446019200222B6863447C
:100C20009A705A701A706B7B9946002B3ED019004F
:100C30005A466B68A86898474B465B004B44033B99
:100C4000002827D001992A688C464946D318624467
:100C500091701978002941D15A461A704B462000EC
:100C60006B73A14524D003B03CBC90469946A24684
:100C7000AB46F0BDAC7B0020002CF4D02A686300AA
:100C800094461B196344033B5B78AB73002BB0D1D4
:100C9000EB73AEE72968019ACB188A185946997008
:100CA0001178002900D059704B4613705B466B7366
:100CB00043463200187D3B0000F0F6F9051E07D0D0
:100CC0005346002B04D143465946186800F0BEFB3A
:100CD000109B002B04D01D702000C4E75170BBE7AF
:100CE0002000C0E7FFFFFF0FF0B5DE464546574640
:100CF0004E46724B8200E0B5D55800238DB00B9064
:100D00009B4627E0069A079B1100194303D02B69E5
:100D1000002B00D093E02B68DA7B002A07D051002B
:100D20008A1819688C4649466244033A51704A460B
:100D3000DA73EA684B469446013B63441A78013201
:100D40001A705B462B616B68BFF35F8F5A461A605F
:100D500084F3108800F056F96A68EFF3108472B6D5
:100D60001368002BFCD0BFF35F8F2B689C465B7B26
:100D70009946002B5BD0AA68514B90464B441B010F
:100D8000984443461A685B6816001F00361A8F4164
:100D9000002F6EDD0B9800F087F90022002300275A
:100DA0000026089209936B68BFF35F8F5A461A605A
:100DB00084F31088002E76D0534618024B46390033
:100DC0001843B0476A6806900791EFF3108472B633
:100DD0001368002BFCD0BFF35F8F079B002B91DAC9
:100DE0002B69002B97D006980799089A099B121A2D
:100DF0008B410898099906920793079A914203D864
:100E000007D1069A904204D901225242D317069282
:100E100007935B46012104934B460391029301978C
:100E20000096069A079B2800FFF7D2FE89E700226A
:100E3000002300270892099300260020B3E700F062
:100E4000E1F8069A079B12184B41994202D804D147
:100E5000904202D901225242D317594604910121EE
:100E6000039149460197029100962800FFF7B0FED2
:100E700067E7002F01D1002E8CD10121604600F0E0
:100E800039FA43461A685B680892099343469E689C
:100E9000DF68EB684B44013B1B789A461B02184302
:100EA000286100207FE7002800D053E70DB03CBC4C
:100EB00090469946A246AB46F0BDC046200B0020A6
:100EC000FFFFFF0F70B5184C2368002B00D070BDDA
:100ED000032000F08BF8032000F040F913490320B1
:100EE00000F09CF8182003F089FE0500FFF7CEFD06
:100EF0000F4B2A009C466044800068600D4910201A
:100F000000F0C8F910212860102003F07BFE0121B9
:100F1000A860102003F076FE03232B75064BE860D3
:100F2000DD602560D3E7C0460C0B0020E90C001003
:100F3000400000349D0B0010200B0020F0B5C64689
:100F400000B5EFF305833F22134018001038EFF38C
:100F5000108772B61F4D2A68002AFCD0BFF35F8F3E
:100F6000012211008140884644461B494C631B4CBA
:100F70002678A4463400C440224007D1BFF35F8FD7
:100F80002A6087F3108804BC9046F0BD4C6A14496F
:100F9000820051588C420FD3124BD25843469E4385
:100FA00063461E70BFF35F8F00232B6087F31088AA
:100FB000002AE8D09047E6E70B4A9B00944663443A
:100FC0001A681A60BFF35F8F00232B6087F31088C5
:100FD000D9E7C046280100D000400540450B00205D
:100FE000300B0020D40A0020D03F054010B501008E
:100FF000024A0348FFF71AFD10BDC046245B0010EB
:10100000430B0020044A516A00E01900906A536AB9
:101010009942FAD17047C0460040054070B50400BF
:101020000D00EFF3108672B61A4A1368002BFCD03D
:10103000BFF35F8F002D1BD0200000F02BFE164960
:1010400088420AD0200000F02DFE0121200000F08F
:101050000FFE0123A340114A1360114BA400E55079
:10106000BFF35F8F00220B4B1A6086F3108870BDB0
:101070000B4BA200D5500122A2400A4920000B7858
:1010800093430B70044900F037FE0021200000F06C
:10109000EFFDE5E7280100D03D0F00103860054066
:1010A000D40A0020450B0020F0B5CE464746274C19
:1010B00080B5656A00E00D00A66A616AA942FAD1AE
:1010C000AB4235D9EFF3108872B6214C2168002964
:1010D000FCD0BFF35F8F012585401C491D4E4D6339
:1010E0003778ECB2A4463C433470041DA40062502F
:1010F000194C800003510C6A00202C420DD04C6A20
:1011000000E00400886A8146486AA042F9D1A342FF
:1011100002D813D14A4511D90020BFF35F8F0022B6
:101120000B4B1A6088F310880CBC90469946F0BDB2
:10113000AB4201D1B242C5D80120F5E7034B0120F3
:101140001D625D6363469F433770E6E700400540DC
:10115000280100D0450B0020300B002010B5EFF324
:10116000108472B60A490B68002BFCD0BFF35F8F66
:1011700001238340074A0848136202789A430270A9
:10118000BFF35F8F00230B6084F3108810BDC0464F
:10119000280100D000400540450B0020024B9C4632
:1011A00061448900016070474000003410B50400BC
:1011B000FFF76CFC01002000FFF7F0FFFF23237115
:1011C000BFF35F8F10BDC046F8B54746CE4680B529
:1011D0004C0003686418033C1A19567807000D0088
:1011E000002E04D128000CBC90469946F8BD710031
:1011F0008919033988464344597889460021597032
:101200005170002D11D07B6832002900806898470A
:101210003B68002832D01A1943449D701178002988
:1012200000D059701670A04600E035004B46002BE8
:10123000D8D049463800FFF7C7FF041ED2D00200BD
:101240007B682900B868984763001B19033B3A681C
:10125000002809D1D318424494701978002900D08D
:1012600051701D702500BDE74146D31851189D707F
:101270000A78002A00D05A700C70B3E742461C1955
:101280009A18A6701378002B00D063701570350083
:10129000CCE7C046F0B5C6468846050000B510212B
:1012A0000120170003F0AEFC4346EEB20400436099
:1012B00006730321280003F0A5FC0023FF216373BC
:1012C00001332060A760A373E6732940012907D981
:1012D000421C4D1C01331370013303329D42FAD17D
:1012E0004B0059180023401803384370200004BCF9
:1012F0009046F0BDF0B54E4657464546DE46E0B551
:10130000467B03687400A419033C1A19177883B04C
:1013100005008946002F1ED1002911D1C07B00286D
:101320002AD041000918591803394E70EE73002F66
:1013300006D07900C91903398846002143449970C1
:101340000023300053706F7303B03CBC9046994645
:10135000A246AB46F0BD7900C91903398846591831
:1013600048788246002809D149460029E5D1E87B22
:101370000028D6D1EE73DCE7EE73E1E74200524479
:10138000033A93465B445A78019200225A704A709D
:101390006B6802003900A86898472B68002830D194
:1013A000414650465A4659189A18887010780028B5
:1013B00000D048701770D8465746019A002A2DD0A1
:1013C00011002800FFF700FF8246002825D0020008
:1013D00039006B68A868984753465900514403394F
:1013E0002B6800281CD04246591898188F70027834
:1013F00094461A196446002C00D04C705146017076
:10140000B2E75946424659189A188F70107800284A
:1014100000D0487051461170CFE72B681A19A3E726
:101420005A18984493465046424690705A4612784D
:10143000944660461A19002802D04046644644701B
:1014400058468846077057468EE7C046F0B5454671
:10145000DE4657464E46E0B50C0083B0050000233B
:10146000002927D06600477B01683619033E88199A
:10147000A74233D08278002A1CD053009B18033B2C
:10148000CB181A78A2421FD142781A700023027832
:10149000837043709146002A33D1EA7B002A66D0DC
:1014A00053009B18C91803394C70EC730023437028
:1014B00001236F73180003B03CBC90469946A246C6
:1014C000AB46F0BD002AE1D053009B18033BCB187C
:1014D0005A78A242F6D142785A70D7E70278019240
:1014E000002A46D1EA7B002A3FD053009B18C91836
:1014F00003394F70EF7300234370019B6B7301231B
:10150000D8E752004A44033A90468A185778002F89
:1015100042D1EB7B002B00D029E14F466E7BEC7370
:10152000002393704370002EC2D03A006B683100E4
:10153000A868984773009B19033B2A68002808D0C5
:10154000D31842449670197800290CD11F703700C7
:10155000AEE74146D31851189F700A78002A00D090
:101560005A700E70A4E75170F0E7EF73C3E7EC73A5
:101570009CE71400A44652006244033A90468A183D
:101580005478A146002C58D1EB7B002B00D0F7E01B
:10159000EF7300239370AEE77800C01903388246DA
:1015A000514448784B7053706B6883463A00494603
:1015B000A86898472B68002800D1A2E042469818F6
:1015C000524699184A468A70019002000078002815
:1015D00001D0019A487017704F465A46002A28D009
:1015E00059462800FFF7F0FD8146002820D0020070
:1015F0006B683900A86898474B465B004B44033B37
:101600009C4600286DD042462B689818624699186F
:101610008F7001900078002800D083E04A4601983E
:101620000270E97B98196E7B002951D1019A76E707
:101630002B6842469A180192F3E760004844033849
:101640008246514448784B7053706146220083466D
:101650006B68A868644698472968002878D0524685
:1016600043468A18CB1894701878002800D0507020
:101670004A46C2461A705B46002B50D05946280095
:10168000FFF7A2FD8046002848D0019C02002100FF
:101690006B68A868984743465A004244D31E29689D
:1016A000002844D05246CB188A189C701078002825
:1016B00000D0587043461370EB7B8819002B00D183
:1016C00066E75E00F318C91803394F70EF7360E7DF
:1016D0004A00944661445B18033B5C70019AEC73CA
:1016E0001EE729684846CA184346CB1898701078F8
:1016F000804688194646002E00D05E701770E0467E
:1017000007E74146524659189A188F7010780028FA
:1017100000D048704946D04611705EE729685346AC
:10172000CA18C9E74A46487001990A7079E7CA1889
:1017300053464046CB189870107884466446881902
:10174000002C00D05C70019B1370434601931BE793
:101750005346CA1843464846CB189870107800285C
:1017600000D05870019B13704B46019383E703260A
:101770007343C91803394C706E7BEC734F46CFE648
:1017800003267343C91803394F7001E72B4B2C4ACA
:1017900070B51A602B4A2C4B2C491A6010008B68CC
:1017A0009843FBD12A4C2B4DAC4209D20322231D76
:1017B0000335ED1A9543ED1808CC9847AC42FBD1A0
:1017C00000F094F8244A204B1A60204A9368DB0109
:1017D0008033FBD14022214B214C224D9A675A671E
:1017E0001A67DA66AC420CD2230007350833ED1ACB
:1017F000393A9543ED1820000834FFF7D7FCAC4286
:10180000F9D1194D194CC022A168280003F00CFA37
:10181000A560FFF72DF900F0B1FBFFF753FB144C67
:10182000144DAC4209D20322231D0335ED1A954312
:10183000ED1808CC9847AC42FBD170BD00E00040E9
:10184000BFCDFFFFFE7F3C0000F0004000C0004025
:10185000500A0020600A0020FFFFFF0100F0014055
:10186000480A0020500A00200000002000ED00E09F
:10187000600A0020680A0020094A1368002B06D07D
:1018800008491818884208D2106018007047064BA3
:101890000449181813608842F6D301235B42F4E729
:1018A000180B002000000420540D002000BEFDE7AE
:1018B0000FB400B5084883B003F090FA049B002BE6
:1018C00007D005A91800019102F028FA034803F097
:1018D00085FA00BEFDE7C046545B0010645B001053
:1018E00010B50148FFF7E4FF485B001030B50C204D
:1018F00083B000F077F9FFF7D5F800280ED09C4BA5
:101900009C4A1A605A609A60DA601A615A619A6158
:10191000DA611A62984A5A6203B030BD974CA067E8
:1019200000F068F90122964B1A60636C012BFCD120
:101930000322944B1A60914A936B012BFCD1C02275
:10194000914B92011A60914B91491A6010008B687B
:101950009843031EFAD1022406338E4A01218E4891
:10196000009400F05BF905238C4A009401218C4817
:1019700000F054F98B4B5A68FF2A02D8802252009B
:101980005A6080227A4C7F4B21691201854D1A6082
:10199000002900D0E5E0E021824B02201A681140C6
:1019A000802252012A4311601968484003210140F6
:1019B000116004219A681142FCD08022802192019A
:1019C0002A4309011160802252005A60764B23613C
:1019D000764B5968FF2900D8C1E00322684B734851
:1019E0001A60012103009A681142FCD0E0251A68B0
:1019F000154080225201024315601B684B400321B1
:101A0000194011600221694A93681942FCD0802371
:101A100080219B010343090119608021644B490027
:101A200051606361634B5A68FF2A00D85960802275
:101A3000614BE16912015F4D1A60002905D06069B0
:101A400002F0E6F901300138FDD1E02259490B6876
:101A50001A4080235B012B431A60802380229B0164
:101A60002B4312011A608022424B52004A60E3610C
:101A7000524B5968FF2900D85A608022504B216A86
:101A800012014E4D1A60002905D0606902F0C0F9BC
:101A900001300138FDD1E02248490B681A4080230B
:101AA0005B012B431A60802380229B012B43120190
:101AB0001A6080235B004B602E4B424A2362424BEC
:101AC0005968914201D801325A6080223F4B616AC5
:101AD00012013D4D1A60002905D0606902F098F9A5
:101AE00001300138FDD1E02237490B681A408023CC
:101AF0005B012B431A60802380229B012B43120140
:101B00001A608023DB024B601B4B6362304B5A68C8
:101B1000FF2A02D8802252005A6080222D4BA169F0
:101B200012012B4D1A60002905D0606902F070F98E
:101B300001300138FDD1E02225490B681A4080238D
:101B40005B012B431A60802380229B012B431201EF
:101B50001A6080235B004B60154BA361DCE65A6082
:101B60003BE7606902F054F901300138FDD112E71A
:101B7000E40A0020006CDC021BB70000008000407B
:101B80003CB0004030B0004000E0004000F00040B9
:101B900000C00040002F68590080024000389C1CA3
:101BA00000C0024030800040001BB7003C80004075
:101BB000405973075480004054B00040608000409A
:101BC00060B00040FFFF03006C8000406CB000403C
:101BD0004880004048B00040014B8000C05870472A
:101BE000E40A002080239B001843014BD862704711
:101BF00000800540AA23064A1B0113602F230549D4
:101C0000D360054B19605368002BFCDA7047C0465F
:101C10000040024000B0FA0000600240F8B51D002C
:101C200006AB1E7801235B424360002304008360FF
:101C300001600C20170002F0EBF84201121A91012A
:101C4000891AC90009188901380002F0E1F8C02298
:101C5000231D92011A432123A06013602368002BE7
:101C6000FCDA082336032D043543E5601360F8BD24
:101C700001238340002902D1034A13607047034ABD
:101C80001360034A1360F9E780E100E080E200E0BE
:101C900000E100E0024B10309B688000C0587047A4
:101CA00000ED00E070B50D00EFF3108672B60F4A3C
:101CB0001368002BFCD0BFF35F8F0D4B10309B6877
:101CC00084001B590B4A934203D09D4201D0FFF779
:101CD00007FE074B9B681D51BFF35F8FBFF35F8FFC
:101CE0000022024B1A6086F3108870BD240100D0D8
:101CF00000ED00E0CD010010F0B54546DE46574648
:101D00004E46E0B50D0083B0EFF3108A72B6604A1C
:101D10001368002BFCD0BFF35F8F102291468144E3
:101D20004A465C4B96009B689C595B4B98469C428C
:101D300005D0AC424AD0594FE31B2F2B12D9554B3B
:101D40009B689C51BFF35F8FBFF35F8F0022504BA6
:101D50001A608AF3108803B03CBC90469946A246AC
:101D6000AB46F0BD012383409B465A464C4B1B6853
:101D70001A4000925A464B4B1A60BFF35F8FFEF732
:101D800072FA0190002803D0814501D0FFF7A8FD29
:101D900001232100062099438B688C460A000856CF
:101DA0009D420AD15DE043001B1806209B00FB18F2
:101DB00099681856A94211D01A000028F3DA009B3E
:101DC000002B05D15A46374B1A60B8E71C00B6E71E
:101DD0005A46354B1A60324B1A60B0E7002825DBB3
:101DE0004200111889007D188846A9689960E97930
:101DF000D971062169569971A9797F2913D8AD88BF
:101E0000F91A6D052D1545444919E0250905490DB7
:101E10002D02294399801218244B9200BF181A787A
:101E20001870BA71CBE7BD210902F3E701990029C7
:101E300020D1002A1CD0FF2090711D4890801B4AA1
:101E4000107898716346DF1BBF10BB00DB191901C6
:101E50005B1819025B1819045B185B00DB1913701F
:101E6000ADE70B000028BBDA019A002A02D16346D5
:101E70004446E4E70F4A1049D21A083A5002400D8E
:101E8000014399800D4952080A43DA8097E7C0461A
:101E9000240100D000ED00E0CD01001084010020FD
:101EA00000E100E080E100E080E200E0440B00207F
:101EB00000BDFFFFBE01002000F0FFFF00F8FFFFA4
:101EC000F8B5012504000543FEF7CDF9EFF31087BF
:101ED00072B6244A1368002BFCD0BFF35F8F224EEA
:101EE0008000A11B89108A0052181301D218130216
:101EF000D2181304D3181D4A5B005B189168095867
:101F0000A9421CD00622B256934226D01222B256C3
:101F1000934224D01E22B256934214D02A22B256A3
:101F200003219A4210D0124A11781370A171BFF3A5
:101F30005F8F00220B4B1A6087F31088F8BD926800
:101F40000C491150EFE702214A0052189200B618CE
:101F5000FF22B271084AB280E5E70021F4E70121CF
:101F6000F2E7C046240100D08401002000ED00E02B
:101F7000440B0020CD01001000BDFFFFF0B5002292
:101F80000324FF27802620003D00094B11009C46BA
:101F90001040C0008540A14361440B680132AB434F
:101FA000350085402B430B60202AECD1F0BDC046A4
:101FB00000E400E07047C04610B5002803D04A682E
:101FC0000B681100984710BD10B5002801D002F031
:101FD000AFFE10BDF0B557464546DE464E46E0B56D
:101FE00085B0984610AB1D78139B93469A46022302
:101FF000149A0F00134006000F9C12990193002BB6
:102000002DD1013313409C465346002B66D18C42A0
:102010000DD21F2C00D912E10E9B30201B1902E0BB
:102020000133202C03D001341870A142F8D8634644
:10203000002B14D0A24512D90E9B30201B191F2C47
:1020400021D8AC461500524602E00133202C17D0AF
:10205000013418709442F8D192462A006546D3069E
:102060002ED5530519D4002C11D1119B102B00D162
:10207000D9E0022B1FD10E9960330B7001241AE0B6
:1020800092462A006546D3063ED5530505D4A142A3
:1020900000D19FE0544500D19CE0119B102B65D0EE
:1020A000022B06D11F2C65D862210E9B1B191970BB
:1020B00001341F2C5ED830210E9B1B19197001347E
:1020C0001F2C57D8002D1BD1530700D570E01307E4
:1020D00050D520230E990B55013415E06346002B93
:1020E0006BD0002D00D070E00C2313426DD18C42D8
:1020F000A0D21F2C90D953462024202BC3D8AEE762
:102100002D230E990B550134930736D05B4603936C
:102110001A000E9B029499464B46013C551C185DD3
:1021200039004346B0472A00002CF5D1039A029BA0
:10213000944663441D00019B002B0FD05B46EB1AB5
:1021400053450BD22A005D46541C434639002020DB
:10215000B0472200631B5345F6D32500280005B085
:102160003CBC90469946A246AB46F0BD930641D58D
:102170001F2C52D95D46930712D1544538D25B4685
:1021800053441B1B0F941C000F9B5A469946551C29
:10219000434639002020B0472A00A542F7D14C46DB
:1021A000002CC8D00E9B039502942A009946B3E7F1
:1021B0002B230E990B550134A6E78C4200D34EE732
:1021C0001F2C00D828E7202449E701235B429946C9
:1021D000CA448CE7631E002B15D1119B102B19D01C
:1021E000022B00D147E730230E9901240B7069E7D9
:1021F0005D46D5E71F2C00D986E778210E9B1B1979
:102200001970013455E71199023C1029AED01C0019
:102210000B0045E793060DD5002458210E9B1B1992
:102220001970013445E7930604D558230E9901240B
:102230000B7040E778230E9901240B703BE72024B4
:10224000F5E6C046F0B5DE4657464E464546E0B593
:1022500097B005000E0093461F00209A219B1000A6
:10226000190002F08AF8002800D0AEE220982199E7
:102270000122C54B524202F06DF8002800D034E133
:10228000209821990122C14B524202F071F8002896
:1022900000D0C1E0209821990022BD4B02F068F8DF
:1022A000002800D008E1209821990022B94B02F0C3
:1022B00051F8002800D0FFE0209821990022002347
:1022C00002F048F8002800D074E200230D93802328
:1022D000249ADB001A40904600D0BAE10023AE4CAD
:1022E000069307940EAB06249A462098219902F093
:1022F0006FF8099002F054F802000B002098219921
:1023000001F0CBFF069A079B01F0E2FF0A900B91C8
:1023100002F082F881460C9002F03EF802000B00B9
:102320000A980B9901F0B9FF00229C4B0A900B917F
:1023300002F01EF8002800D1E5E14B4601331800F9
:102340000C9302F029F8069A079B02F009F800287E
:1023500000D0FBE1002C00D09CE1099C200002F0A1
:102360001FF802000B002098219901F096FF00222F
:102370008A4B0690079101F0EDFF002800D1D5E1CE
:102380004346202B00D112E15C1C099B0A21180056
:10239000994601F011FD4246534630319954484662
:1023A0000A2101F009FDA046814600281ED05346AF
:1023B000A846BA464D461F00B14600E03400202C26
:1023C00000D162E228000A2101F0F6FC661C3031DF
:1023D0003C19217028000A2101F0EEFC051EEDD108
:1023E0003B0045465746B0469A464E460323249A3C
:1023F0001340012B00D1B1E142462024202A00D114
:10240000DCE00D9A002A00D135E242465146541CC8
:1024100040462D220A54D1E0249B5B0700D5ADE055
:102420005F4B9A46032398465B460693249B9B0783
:1024300018D1239B434500D84EE25B441C00434621
:10244000E41AB9465A4637002E002500541C4B4664
:1024500039002020B0472200AC42F7D135003E00C1
:102460004F460694B14644465646BA462F00069A51
:10247000013C551C305D53464946B8472A00002CA4
:10248000F6D1069B3D0043441A00249B9B0724D5AC
:102490005B462399D31A99421FD92E00D0464F4646
:1024A0000D00434639002020541CB0475B462200F3
:1024B000E31A9D42F5D810E0249B5A460493239BCF
:1024C00031000393229B28000293209B219C0093C0
:1024D00001943B0000F032FA0200100017B03CBC3F
:1024E00090469946A246AB46F0BD249BD8469B0732
:1024F00018D1239B042B15D95B461C1F239BB84680
:102500009C46644437005A462E002500541C43461E
:1025100039002020B0472200AC42F7D135003E0000
:102520004746A0461F4BB9464246370004249A4608
:102530002E005346013C551C185D39004B46B047F0
:102540002A00002CF5D14246249B350004323E007F
:102550009B07C2D55B462399D31A9942BDD9370050
:10256000C8462E000D00434639002020541CB047B9
:102570005B462200E31A9D42F5D8AEE70A4B9A4625
:102580000423984650E7C046FFFFEFFFFFFFEF7FB1
:1025900065CDCD4165CDCDC180842E410000E03FA9
:1025A000505D0010585D0010485D0010A2460323E6
:1025B000249A1340012B00D1CEE02024D846002BD2
:1025C00017D1239B9C4214D25B441B1BB8465A462E
:1025D0003700A1462E001D00541C43463900202020
:1025E000B0472200AC42F7D135003E004746A04636
:1025F0004C4643464246A146B84637002E00069355
:102600005346013C551C185D39004346B0472A002B
:10261000002CF5D106994B468C4663441A00249B46
:1026200035003E009B0700D457E75B462399D31A39
:10263000994200D851E737002E000D00434639007B
:102640002020541CB0475B462200E31A9D42F5D877
:1026500043E7229B092B00D85BE10EAB9A4630235F
:102660005246137001229046229B2F325C1E414637
:10267000203B504605E0013C425401319C4200D1D0
:10268000EEE0092CF7D10022A84B8846824606923C
:1026900007932AE64346202B89D0631E0693012325
:1026A0000C9C434420000A21994601F0B1FB53469B
:1026B00042463031995420000A2101F0A9FB041E42
:1026C00000D122E1A84625004C46B9465746B246FD
:1026D00012E0069B2800013B0A21069301F098FBBB
:1026E000661C30313C19217028000A2101F090FB52
:1026F000051E00D1CFE03400202CEAD156464546D5
:10270000BA464F4653E700220A980B99884B01F0CE
:1027100021FE002800D01DE60C9B002B02D0DB0719
:1027200000D417E60C9B01330C9313E600220698A5
:1027300007997F4B01F01CFE002800D020E6012302
:10274000A44623409C446346099319E6099B013340
:10275000099300230C93FDE520239846239B002B2F
:1027600000D1BFE00D9B002B03D1249A0C33134200
:1027700002D0239B013B2393239B434500D8B1E028
:1027800042463023202A00D1B1E0424650462399E8
:10279000541C83548C4200D1A1E02200202CF7D19C
:1027A000202399465B46B8468246370006935A4630
:1027B0002E0025E7209A219B0020002101F06DFDCD
:1027C0000123209021910D9381E5249BD8469B07FE
:1027D00018D1239B032B15D95B46DC1E239BB846DF
:1027E0009C46644437005A462E002500541C43463C
:1027F00039002020B0472200AC42F7D135003E001E
:102800004746A0464B4BB9464246370003249A46FA
:102810002E005346013C551C185D39004B46B0470D
:102820002A00002CF5D14246249B350003323E009D
:102830009B0700D451E65B462399D31A994200D8EE
:102840004BE63700C8462E000D00434639002020D5
:10285000541CB0475B462200E31A9D42F5D83CE683
:10286000354BE2009B181A685B6806920793202399
:102870008246984639E5249A52073BD5424651464E
:10288000541C40462B220A5498E63B0045465746C6
:102890004E469A468BE64546B0465646BA464F46A1
:1028A0004346202B00D182E6069B40461A00424454
:1028B000110054463022002B29D0431C2254202BD7
:1028C00000D173E618008B42F7D1A2465A1C9046FD
:1028D00051462E22CA5453E55B460693C2E5239B1C
:1028E0008246984642460123202A00D089E52024CA
:1028F000D8467EE6249A4446120700D45EE620229B
:102900005146404601340A5458E6C846C8E7434693
:10291000DCE7DA00084B9B185C681B680693079499
:10292000002398460EAB229C9A46DEE465CDCD414D
:102930000000E03F545D0010605D0010F0B5DE4621
:1029400057464E464546E0B59FB09A46299B289C7F
:102950001D0081468B460A9211930022002320001D
:1029600029000E9401F0F6FC002800D0E0E2119B53
:102970000E9A9846089280232C9ADB001A40131E68
:10298000149201D106332A9343465800D54B400D8B
:102990009C46604401F004FDD34AD44B01F098FCFE
:1029A000D34AD44B01F082FC4346D34A1B03089E12
:1029B0001B0B1A4304000D0030001100CF4B002206
:1029C00001F06BFCCE4ACF4B01F082FC02000B0001
:1029D0002000290001F06AFC01F0FAFC0B9001F0E4
:1029E000DFFCC94AC94B04000D0001F071FC002254
:1029F000C74B01F05BFC01F0EBFCC64A0600C64B7E
:102A00002000290001F064FC040030000D00109645
:102A100001F0C6FCC14AC24B01F05AFC02000B0097
:102A20002000290001F039FC02000B0006000F0015
:102A300001F04EFC320004000D003B003000390074
:102A400001F034FC00220C900D91B64B20002900BF
:102A500001F035FC0022B44B01F028FC02000B0011
:102A60002000290001F02BFC0022B04B01F01EFCDD
:102A700002000B002000290001F021FC0D00802144
:102A8000040032003B000020C90501F006FC0200F2
:102A90000B002000290001F009FC02000B000C983B
:102AA0000D9901F00CFC0022934B01F0FFFB109BF1
:102AB0009F4A1C00944664442305002201F008FC50
:102AC00004000D0002000B000898414601F042FC92
:102AD00000280AD00B9B2000013B0B932900002209
:102AE000914B01F0ECFB04000D000B9EC62332005D
:102AF000633293429B415B4204330C932C9B1B0536
:102B000021D5089F8B4A8C4B3800414601F028FCA8
:102B1000002800D198E10022884B3800414601F09E
:102B200019FC002800D18FE12A9A964200DBF9E2D5
:102B3000931B013B2A9380232C9ADB001A4300232A
:102B40002C920C930B9300232B9910930C9B8B428C
:102B500001D2CB1A109302232C9A1A40149206D059
:102B60000C9B5A425341109A5B421A4010920B9BA5
:102B7000002B07D00898414622002B0001F09FFB54
:102B800088460890002200230E98119901F0E2FB7C
:102B9000002803D08021090641448846089C43460A
:102BA00022002000414601F0E8FB002800D0FEE2B0
:102BB0000122634B52420898414601F0CBFB0028AA
:102BC00000D0BDE101225F4B52420898414601F01E
:102BD000CFFB002800D0E1E0089C00225A4B2000E7
:102BE000414601F0C5FB002800D038E10022574BD8
:102BF0002000414601F0AEFB002800D02FE100226A
:102C000000230898414601F0A5FB002800D0C3E24C
:102C10000023159380252C9BED001D4000D067E21A
:102C20000023464C16AF0E930F940624089E41468F
:102C3000300001F0CDFB119001F0B2FB02000B005F
:102C40003000414601F029FB0E9A0F9B01F040FB3A
:102C50001290139101F0E0FB060001F09DFB0200D1
:102C60000B001298139901F018FB0022284B1290C8
:102C7000139101F07DFB002800D11FE201363000E6
:102C800001F08AFB0E9A0F9B01F06AFB002800D02E
:102C90005BE2002C00D098E1119C200001F080FB49
:102CA00002000B000898414601F0F7FA0022184B89
:102CB0000890099101F04EFB002800D135E2202D4B
:102CC00000D1ABE1119E0A21300001F075F83031DE
:102CD000795530000A2101F06FF86C1C061E38D1BE
:102CE000E1E2C04601FCFFFFFB799F501344D33F54
:102CF000B3C8608B288AC63F0000F03F0000F83F51
:102D000061436F63A787D23F71A379094F930A404C
:102D10000000E03F1655B5BBB16B0240EF39FAFE3B
:102D2000422EE63F00002C400000244000001840E6
:102D3000FF0300002D431CEBE2361A3F80842E4136
:102D4000FFFFEFFFFFFFEF7F65CDCD4165CDCDC12B
:102D50002C00202C00D161E130000A2101F02CF878
:102D6000651C30313C19217030000A2101F024F833
:102D7000061EEDD103232C9A1340012B00D1EAE16A
:102D800020229046202D00D150E1159A002A00D132
:102D900055E26A1C90462D227A5547E12C9B5B0731
:102DA00000D50EE103239846CC4F0A992C9B0C00CA
:102DB0009B0715D1109B434512D99C4643464E466E
:102DC000B9465F460A006144CD1A541C5346390087
:102DD0002020B0472200AC42F7D1BB464F46B14657
:102DE0004B462200A14645461C00013D561C785D1D
:102DF00053465946A0473200002DF6D123004C46D9
:102E000022009946149B4244002B3BD00A9B109E03
:102E1000D31A9E4236D94F465D465346290020209C
:102E2000541CB8470A9B2200E31A9E42F5D8B946C3
:102E3000AB460C9C002C28D110001FB03CBC904627
:102E40009946A246AB46F0BD2A9B002B00D17AE6FC
:102E5000149B5A1E93412A9AD31A2A9373E62C9AEA
:102E60009F4B594613400493109B089A03932A9B47
:102E7000484602934346009201930A9A5346FFF74D
:102E80005DFD02000C9C002CD6D020202C9B013C28
:102E9000034059424B415B421840531C0893453054
:102EA00053465946C8470B9B16AFDA179D18DB0FE0
:102EB0000B9455409846002402E03400202E0DD09B
:102EC00028000A2100F0A4FF661C30313C19217053
:102ED00028000A2100F09CFF051EEED10523069371
:102EE0000B9B089A0593002304930A3303934346EC
:102EF000019602930097534659464846FFF76AF8F1
:102F0000149B0200002B97D00A99431A2B989842E1
:102F100092D94E465F468846050053463900202028
:102F2000541CB04743462200E31A9D42F5D883E77C
:102F3000802212069446119B0894634498461AE531
:102F40000A9A2C9B14009B0711D1109B042B0ED9BD
:102F50009C464E465F46151F6544541C5346390037
:102F60002020B0472200AC42F7D1B146BB46220038
:102F7000A04604254C465B4F013D561C785D5346E8
:102F80005946A0473200002DF6D1A1464446149B75
:102F9000221D002B00D175E70A9B109ED31A9E427A
:102FA00000D86FE74F465D46534629002020541C49
:102FB000B8470A9B2200E31A9E42F5D8B946AB46B1
:102FC00037E70423484F9846EFE6202D26D0631EAE
:102FD00030000A21984600F01BFF3031795530004F
:102FE0000A2100F015FF6C1C061E00D15DE145466C
:102FF000B84610E030000A2100F00AFF671C3031AB
:103000004444217030000A2100F002FF013D061EF9
:1030100000D11CE13C00202CECD1474603232C9A24
:103020001340012B00D195E0202290460A990C0014
:10303000002B15D1109B434512D99C4643464E4662
:10304000B9465F460A006144CD1A541C5346390004
:103050002020B0472200AC42F7D1BB464F46B146D4
:103060005B4639002200A3464F46454689461C0070
:103070004B46013D561C585D21005346B84732006F
:10308000002DF5D123005C4622009B46149BB946D7
:103090004244002B00D1F5E60A9B109ED31A9E42B3
:1030A00000D8EFE65D46534629002020541CB8475F
:1030B0000A9B2200E31A9E42F5D8B8E60022129835
:1030C00013990A4B01F046F9002800D0E1E5002EE3
:1030D00002D0F30700D4DCE50136DAE5505D0010DC
:1030E000FFF7FFFF585D0010485D00100000E03F53
:1030F0002A9B092B00D8DCE0302316AF3B702A9BBB
:1031000001255C1E3022203B05E0013C7A5501354B
:103110009C4200D18AE0092CF7D100226A4B0E9222
:103120000F9383E500232A9305E500220898099967
:10313000664B01F01DF9002800D0C0E50123A4462C
:1031400023409C4463461193B9E5119B002601334B
:1031500011939EE52025109B002B00D190E0159B3C
:10316000002B03D12C9A0C33134202D0109B013B4D
:103170001093109B9D4200D382E030221900202D35
:1031800006D06B1C7A558B4279D01D00202BF8D1CC
:1031900020230A9C984663E74346089A00200021B2
:1031A00001F07BF8012308908846159332E50A9ACE
:1031B0002C9B14009B0711D1109B032B0ED99C460E
:1031C0004E465F46D51E6544541C534639002020A8
:1031D000B0472200AC42F7D1B146BB462200A04620
:1031E00003254C463A4F013D561C785D53465946DF
:1031F000A0473200002DF6D1A1464446149BE21CA4
:10320000002B00D13EE60A9B109ED31A9E4200D8A6
:1032100038E64F465D46534629002020541CB847E7
:103220000A9B2200E31A9E42F5D800E6294BE200F1
:103230009B181A685B6820250E920F93F6E42C9A6F
:10324000520725D56A1C90462B227A55EEE6434656
:10325000A8463D001F00202D00D1DFE64346302266
:103260005919002B23D06B1C7A55202B00D1D5E6A1
:103270001D008B42F7D12E225D1CFA541FE5109DD4
:103280000123202D00D080E51F3398460A9CE7E6F5
:103290002C9AA846120700D4C8E6012294461F3291
:1032A000E0447A55C2E6250064E52500D3E72B000B
:1032B000E1E7DA00074B00259B185C681B6816AF36
:1032C0000E930F942A9CB1E465CDCD410000E03F00
:1032D000545D0010605D0010F0B5DE46574645466F
:1032E0004E46E0B59FB01D00289B08920993B54A51
:1032F000B54B83468A461A60002966D0B34B002737
:103300009846287800280BD00135252818D03A0097
:10331000089B5146D84728787C1C27000028F3D109
:10332000089B3A009F4200D35A1E51460020D847BE
:1033300038001FB03CBC90469946A246AB46F0BD53
:103340001023287899460C3B9C460300203B6A1CBE
:10335000DBB200241100102B0ED846469B00F35818
:103360009F46012315001C4328786A1C0300203B5C
:10337000DBB21100102BF0D90300303B092B00D831
:103380008FE1002399462A2800D1B3E100230C9352
:103390002E2800D1A0E10300683BDBB2122B00D93C
:1033A00013E28B4A9B00D3589F46634615001C438B
:1033B000DAE7022315001C43D6E74B4615001C43F1
:1033C000D2E7082315001C43CEE7824B9B4695E7C6
:1033D00080235B0068781C434D1C0300253BDBB257
:1033E000532B94D87C4A9B00D3589F4668786C280E
:1033F00000D190E280235B001C434D1CEDE780234D
:103400009B0068781C434D1CE7E76878682800D16A
:103410007CE280234D1C1C43DFE7462800D104E2F8
:103420000722099B049407339343013294469C443A
:10343000624609924A4603920C9A02925C681B68A3
:10344000009301943A00089B51465846FEF7FAFE55
:10345000070056E73A007C1C089B51462520D847B8
:1034600027004EE7099B1A1D1B68109209931878D4
:103470000C9B002B00D0B6E102225242002801D161
:1034800000F023FC099B84461E00100001211A0055
:1034900004E08B1BD3181B18002B03D001363378A4
:1034A000002BF6D16046099BF61A8023DB002340EF
:1034B0000A9303D00C9B9E4200D91E000223234096
:1034C0000D9300D153E2002800D136E20A9B002B75
:1034D00000D088E3099B3A00DC1B23005C46AB4626
:1034E0005546B2461E00571C089B2900A047F05DB8
:1034F0003A000028F7D15646AA465D46A3460D9BE2
:10350000002B00D019E2109B0993FAE6099B1A1DC3
:103510001B680992002B00D159E121221443A446D3
:103520000F21002216AC894602E020290CD00A00A7
:1035300049461940CEB230003730092900D8073843
:10354000511CA0541B09F0D1634606930823059330
:103550000C9B0191049310230393002302933A00E0
:103560000094089B51465846FEF734FD0700C8E614
:10357000099B04330C937B1C0A931E00A30700D401
:1035800036E1099B3A0018785146089BD8474B46CC
:103590004F44012B00D85BE32B00320055465E46BA
:1035A0009A46541C089B29002020B0472200BC42A8
:1035B000F7D15346B346AA4627001D000C9B09933A
:1035C0009FE6C046D93200101C0B0020685B00103B
:1035D000AC5B0010B51F0010F85B0010782800D11C
:1035E00026E1582800D19CE16F2800D152E26228E0
:1035F00000D12AE3102322009A430A92692800D0BE
:1036000077E3630500D542E280239B001C40A4467B
:10361000F73BFF3B0D936346002B00D0DCE1802697
:103620000A9B76001E40099B04331093002E00D0A5
:10363000AAE20A9B5B0600D49EE2099B1B78DA177C
:1036400098185040DA0F1192002B08D10A9A1033C3
:10365000110099430B000A91520500D52FE30A9AF5
:103660006123920600D54123DBB20A3B149716ACC6
:1036700009930D9F0AE03033DBB2721CA35500287A
:1036800000D194E1202A00D191E11600390000F028
:10369000BFFBCBB20929EED9099A94466344DBB249
:1036A000EBE7002399460300494601E0150001328B
:1036B000880040184000C018137801001800303806
:1036C00030390928F2D91800002389460C93A91C27
:1036D00015002E2800D05EE680236878DB001C43AE
:1036E0000300303B092B15D92A2800D102E10D0037
:1036F000013150E609990B1D09688946002904DA51
:1037000002210C434946494289466878A91C09931D
:1037100015003BE60300002200E02900900080181D
:103720004000C0184B780200180030384D1C303A69
:103730000928F2D918000C9202312CE6202302004D
:103740009A43472A04D180231B011C430223984338
:10375000452801D120231C430722099B07339343AB
:10376000013294469C44624609921A685B681000D4
:1037700019000A900B9100F000FE002800D0B1E083
:103780000A980B990122D24B524200F0F1FD002819
:1037900000D0A7E00A980B990122CE4B524200F0CC
:1037A000D9FD002800D09DE04B4603930C9B049468
:1037B00002933A000A9B0B9C514600930194584691
:1037C000089BFFF7BBF807009BE50D0005E61022FC
:1037D00021009143113211438C46620500D49FE6CB
:1037E000002116ACB0E6002800D16EE25A1E49E670
:1037F0004B46012B00D871E27C1E4C44A9462500A3
:10380000340001E027000134089B3A005146202093
:103810002600D847AC42F5D14D460237099B32000D
:1038200018785146089BD847C8E620231C43F7E583
:1038300080231022DB0023400D920C2294430A9433
:103840002200002B02D001239A430A9280230A9A75
:103850009B001A409446692800D1DCE6642800D118
:10386000D9E66346002B00D049E180260A9B76000A
:103870001E40099B04331093002E00D0F0E10A9BF8
:103880005B0600D4E6E1099B1878002808D10A9A63
:103890001023110099430B000A91520500D511E243
:1038A0000A9A6123920600D54123DBB20A3B1195A7
:1038B00016AC09930D9D0AE03033DBB2721CA355A0
:1038C000002800D1F8E0202A00D1F5E016002900F8
:1038D00000F09EFACBB20929EED9099A94466344C6
:1038E000DBB2EBE74B4603930C9B049402930A9BD9
:1038F0000B9CA5E5099EA8783268E91CD343DB1729
:103900001A40331D0C920993023544E5C023A87870
:103910001C43033561E5C0239B00A8781C43033595
:103920005BE50C2322009A4314331A430A92630581
:1039300000D4A4E010230D9385E7B14500D8E2E55B
:103940004B46DB199E1B089B3A0099462B005C46B0
:1039500055469A4601374B4629002020A0473A0099
:10396000B742F7D15346A346AA461D00CBE5731CC8
:10397000B14500D8B8E14B46DB199E1B089B5C465D
:103980003A00AB4655469A46013753462900202057
:10399000A0473A00B742F7D14B46AA465D46A34638
:1039A0005E1C099B1878002800D08FE5ABE5149FBA
:1039B0000A9B06934B4605930C9B04930D9B039324
:1039C000119B0293019200943A00089B514658467D
:1039D000FEF700FB070096E50722099B0733934398
:1039E000013294469C446246099244CBF3171293E9
:1039F000139312981399030053400E930B007340D6
:103A00000F930E9B0F9C1B1A8C410E930F94F30F78
:103A10001593324307D10A9A1023110099430A9152
:103A2000520500D55DE10A9A6123920600D5412333
:103A3000DBB20A3B10934B4616AC1197A946270000
:103A40000E9C0F9D002614930BE03032D2B2BA5573
:103A50000200731C04000D000A433DD0202B3BD014
:103A60001E000D9A00232000290000F017FAD2B2A0
:103A7000092AEAD9109B9C466244D2B2E7E7802328
:103A80009B001C40F13BFF3BA4460D93E9E60A2353
:103A90000D93D8E608230D938023DB002340642890
:103AA00000D0CAE622000A94002B00D0CBE6802387
:103AB0009B001A409446AEE5119D0A9B06934B4627
:103AC00005930C9B04930D9B0393002379E7C04659
:103AD000FFFFEF7FFFFFEFFF149A0E940F954D4607
:103AE00091463C00119F0A9A019306924A4605921C
:103AF0000C9A04920D9A0392159A02922FE50722CE
:103B0000099B07339343013294469C44624603CB9E
:103B1000030009920B4308D10A9A103314009C4306
:103B200023000A94520500D5E0E00A9A6123920628
:103B300000D54123DBB20A3B1495002616AC109346
:103B400011970D9D0AE03032D1B2A1551800721CB8
:103B500039003B4365D0202A63D016002A00002399
:103B600000F09CF9D2B203000F00092AEBD910999A
:103B70008C466244D1B2E8E70A9B1B0600D4A7E05A
:103B8000099B00229B5E5AE5099B1B68DA1798186F
:103B90005040DA0F1192002B08D10A9A103311000D
:103BA00099430B000A91520500D588E00A9B6126D3
:103BB0009B0600D54126F6B2099716AC0A3E674629
:103BC00008E03033DBB27A1CE355002871D0202A9C
:103BD0006FD017000D9900F01BF9CBB20929F0D96D
:103BE0009B19DBB2EFE70C9B3A00DC19099BDB1B4E
:103BF00009932B005546B2465E469B4608E0089B5B
:103C00002900571CB047099BD85D002817D03A00FF
:103C10009442F4D15B462700B3465646AA461D009F
:103C20006DE4119F149D0A9B06934B4605930C9BD4
:103C3000019204930D9B0393002302938FE45B4650
:103C4000B3465646AA461D0059E402230D9323E7C6
:103C50000A9FB3E40A9B1B063DD5099B188814E60E
:103C6000099B1868002807D10A9A1023110099436C
:103C70000B000A91520525D40A9B61269B0600D5AC
:103C80004126F6B2099716AC0A3E674608E0303383
:103C9000DBB27A1CE35500280ED0202A0CD0170086
:103CA0000D9900F0B5F8CBB20929F0D99B19DBB218
:103CB000EFE7099F0A9B7CE6099F0A9BFEE600222C
:103CC00016AC76E6002216ACF8E60026FFF7EDFB10
:103CD000099B1B68B3E4099B1868D6E53E000A9F60
:103CE0009CE5002316ACFEE61E005CE6002216AC46
:103CF0009AE7063B14000D93CEE6C04600B585B0AA
:103D00000391012102900093034813004A4202A943
:103D1000FFF7E2FA05B000BDB91F001010B5094A5F
:103D200084B01468002C09D0012200910300524293
:103D300003A90548A047012004B010BD01F04EF8CA
:103D40000020F9E71C0B0020C91F001001480421C6
:103D5000014B1847D00100207D3D0010142310B501
:103D60000100188804331B88984710BD162310B52E
:103D70000100188802331B88984710BDF0B5C6466D
:103D800000B5002916D014230400012598461827F1
:103D9000890046184346216818883B88984701C423
:103DA000431E984140420540A642F3D1280004BC7E
:103DB0009046F0BD0125F9E7144A936F9B0815D290
:103DC0009066D166002905D0FFE7FFE7FFE7516F56
:103DD000106F704704B580210906C21751400028B2
:103DE00000D0C84301F030FE002104BD936F5B0892
:103DF000FDD3F0B5946ED56E576F166FFFF7E0FFE9
:103E00009466D56657671667F0BD0000000000D0C5
:103E1000134A936F9B0813D210665166002905D090
:103E2000FFE7FFE7FFE7516F106F704704B5002809
:103E300001D00020C04301F007FE002104BDC046B0
:103E4000936F5B08FDD3F0B5946ED56E576F166F08
:103E5000FFF7E2FF9466D56657671667F0BD00006E
:103E6000000000D094464E4A926F9208624601D2FA
:103E700030E0C046F0B54A4EB56F6D08FCD3346EE5
:103E8000756E776F366F00F025F89446444A1466D5
:103E90005566576716676246F0BDC0469446404A6D
:103EA000926F9208624601D258E0C046F0B53C4E8F
:103EB000B56F6D08FCD3346E756E776F366F00F09A
:103EC0004DF89446364A146655665767166762463B
:103ED000F0BDC046002B24DB11D000293EDA00B52E
:103EE000C943404200D1013100F038F8C943404293
:103EF00000D10131DB43524200D1013300BD002A21
:103F0000EBD1002801D1002905D00020C90FC90735
:103F100001D1C043410800B501F08EFD002200230D
:103F200000BD00B500290ADBDB43524200D101335A
:103F300000F014F8C943404200D1013100BDC9432B
:103F4000404200D10131DB43524200D1013300F045
:103F500005F8DB43524200D1013300BD002923D1D3
:103F6000002B18D1002A0CD0BC460D4F38667A665B
:103F700000210023FFE7FFE7FFE77A6F386F67460E
:103F80007047002801D00748010000B501F054FD3A
:103F90000022002300BD02000B000020002170471A
:103FA000000000D0FFFFFFFF002B00D0BDE0130C8E
:103FB00026D1002AE7D080B4104F39667A66FFE731
:103FC000FFE730B4040C7B6F396F1B0423433B665F
:103FD000FFE7FFE7FFE7C04684B27B6F3D6F1B043E
:103FE00023433B66FFE7FFE7C04600232C042D0C6C
:103FF0007A6F386F00196941B0BC7047000000D07B
:10400000F0B594460025140E01D112020835140FA4
:1040100001D112010435940F01D192000235D40F61
:1040200001D152000135D40B0134254F7C66254C5B
:104030003C660E0C93B2FFE7FFE7FFE73C6F664379
:10404000360C7703BE467343DF0B5B04C01AB941DD
:10405000130C7343DB18C91ACE086643360CB644FA
:1040600093B273431F0F1B01C01AB941130C734362
:104070001F0B1B05C01AB941860D8F023E436643D4
:10408000360C092D24DB520A7243801A7703460A44
:104090006643360C16235B1BDE40DF40BF196446C7
:1040A0006643821B7046043506330100D940A840A0
:1040B000C01900D30131A24206D20023F0BD000096
:1040C000000000D0FFFFFFFF121B0130F3D3F1E728
:1040D00009277F1BFE406446A2B27243801A00D2B9
:1040E0000139220C7243130C1204821A99410B00FD
:1040F0007046043513370100F940A840801900D3F9
:104100000131002B02D1A2420AD2F0BD013000D30E
:104110000131121BFAD2013BF8D1A24200D2F0BD0C
:10412000013000D30131121BF7E7F0B51C0C00D0B1
:1041300080E00CB400251C0A04D11B02160E334388
:10414000120208351C0B04D11B01160F3343120158
:1041500004359C0B04D19B00960F3343920002352B
:10416000DC0B02D192185B4101351C0097186441A9
:104170000134464F7C66464C3C660E0CFFE7FFE779
:10418000FFE7C0463C6F6643360C7703BE4697B2E6
:104190007743C01B00D20139C01B00D201399FB246
:1041A0007743C91BC91B170C77437E04FF0B801B89
:1041B000B941CE086643360C0C2D33DBB644120BE6
:1041C0001F053A431B0B97B27743C01B00D201393E
:1041D0009FB27743C91B170C77433E043F0C801BEB
:1041E000B941860D8F023E43664329277F1BFE405F
:1041F0000C3D7746AF40BF1930BCA2B2ABB27243A0
:104200007343801A9941220C7243130C1204801AD2
:10421000994102000B000137001BA941F9D2781E19
:104220000021F0BD0C277F1BFE4077467F0BAF407F
:10423000FF19E0E700245D1C07D0144F7D66396646
:10424000FFE7FFE7FFE7FFE73C6F95B29EB26543EC
:104250006643401BB141150C1E0C65436643360492
:104260002F0C3E432D04401BB141994204D2020061
:104270000B0020000021F0BD01D19042F7D3801A3D
:10428000994101349942F2D3F6E70000000000D0D2
:10429000FFFFFFFF48404140484018B4114B5B68A6
:1042A000FC46019308BD04DFC744001018B40D4B51
:1042B0001B68FC46019308BD00DFD144001018B410
:1042C000084BDB68FC46019308BD0CDF89470010F2
:1042D00018B4044B9B68FC46019308BD08DF2D46CB
:1042E000001000004C0B0020FFB5504042405040F1
:1042F00059404B40594000E0FFB5154F4C00640D4C
:1043000003D0BC4204D10C0314D80020090D0905C8
:104310005C00640D03D0BC4204D11C030AD8002207
:104320001B0D1B0501264B4009D44B4003D58B4286
:1043300000D18242FFBD9942FCD19042FFBD0B43A8
:10434000DB1803431343F5D0C9434918FFBD0000F0
:10435000FF07000000B5FFF7CFFF804100BDC0465A
:1043600000B5FFF7C1FF01D9002000BD012000BD4D
:1043700000B5FFF7B9FF804100BD012040054A00AC
:10438000121804D85A00121801D8002070470120D2
:1043900070470020704700000021002805D17047B9
:1043A000C1174840401AFAD0C90713B5064B1B681D
:1043B00098470CBC441CA2401005120B0349091B72
:1043C00009051943114310BD4C0D00201F040000C6
:1043D00010B54C00620D8023D218DB00D21A5B05A9
:1043E0007E2A10DD9E3A13DACC17090349081943D7
:1043F0005242D140640001341532202A05DAD040FF
:104400000843604310BD002010BD0846604310BD46
:10441000C80FC018013810BD18B4044B5B6AFC46C5
:10442000019308BD24DFB549001000004C0B0020AB
:1044300018B4044BDB6FFC46019308BD7CDF314AA6
:10444000001000004C0B0020132370B51C78012CC9
:104450000CD015DD0C48FFF789FC0C4D01008022C3
:10446000280000F0E1FB022C0BD070BD074D084A7C
:1044700029002B00803104C38B42FCD1AA64F4E7ED
:10448000024D034AAA64F0E7534400004C0B00209D
:104490009544001007B5604601880A0A0230DF2AF9
:1044A000FAD1C9B2820804D30288408800041043BC
:1044B00000E00068014A5050039007BD4C0B0020FB
:1044C0000FB403BC0CBCF0B50124E407634000E06A
:1044D000F0B50C0DCF0F661E3605891B640503D39E
:1044E000C943404200D30131640D03D0661CF60A73
:1044F00007D0E41B00207F00791C89078912803CCB
:1045000024031D0DDF0F6E1E36059B1B6D0503D3A7
:10451000DB43524200D301336D0D03D06E1CF60A0B
:1045200007D0ED1B00227F007B1C9B079B12803D68
:104530002D032F1B661B58D4A446202E46DA2037A5
:104540001400BC401D00BD40F24033412A43801896
:104550005941CB0F05D0C943C043002264425041AA
:10456000514162464D0D28D10D0D07D100281FD0B5
:10457000241940414941013A0D0DF9D0640006D398
:10458000013000D30131002C01D140084000013A34
:104590000BD4941CE40A04D112051144DB0719441E
:1045A000F0BDD907204B194300E0D9070020F0BD2A
:1045B0000029DDD1002CDBD1F0BD0132C607400857
:1045C000CD0728434908002EE1D0D9E73C2E29DA4F
:1045D000203E40371400BC4000D00124F240144378
:1045E0001A00BB401C43D317ACE7AC46202F08DAB7
:1045F00020360400B4400D00B540F840394128434E
:10460000A5E73C2F0CDA203F40360400B44000D030
:104610000124F84004430800B1400C43C117EAE705
:1046200010001900002494E70000F07FF0B50C0D95
:10463000661E3605891BE60A6405640D02D0651CFA
:10464000ED0A04D0002001210905803C2403A44682
:104650001C0D671E3F05DB1BE70A6405640D02D0D5
:10466000651CED0A04D0002201231B05803C2403B5
:104670007740644497B484B296B27443070C7E4387
:10468000150C6F4380B26843361802D30120000432
:104690003F183004350C00197D41844688B29AB227
:1046A00050430C0C62431F0C7C438EB27E43921924
:1046B00002D301263604A4191604170C36186741D4
:1046C00001BC81B29AB25143040C62431B0C5C439F
:1046D00080B25843121802D3012000042418100499
:1046E000130C401863412D185E410020474106BC61
:1046F00088B293B258430C0C6343120C544389B2F2
:1047000051435B1802D301210904641819041A0CDF
:10471000091862416D1856410020474118BCF90242
:10472000720D1143F0026A0D1043ED020A0D03D120
:104730006D1940414941013B124E9B1B7600B3422B
:104740000ED26D0007D30130002671416646354315
:1047500001D1400840001B05C918E4072144F0BD01
:104760000BDA013306D1013004D101314F0D01D0F4
:104770004908F2E7E1070020F0BD013631050020CD
:10478000EBE70000FF030000F0B51C0D671E3F05BE
:10479000DB1BE70A6405640D02D0661CF60A04D030
:1047A000002201231B05803C2403D0252D06002672
:1047B000F6432E661E096E66CE0FF619B446490002
:1047C0004F0D02D07E1CF60A03D000200021403F8E
:1047D0003F033E1BB600B444013F7F05C91B490897
:1047E0002E6F013676089C02950D25437543ED1317
:1047F0007543AD1301356D10F603761B0CB4CC0276
:10480000450D2C43A2B2B3B25A43270C7B43350C5F
:104810006F43A4B26C431B1902D3012424043F1933
:104820001C041D0CA4187D4124196D41009A91B2FD
:10483000ACB26143170C7C432B0C5F4392B25A43DA
:10484000A41802D301221204BF182204230C521808
:104850007B41019C6C431B19520ED9010A43440150
:10486000A01A81B2B2B2514303145A43360C7343B7
:1048700087B27743D617D21900277E4136049B1999
:104880001704160C7F185E417316ED18F30100260D
:1048900080337541A90F06D16400690AE8055B0AF7
:1048A000184309D22FE00422944480337541A90AA9
:1048B000A8059B0A184326D3404149412404009A85
:1048C000019B0D005543641B4343E41A95B286B225
:1048D0007543170C7E43030C5F4392B25A43B618DC
:1048E00002D301221204BF183204330C52197B4147
:1048F00052429C41002C02D4002201305141400818
:10490000CA071043490802B06246D7079210084B05
:10491000D218084B9A4203D212058918C919F0BD62
:104920000020002A01DC3900F0BD01331905F5E74C
:10493000FD030000FE070000624618CA94460029E5
:104940001ADAC01861415B463B415C46B4405246AE
:10495000FA40224344464D4662416B419046994697
:104960002B46B3403D41FC401C4352465B46A241AE
:10497000AB4192469B467047C01AA1414B463B4112
:104980004C46B4404246FA40224354465D4662419A
:104990006B4192469B462B46B3403D41FC401C4335
:1049A00042464B46A241AB41904699467047002093
:1049B00000217047002200B5203200F004F8080002
:1049C00000BD000000220B15F1D410B5944600F094
:1049D0005DF81414013400DA0021CB17134C204782
:1049E0006244343A0CD40C2A07DA04009140904017
:1049F00052422032D440214310BDD843D94310BD88
:104A0000203207D40C469440524220321141D0400B
:104A1000204310BD0800C917203203D4524220326F
:104A2000104110BD1800190010BD0000E149001030
:104A30004A00520D144BD21A13DDFF2A1EDAD2059A
:104A4000CB0FDB071A43C300400F0903490A084391
:104A500010435B0001D301D0013070474308FBD203
:104A6000704702D0C80FC00770470A031213013203
:104A7000F8D1420F072AF5D1012200E0FF22C80F2A
:104A800000028018C0057047800300000A0DCC0F9B
:104A9000531E1B05C91A520503D3C943404200D314
:104AA0000131520D03D0531CDB0A07D0121B00202A
:104AB0006400611C89078912803A1203014BD21AE3
:104AC00070470000FF03000007B5484041404840E0
:104AD00001E0C04607B54200120E03D0FF2A03D101
:104AE000420218D8C00DC0054A00120E03D0FF2A9A
:104AF00003D14A020FD8C90DC9050122414005D48E
:104B0000414001D5814207BD884207BD0143491894
:104B100001D0C043001807BD00B5FFF7DBFF80419F
:104B200000BDC046C10FC90700D54042002817D0BC
:104B3000F44603B40B4B1B68984706BC81409E3873
:104B40004042803107D20B0607D04900490AC00510
:104B50001043084360470130F8E7490A8902F5E746
:104B6000704700004C0D0020132310B51C7813482B
:104B7000FFF7FCF8012C0BD004DD01008022104867
:104B800000F052F80F48FFF7E9F80F4B186010BD1E
:104B90000B4C01005422200000F046F80B4B6365DB
:104BA000A365E36523666366A366E36623676367BD
:104BB000A367E3672362E361E4E7C046534600006E
:104BC0004C0C00204C3300004C0D0020D14B001049
:104BD00007B5604601880A0A0230DF2AFAD1C9B255
:104BE000820804D3028840880004104300E0006873
:104BF000014A5050039007BD4C0C002010B500F046
:104C0000C1FA10BD10B500F085FA10BD01480421AD
:104C1000014B1847E00100207D3D0010014B1B684F
:104C200018470000E0010020014B5B6818470000B6
:104C3000E0010020F0B5C646070000B50C00151EC7
:104C400030DD0A78037C00200A2A2ED00121012DB4
:104C50001BD01A4B984602E03100AE4215D04B1ED5
:104C6000E25C635C4E1C0A2BF6D10D2AF4D03B6843
:104C7000884203DA091A201898473B680221404607
:104C8000984730003100AE42E9D1854203DD291A50
:104C90003B68201898476419013C23780D3B5A4221
:104CA00053413B7404BC9046F0BD002BCED1034869
:104CB00002213B6898470120C8E7C0460C5E0010FF
:104CC000F0B5C6460B6800B506000D00802B06D077
:104CD0005A1C2A60ED182E7104BC9046F0BD124B90
:104CE0001C68002C17D00B1D104F984602E0E4689A
:104CF000002C10D02368002BF9D03A68002A01D08C
:104D0000A242F4D1607C2968002807D14046984728
:104D1000E468002CEED101220023DAE70A0020002B
:104D20004146FFF787FFE2E7100B0020140B00203D
:104D3000F0B5CE46474680B583B06B46DE1CD02327
:104D400030701B061C68224B804601A9180099464A
:104D500000F082FE071E2DD1019B9C4225D04846C3
:104D600000F082FE1B4B01271C68002C26D01A4D38
:104D700002E0E468002C10D02368002BF9D02A68E8
:104D8000002A01D0A242F4D1627C002A1AD101216A
:104D900030009847E468002CEED1002F0ED1404639
:104DA00003B00CBC90469946F0BD0A4B1C68002C21
:104DB000DDD1F4E7074B1C68002CD8D1484600F041
:104DC00033FEECE7012231002000FFF733FFD0E78C
:104DD000480A0020100B0020140B0020F0B5DE461E
:104DE000454657464E46E0B583B0804600F0ACFCE1
:104DF000D02301AD1B06070029003C481C6800F0C9
:104E00002BFE834600284DD1019B9C4244D037485D
:104E100000F02AFE364B9A461C6801239B46002C64
:104E200045D00A2399463B00324E4746984602E059
:104E3000E468002C19D02368002BF9D03268002ACE
:104E400001D0A242F4D1627C002A40D14146380010
:104E500098474B462B70627C2368002A2BD1012196
:104E600028009847E468002CE5D15B464746002BB4
:104E70001DD153461C68002C06D06368002B2CD033
:104E80009847E468002CF8D1380003B03CBC904649
:104E90009946A246AB46F0BD154B1C689A46002CBD
:104EA000BFD1F1E7124B1C689A46002CB9D10F48CC
:104EB00000F0BAFDDDE7227C002A12D102210E4863
:104EC00098472B780D3B5A4253412374B0E7424632
:104ED00039002000FFF7AEFEBBE7E468002CCCD120
:104EE000D2E7012128009847EBE7C046480A002096
:104EF000100B0020140B00200C5E00100D4B1A68E4
:104F0000002A12D0824203D109E0984207D01A0049
:104F1000D368002BF9D1002900D0D0607047002958
:104F2000FCD1C368D360C160F8E70029F6D01860EF
:104F3000F4E7C046100B0020F0B54746CE46D0231C
:104F400080B51B06304FA3B01B6804000D0038006D
:104F500001A9984600F080FD061E06D1019B9845E8
:104F600003D0380000F080FD01368422002101A822
:104F7000FFF754FE2B00220001A92448FEF7BEFED5
:104F8000019B8046002B17D1214B1C68002C06D0BA
:104F90006368002B0ED09847E468002CF8D1002EEF
:104FA00002D0380000F040FD404623B00CBC9046D3
:104FB0009946F0BDE468E9E7154B1D689946002D58
:104FC0001FD0144C02E0ED68002D10D02B68002B90
:104FD000F9D02268002A01D0AA42F4D1687C019954
:104FE000002808D102A89847ED68002DEED14B4665
:104FF00001951C68CAE70A00280002A9FFF71AFEFB
:10500000E1E70195CBE7C046480A0020C14C0010FB
:10501000100B0020140B00200FB400B583B004A9BE
:1050200001C90191FFF788FF03B008BC04B018471D
:10503000F0B5002910D020240D270A4B0A4A00267B
:105040009E5F41180578AE4207D093691C42FCD19F
:10505000013015608842F5D1F0BD93691C42FCD146
:105060001760F2E7480B00200040034030B50029EC
:1050700014DD0C4A9369DB0610D400251024013599
:1050800093691C42FCD113680370A94204D0936950
:1050900001301C42F3D02900080030BD03204042FB
:1050A000FBE7C04600400340E12110B50A4B49022E
:1050B0001B780A4B0A481B78FBF7FCFC02210020F6
:1050C000FBF79CFC02210120FBF798FC012105481D
:1050D000FFF714FF10BDC046705E0010745E001034
:1050E00000400340F001002070B59E25084C2D01C2
:1050F0002800E560FFF782FDA060002804D00023AF
:1051000060600560436070BDE0606060FBE7C046C2
:10511000C40A002010B5044B0A001B6801001800E7
:1051200000F004F810BDC0460802002010B551433D
:1051300000F03CF8041E1CD00300083B5A6803230F
:105140009A43043A242A16D80300132A0DD90021C1
:105150000833016041601B2A07D98160C160242A9D
:105160000DD1030001611833416100221A605A60B9
:105170009A60200010BD0021FFF750FDF9E7030001
:105180001033F2E710B5034B0100186800F00EF879
:1051900010BDC0460802002010B5034B010018687E
:1051A00000F054FB10BDC04608020020F0B5574681
:1051B0004546DE464E46E0B50D000B3583B0070090
:1051C000162D28D8102900D9C1E000F0A7FA102523
:1051D00018230220CE4EF3181A005C68083A944255
:1051E00000D160E1032362689A431300E268A1687A
:1051F000CA6091600122E318596838000A435A6076
:1052000000F08EFA2000083003B03CBC904699466E
:10521000A246AB46F0BD07239D4300D597E0A942C7
:1052200000D994E000F07AFAF823FF339D4200D8C9
:105230005EE1680A00D18EE0042800D939E1382304
:105240009846A80980443930C100B14E7118083918
:10525000CC68A14218D0032362689A431300521B02
:105260000F2A00DD1DE1002AC0DA03239C4608E076
:105270006246636893435A1B0F2A00DD11E1002A3E
:10528000B4DAE468A142F3D13200346908329442BE
:1052900067D00323616899438A460B00491B0F2995
:1052A00000DD12E1726132610029A3DA994A924568
:1052B00000D948E1DB08FF3A9910FF3A8A40DB0049
:1052C00071689B190A4399687260E360A1609C60F1
:1052D000CC60012183109940914248D80A4205D1FF
:1052E00003239843490004300A42FBD00323984625
:1052F000C3009946B144CC4682466346DC68A44567
:1053000007D1F9E0002A00DB0EE1E468A44500D1F2
:10531000F2E04246636893435A1B0F2AF2DD0120F4
:105320008046611905436560A068E5680836C56078
:10533000A8604046F160B16010434860CE608E6066
:105340003800E25000F0ECF9200008305CE70C2354
:1053500000203B6058E780213F2389004020984689
:1053600073E701217268831099409142B6D90323F3
:10537000B46862689A439046AA4203D3531B0F2B2A
:1053800000DD80E0644B654A9A4693461B681268CC
:10539000EB18013200D138E1614A944663441B0B9B
:1053A0001B0300930099380000F0BCF9030081460C
:1053B000013300D1F6E04346E218824200D9EFE023
:1053C00051464968009B8C46514663444B6082427B
:1053D00000D14BE159460968013100D15DE14946F0
:1053E0008A1AD3185246536007234A461A4001923C
:1053F00000D120E108214B4689469B1A9944009927
:10540000484B49449B1A5B1A1B051B0D0091380041
:1054100019009B4600F086F9431C00D15AE153461F
:1054200052465B6849465B4453604A46B260801A04
:105430000122584410434860B44211D041460F291C
:1054400000D827E107200C3981436068024005201D
:105450000A4362606218506090600F2900D941E1F0
:105460005246D26A934201D95246D3620322B468AB
:10547000616891430A005146096B8B4200D895E060
:1054800051460B6392E00122290013431143651931
:1054900061603800B5606B6000F042F920000830B0
:1054A000B2E64046F0E6DC680230A34200D1EBE60B
:1054B00098E614286ED9542800D9A9E06E2398469E
:1054C000280B80446F30C100BFE6012360191D43E3
:1054D000656070613061C26082601A0053460A43A1
:1054E00042603800E15000F01BF9200008308BE6E4
:1054F0002B00E80808336DE608239B46073BDC4495
:105500009B46DA4443465246134200D0F5E667E034
:1055100040060020FF010000840A00203806002019
:105520000F100000081000000122E318596838002D
:105530000A435A60E368A268D3609A6000F0F0F80A
:105540002000083060E65A0A042A3AD9142A00D901
:1055500083E05B23984690445C32D20008235B4290
:105560009C46B218944463469968032399468C4537
:1055700059D04B464A689A43524502D989688C45AE
:10558000F7D1CB6872689C466346A160E3609C607B
:10559000CC609EE65B23984680445C30C10054E6B4
:1055A000B4427ED00323B46862689A43531B954289
:1055B00002D80F2B00DD66E7380000F0B1F80020BC
:1055C00022E69A093823984690443932D200C5E73A
:1055D0004B461A68083B013891469A4200D098E041
:1055E00043460342F4D173688B4373604900994288
:1055F00000D9BCE6002904D1B9E60422944649004A
:10560000E2440B42F9D0504672E610330093C9E6EB
:10561000AA235B00984233D8DD3B9846E80B8044D0
:105620007830C10011E6434601229B109A4073680E
:105630001A437260A8E7009B38004B4400931B0597
:105640005B421B0D19009B4600F06CF8431C00D018
:10565000E5E6002300989B46E1E6542A29D81A0B78
:105660006E23984690446F32D20077E7110500D040
:10567000B0E60120009AB168424402434A60EFE676
:10568000254B984220D87C239846A80C80447D3036
:10569000C100DAE54B465A608EE75B464A461A601F
:1056A000A2E651464968009B8C46514663444B60D4
:1056B00090E6AA2149008A421CD8DA0B7723984643
:1056C00090447832D20049E7FE217E2389007F2072
:1056D0009846BAE5009B01989C4600230838604430
:1056E0009B469CE621003800083100F0AFF8534695
:1056F0005B68B5E608498A4206D89A0C7C2398462E
:1057000090447D32D20029E7FE227E239200984603
:1057100024E773686AE7C046540500007047C04636
:105720007047C046002370B5064C05000800236092
:10573000FCF7A2F8431C00D070BD2368002BFBD0FF
:105740002B60F9E7500D002010B5040083070AD044
:105750000378002B23D0032202E00378002B1CD017
:1057600001301042F9D102680E4B0F49D318934310
:105770000B420FD1043002680A4BD31893430B42FB
:1057800008D104300268074BD31893430B42F1D081
:1057900000E001300378002BFBD1001B10BD00207E
:1057A000FCE7C046FFFEFEFE80808080F8B50C005E
:1057B0000600FFF7B3FF204FBB685D6803239D43DE
:1057C0001E4B2C1B9C466444240B1D4B013C2403A4
:1057D0009C4207DD00213000FFF7A4FFBB685B1986
:1057E000984204D03000FFF79BFF0020F8BD6142D3
:1057F0003000FFF797FF431C0DD00122BB682D1B23
:1058000015435D600F4B30001A68141B1C60FFF7D6
:1058100087FF0120EAE700213000FFF783FFBA6825
:10582000831A0F2BDEDD08490968401A0549086014
:1058300001210B435360D5E740060020EF0F000025
:10584000FF0F0000880A002038060020F8B5CE4679
:105850004746050080B50C1E55D0FFF75FFF2100BD
:1058600008394F68012438000323A0430A185668FA
:105870009E43B146644EB368934229D04B46536071
:10588000D3189C463C4242D10F68C91B8B68C01993
:10589000984663465F6808239C46B4442740E04529
:1058A0006AD04346CC68DC60A360002F32D101246B
:1058B00048440443A0469368544C0F18A34200D1B7
:1058C0007FE0D268DA60936043464B60386025E041
:1058D00003004B443C4206D10A68891A88689B1829
:1058E000CA68C260906001221A434A60484AB160A7
:1058F00012689A4204D8474B28001968FFF756FFF0
:105900002800FFF70DFF0CBC90469946F8BD5F6874
:105910002740CCD0012303434B6008503E4B9842B4
:105920001AD9430A042B33D8820914003932383487
:10593000D200B218083A936803279A4239D05C68BB
:10594000BC43844233D99B689A42F8D1D368CB6078
:105950008A609960D160D3E7C008FF3B8210FF3BAB
:1059600093407268C000134373608619B368CE60B9
:105970008B60B160D960C3E7002F41D1030090680C
:105980004B44D2681C43C26090604C60CB50B7E778
:10599000142B07D9542B1CD8020B14006F326E3411
:1059A000D200C6E71C005C335B34DA00C1E71A00A2
:1059B000CCE70123A410A340706803437360130075
:1059C000C5E7D9609960CB608B6043464B60386017
:1059D00096E7AA225200934205D8C20B14007832EF
:1059E0007734D200A5E70D4A934205D8820C140003
:1059F0007D327C34D2009CE7FE227E24920098E720
:105A000004434C6010607BE74006002048060020FD
:105A10003C060020840A0020FF010000540500001D
:105A2000F8B5C0460000000001B40248844601BC3D
:105A3000604700BF5501002001B40248844601BC04
:105A4000604700BF7D01002001B40248844601BCCC
:105A5000604700BF7D01002001B40248844601BCBC
:105A6000604700BF0D01002001B40248844601BC1C
:085A7000604700BFC1000020E7
:105A7800706572736F6E2073636F72653A25642068
:105A88006E6F20706572736F6E2073636F7265201E
:105A98002564000054657374696E672054657374D7
:105AA80043616C6C6162696C6974790025642F25A7
:105AB8006420746573747320706173736564000087
:105AC8007E7E7E414C4C20544553545320504153C4
