:020000041000EA
:1000000000B5324B212058609868022188439860DF
:10001000D860186158612E4B002199600221596106
:100020000121F02299502B49196001219960352056
:1000300000F044F80222904214D00621196600F024
:1000400034F8196E01211966002018661A6600F04E
:100050002CF8196E196E196E052000F02FF8012189
:100060000842F9D1002199601B49196000215960AB
:100070001A491B48016001219960EB211966A021F2
:10008000196600F012F800219960164914480160C1
:100090000121996001BC002800D000471248134993
:1000A000086003C880F30888084703B5996A0420EC
:1000B0000142FBD001200142F8D103BD02B5186610
:1000C0001866FFF7F2FF186E186E02BD00000240BE
:1000D000000000180000070000035F00212200005C
:1000E000F4000018222000A00001001008ED00E03C
:1000F00000000000000000000000000074B24E7A12
:1001000000200420F7010010C3010010C5010010F9
:10011000C1010010C1010010C1010010C101001097
:10012000C1010010C1010010C1010010C701001081
:10013000C1010010C1010010C9010010CB01001065
:10014000CD010010CD010010CD010010CD01001037
:10015000CD010010CD010010CD010010CD01001027
:10016000CD010010CD010010CD010010CD01001017
:10017000CD010010CD010010CD010010CD01001007
:10018000CD010010CD010010CD010010CD010010F7
:10019000CD010010CD010010CD010010CD010010E7
:1001A000CD010010CD010010CD010010CD010010D7
:1001B000CD010010CD010010CD010010CD010010C7
:1001C00000BE00BE00BE00BE00BE00BE00F04BF888
:1001D000103800BEF2EB8871A0550610C05506100D
:1001E0003402001090A31AE700202149086006C8D5
:1001F00081F3088810471F48006800282FD10DA4FC
:100200000ECC002902D000F012F8F9E71A491B4A77
:10021000002000E001C19142FCD1194988471949E9
:1002200088471949884700BEFDE701C901C29A42C3
:10023000FBD37047C0550610C0000020D81B00201B
:10024000D87006100000042000000420D8700610AA
:1002500000100420001004200000000070470B482C
:1002600011F05EF80047EFF30580C0B27047000060
:1002700008ED00E0000000D0D81B0020344B022025
:1002800031ED00106506001055EE001057560000C5
:1002900006005250ABB3605318300610060052509F
:1002A000861C030228300610060052505422A29DDC
:1002B0004030061005005250DE65F468D870061014
:1002C000F8B5C0460448054B10B5834203D0044B33
:1002D000002B00D0984710BDD81B0020D81B002051
:1002E0000000000006480749091A8910CB0F591869
:1002F00010B5491003D0044B002B00D0984710BD17
:10030000D81B0020D81B00200000000010B5074CAF
:100310002378002B09D1FFF7D5FF054B002B02D026
:10032000044800E000BF0123237010BDE01B002043
:100330000000000070760110054B10B5002B03D0B3
:100340000449054800E000BFFFF7CCFF10BDC046E0
:1003500000000000E41B00207076011070B513004F
:1003600082B00E0015000A000A4900F0AFFE00201E
:100370002021094B01AC094A2380A670E5709369DE
:100380001942FCD1235C013013600428F7D102B07C
:1003900070BDC0467076011055BBFFFF00400340A2
:1003A000F0B54E4645465746DE46E0B5A14D984667
:1003B0002B7883B00600894692460C9C002B12D005
:1003C0009D4F7B689847BB689847002800D023E181
:1003D000FB6898478346002800D023E13B69022050
:1003E00098475B462B7009F013FE002803D1934910
:1003F000300000F06BFE09F00FFE0500200015F044
:1004000037F909F009FE8E4B451B9D4200DCEFE0F9
:1004100009F0FEFDFA21890010F0B0FF010028006C
:1004200010F0ACFF874F00902B00874A3900300056
:1004300000F04CFE09F0ECFD002803D17F493000AC
:1004400000F044FE09F0E8FD202105007F4A936991
:100450001942FCD15523202113607C4A936919422B
:10046000FCD1AA23136009F0D7FD754B451B9D42B3
:1004700000DCB2E009F0CCFDFA21890010F07EFF2B
:100480000100280010F07AFF00902B00704A39001C
:10049000300000F01BFE09F0BBFD002803D16749C6
:1004A000300000F013FE09F0B7FD902383462021B1
:1004B00020009B01654AE51893691942FCD1037835
:1004C00001301360A842F7D109F0A6FD5B46C51ABA
:1004D0005B4B9D4200DC75E009F09AFDFA21890032
:1004E00010F04CFF0100280010F048FF2B00009096
:1004F000584A3900300000F0E9FD55464B465D434F
:1005000043466B431D1E55DD032063421840C21C49
:100510006B1E934200D28BE0002800D176E0237856
:10052000803B237001286ED06378803B6370022883
:100530006FD0A378803BA37003239C462B1A984668
:100540009F0800210023444E2018C25801317240F8
:10055000C2500433B942F8D3032342469A43634658
:10056000D318904526D0E1180A78803A0A705A1CB0
:10057000AA421FDAA2181178803911709A1C95428C
:1005800018DDA218117880391170DA1C954211DD3E
:10059000A2181178803911701A1D95420ADDA2182F
:1005A00011780533803911709D4203DDE4182378FA
:1005B000803B2370002003B03CBC90469946A24685
:1005C000AB46F0BD09F024FD6B015B1B9B005B1982
:1005D0000100D80010F0D2FE88E709F019FD6B0188
:1005E0005B1B9B005B190100D80010F0C7FE4BE7B6
:1005F00009F00EFD6B015B1B9B005B190100D8002D
:1006000010F0BCFE0EE701239C4697E700239C46B2
:1006100094E702239C4691E71049300000F056FD14
:100620000120C8E70E49300000F050FD0120C2E76C
:10063000002398E79012002054130020C076011088
:100640009BC4200000770110E076011000400340B9
:100650001C7701104477011080808080947601100F
:10066000A876011010B500F085F900F069FCFCE7F0
:1006700000230360436083607047C046F0B51021DB
:100680002020FF250D270F4B0F4A00269E5F936900
:10069000194210D193691942FCD114689369184228
:1006A000F5D12C40A64207D093691842FCD11460C2
:1006B00093691942EED0F0BD93691842FCD11760DE
:1006C000F2E7C04668480220004003407047C04639
:1006D000030020291DD0A4228258002A19D0806945
:1006E000884218D0012A14D9986B814215D0022A69
:1006F0000FD0986D814215D0032A0AD0986F81429D
:1007000012D0042A05D098229A58002091420DD088
:1007100070470020FCE7181DFAE701204001043073
:100720001818F5E70220F9E70320F7E70430F5E7AA
:100730007047C046C423C358002B1BD0A822825C3C
:100740008A4219D0012B15D9A922825C8A4218D07D
:10075000022B0FD0AA22825C8A4214D0032B09D02C
:10076000AB22825C8A4212D0042B03D0AC23C35C40
:100770008B420AD00020704700232C339B0018586E
:10078000F9E70123F9E70223F7E70423F5E7032359
:10079000F3E7C04610B5024808F0F4FE10BDC046AD
:1007A000343D0220A42370B5C55804000E00002D6E
:1007B0003DD08369202B30D0012D38D9A36B202B5D
:1007C00037D0022D33D0A36D202B0DD0032D2ED08A
:1007D000A36F202B10D0042D29D09823E358002597
:1007E000202B11D0280070BD3100E06D16F042FCC6
:1007F0000028EBD1022516E03100E06F16F03AFC3C
:100800000028E8D103250EE07C33E058310016F0D3
:1008100031FC0028E6D1043505E0C06916F02AFC59
:100820000028C9D100256D0104356519DAE70025D6
:10083000D8E73100E06B16F01DFC0028C1D101257E
:10084000F1E7C0467047C0460268030052691B4882
:1008500010B5824221D120291DD0A4229A58002A05
:1008600019D0986981421BD0012A14D9986B814212
:100870001DD0022A0FD0986D814213D0032A0AD0CE
:10088000986F814215D0042A05D098229A580020EA
:10089000914210D010BD0020FCE718009047F9E706
:1008A000181DF7E70220400104301818F2E7012074
:1008B000F9E70320F7E70430F5E7C046D10600105A
:1008C00003682B4A9B6970B504000E0093423AD12D
:1008D000A423C558002D34D08369202B17D0012DB7
:1008E0002FD9A36B202B1CD0022D2AD0A36D202B37
:1008F0001FD0032D25D0A36F202B27D0042D20D06F
:100900009823E3580025202B28D0280070BDC0690B
:1009100016F0B0FB0028E2D100256D010435651901
:10092000F3E73100E06B16F0A5FB0028DCD10125D0
:10093000F3E73100E06D16F09DFB0028D9D10225C8
:10094000EBE70025E1E798470500DEE73100E06FBF
:1009500016F090FB0028D1D10325DEE77C33E05868
:10096000310016F087FB0028CFD10435D5E7C0460B
:10097000A5070010F0B5D6464F464646E121C0B562
:10098000CC4C8CB0090320000DF098F80221002017
:100990000CF0A2FF022101200CF09EFF6022E36A0E
:1009A00010255A406E231340C34AC4491360E36ABA
:1009B00014202B4013600EF051FC012114200EF086
:1009C0002BFC3823A563626BBD4C1340BD4A1360FA
:1009D0002378BFF35B8FDB0700D444E1BA4ABB4CFA
:1009E00051781378090219439378B9481B041943C5
:1009F000D378B84D1B060B439B181A6820609A1ACF
:100A000011882B60042902D99288002A0AD1002279
:100A10000323B14900F05AFB0CB01CBC9046994628
:100A2000A246F0BD9A58032AF2D10127AB4B984653
:100A30001B78BFF35B8F1F4000D163E1A84E04AB6E
:100A40001800994604F0D6FDA423F358002B00D1DA
:100A500058E2B269012A00D16AE1012B00D807E20D
:100A6000B26B012A00D163E1022B00D100E2B26D2A
:100A7000012A00D15CE1032B00D1F9E1B26F012A18
:100A800000D155E1042B00D1F2E19823F358012B5A
:100A900000D14DE1C823F058002804D0C33B012207
:100AA000904900F013FB484602F04CFBA423F35896
:100AB000002B00D12CE2B269032A00D142E1012BC4
:100AC00000D8F7E1B26B032A00D13BE1022B00D141
:100AD000F0E1B26D032A00D134E1032B00D1E9E14A
:100AE000B26F032A00D12DE1042B00D1E2E198235B
:100AF000F358032B00D125E1C823F058002804D077
:100B0000C33B0322774900F0E1FA484603F0EAFCD0
:100B1000A423F358002B00D1EEE1B269042A00D1DE
:100B20002EE1012B00D85CE1B26B042A00D127E151
:100B3000022B00D155E1B26D042A00D120E1032B34
:100B400000D14EE1B26F042A00D119E1042B00D18B
:100B500047E19823F358042B00D111E1C823F05842
:100B6000002804D0C33B04225E4900F0AFFA484697
:100B700006F038FDA423F358002B00D1BFE1B26981
:100B8000162A00D1F2E0012B00D84FE1B26B162AF1
:100B900000D1EBE0022B00D148E1B26D162A00D162
:100BA000E4E0032B00D141E1B26F162A00D1DDE071
:100BB000042B00D13AE19823F358162B00D1D5E04D
:100BC000C823F058002804D0C33B1622454900F042
:100BD0007DFA484605F054F8A423F358002B00D1C1
:100BE00093E1B269192A00D1B6E0012B00D8D6E012
:100BF000B26B192A00D1AFE0022B00D1CFE0B26D69
:100C0000192A00D1A8E0032B00D1C8E0B26F192A3D
:100C100000D1A1E0042B00D1C1E09823F358192B97
:100C200000D199E0C823F058002804D0C33B192212
:100C30002C4900F04BFA01272B4B98461B78BFF349
:100C40005B8F1F401CD0294D294E2800356008F0CD
:100C5000E9FD002800D09DE03068002108F0C8FCC4
:100C6000244B1860D8E6200014F0AAFD002800D11B
:100C7000B4E6200014F0C0FD1F4815F0F9FDADE604
:100C8000404614F09DFD0028DDD0296802972368B6
:100C9000164D019388239B0200933200174B2800C6
:100CA00008F00AFC404614F0A7FD154815F0E0FDD9
:100CB000CAE7C046004003402C5003407D060010A8
:100CC000381C002034500340E87801105C1C0020E0
:100CD00094120020641C0020EC770110301C0020CE
:100CE000683C022084780110341C0020343D02202E
:100CF000481C0020601C0020CD060010681C00204D
:100D000095070010404614F05BFD834E002800D18B
:100D100095E6824B40463360A423F7502033F750CA
:100D20000433F75014F068FD7D4815F0A1FD86E608
:100D3000C823F058002800D1B5E60122794900F017
:100D4000C5F9B0E6C823F058002800D1DDE603223B
:100D5000744900F0BBF9D8E6C823F058002800D148
:100D600069E719226F4900F0B1F964E7C823F05828
:100D7000002800D12DE716226A4900F0A7F928E7DC
:100D8000C823F058002800D1F1E60422654900F09C
:100D90009DF9ECE62068644900F098F93CE65A1C9D
:100DA00094465B019846B0444346191D0A004F46DD
:100DB0000BCF0BC20BCF0BC219200ACF0AC243467E
:100DC00062469861C421A423F2507358F218A832E5
:100DD00010701A0055482C3292000133B0507350F5
:100DE00029E75A1C90465B019A46B24453460422B6
:100DF000181D94464946020089C989C289C989C219
:100E000009C909C262465346C4219A61A4234246D5
:100E10006046F2507358F218A83210701A00444815
:100E20002C3292000133B0507350A0E65A1C944605
:100E30005B019846B0444346181D0200494689C9E3
:100E400089C289C989C209C909C2162043466246B6
:100E50009861C421A423F2507358F218A83210707C
:100E60001A0034482C3292000133B0507350B0E66F
:100E70005A1C94465B019846B0444346181D020034
:100E8000494689C989C289C989C209C909C20120DB
:100E9000434662469861C421A423F2507358F21865
:100EA000A83210701A0024482C3292000133B0503E
:100EB0007350F8E55A1C94465B019846B04443468B
:100EC000181D0200494689C989C289C989C209C950
:100ED00009C20320434662469861C421A423F2500C
:100EE0007358F218A83210701A0014482C3292006D
:100EF0000133B050735008E60122904673E7012297
:100F0000944695E701229446B4E70122944648E7C7
:100F100001229446D0E7C046683C02209077011039
:100F20004508001034780110C8780110211600100F
:100F3000B912001015150010F113001099110010CE
:100F4000F0B583B009F064F84E4D002800D180E080
:100F500009F062F84C4B04001B6828681B6960228A
:100F6000009360210123FFF71BFA002800D07FE0E7
:100F700009F052F8454B041B9C4252DD09F048F839
:100F8000FA21890010F0FAF90100200010F0F6F9BA
:100F900003003F4E28683F4A00933100230000F0D1
:100FA00095F809F035F800285DD009F035F83A4F8A
:100FB0000400386808F004FD00284FD109F02CF82F
:100FC000324B041B9C4238DD09F022F8FA218900DB
:100FD00010F0D4F90100200010F0D0F903002F4ADE
:100FE000310028680093230000F070F80021386871
:100FF00008F054FB0124002603690F201C579E575C
:101000000CF09CFCD02380221B0612025A624B2C4F
:1010100033DC9A61286832002100FFF79FF903B0A2
:10102000F0BD08F0F5FF63011B1B9B001B190100BD
:10103000D80010F0A3F90300ABE708F0E9FF630163
:101040001B1B9B001B190100D80010F097F903002F
:10105000C5E71349286800F039F879E7114928688D
:1010600000F034F8AAE70E49286800F02FF89CE752
:101070000D49286800F02AF87AE75A61FA200DF045
:101080000FF9C7E75C1C0020601C00209BC42000F7
:1010900000770110C8770110481C0020E477011088
:1010A000C0760110D4770110B077011001308000B4
:1010B0007047C0460D2803D8024B8000C0587047C7
:1010C0000148FCE7000F0610380F06100EB400B5FB
:1010D00082B003AA02CA036801929B68984702B0D3
:1010E00008BC03B01847C0460CB400B583B004AACE
:1010F00002CA036801929B68984703B008BC02B01B
:101100001847C04610B513000C2837D8204B800074
:101110001B589F460C2300200B7010BD0D23002090
:101120000B70FAE7012300200B70F6E70A2300207A
:101130000B70F2E7022300200B70EEE70323002080
:101140000B70EAE7042300200B70E6E7052300207C
:101150000B70E2E7062300200B70DEE70723002078
:101160000B70DAE7082300200B70D6E70923002074
:101170000B70D2E70B2300200B70CEE700220A7021
:10118000020004491800FFF7A1FF0120C5E7C0468F
:10119000C00F061048100610F0B51E00136883B08B
:1011A00004000F0010001B68042218219847051E38
:1011B00058D01822002111F019FA2368E31A1A886E
:1011C0000A2A4BD95989002948D0615C012945D1A7
:1011D0000C2A43D99B89E418002B3FD023689C46F6
:1011E0006444002C3AD02368E31A1A88042A45D9AB
:1011F0009888002806D02156002950D0013948424D
:10120000414149002970062A39D9D888002100288F
:1012100043D16960082A32D91889002100283AD1BF
:10122000A96000210A2A09D95889002806D0205C23
:101230000138C0B2042801D81A49095C29730C2A64
:1012400022D998890121002823D1296101210E2A60
:1012500003D9DB89002B00D0E1586961002035609B
:1012600003B0F0BD104B114A0193114B39000093AC
:101270003800104BFFF738FF0120F1E729700021FB
:10128000A96029730C2ADCD8012301212B61696133
:10129000E4E72158D9E72158C2E72158B9E70121ED
:1012A000B0E7C046F40F0610E8100610D010061084
:1012B000F90300006C100610F0B51E00136883B02F
:1012C00004000F0010001B6804221C219847051E13
:1012D00000D160E01C22002111F088F92368E31A94
:1012E0001A880A2A53D95989002950D0615C0229E9
:1012F0004DD10C2A4BD99B89E418002B47D0236889
:101300009C466444002C42D02368E31A1A88042ABD
:1013100052D998880139002806D0215600295AD080
:1013200001394842414149002970062A46D9D888E6
:10133000002100284DD16960082A3FD91889002171
:10134000002844D1A9600A2A3AD9588900210028E6
:101350003BD1E96000210C2A09D99889002806D0E0
:10136000205C0138C0B2042801D81C49095C2974EA
:101370000E2A1CD9D8890121002824D169610121B4
:10138000102A03D91B8A002B00D0E158A961002044
:10139000356003B0F0BD124B124A0193124B390075
:1013A00000933800114BFFF79FFE0120F1E7012366
:1013B00001216B61A961EAE7012129700021A9607F
:1013C0000021E960D3E72158D8E72158C1E7215827
:1013D000B8E72158AFE70121A6E7C046F40F061091
:1013E000E8100610D0100610230400006C10061040
:1013F000F0B51E00136883B004000F0010001B68D6
:10140000042228219847051E58D02822002111F0D7
:10141000EDF82368E31A1A880A2A4BD9598900295A
:1014200048D0615C052945D10C2A43D99B89E41831
:10143000002B3FD023689C466444002C3AD023689C
:10144000E31A1A88042A45D998880439002806D056
:101450002156002951D001394842414149002970A3
:10146000062A39D9D8880021002844D16960082A81
:1014700032D91889002100283BD1A9600A2A2DD928
:1014800058890021002832D1E9600C2A28D998898E
:101490000021002829D1296100210E2A09D9DB89E0
:1014A000002B06D0E35C013BDBB2042B01D8144ACD
:1014B000D15C29750020356003B0F0BD114B124A94
:1014C0000193124B390000933800114BFFF70CFECB
:1014D0000120F1E701232B700023AB600023EB60B8
:1014E000002300212B612975E4E72158D3E7215817
:1014F000CAE72158C1E72158B8E70121AFE7C04644
:10150000F40F0610E8100610D01006105E0500005B
:101510006C100610F0B5C646160000B59846136864
:1015200082B004000F001B68042224213000984779
:10153000051E52D02422002111F058F82368E31A26
:101540001A880A2A42D9598900293FD0615C112999
:101550003CD10C2A3AD99B89E418002B36D0236859
:101560009C466444002C31D02368E31A1A88042A6C
:101570002CD99B88002B29D0E41823689C4664440E
:10158000002C23D02368082B34D8002B1DD0626890
:101590002A60012B19D0A2686A60022B15D0E2687C
:1015A000AA60032B11D02269EA60042B0DD0626976
:1015B0002A61052B09D0A2696A61062B05D0E26970
:1015C000AA61072B01D0226AEA612B624346002000
:1015D0001D6002B004BC9046F0BD0C4B0C4A019358
:1015E000B723DB00009339000A4B3800FFF77CFD7E
:1015F0000120EEE7084A09493800FFF767FD336824
:1016000030005B68290098470120E2E7E8100610E7
:10161000D01006106C100610FC0F061004100610F7
:1016200070B51D00136882B004000E0010001B6826
:10163000042204219847002826D000222368026053
:10164000E31A19880A291BD95E89002E18D0A65DD5
:10165000092E15D10C2913D99B89E418002B0FD022
:1016600023689C466444002C0AD02368111CE31AAA
:101670001E88042E03D99B88002B00D0E1580160FE
:101680002860002002B070BD054B064A0193064B4E
:10169000310000933000054BFFF726FD0120F1E7F4
:1016A000E8100610D0100610410600006C1006105D
:1016B000F8B5CE4647461D000023040080B52B60D8
:1016C00090460E0008F04EFD23688146E31A1A8802
:1016D0000127082A02D91989002928D149468329D6
:1016E00029D820290DD033683A001B68300098476C
:1016F000030028600020002B2AD00CBC904699469D
:10170000F8BD062A1ED9D98800291BD06418236881
:101710009C466444002C15D03368211D5B683A0058
:1017200030009847286043425841C0B2E5E7675807
:1017300049468329D5D94A460B494046FFF7C6FC9E
:101740000120DAE709494046FFF7C0FC0120D4E751
:101750004B46074A9B00D25806493B004046FFF7DC
:10176000B5FC0120C9E7C046101306109C130610F3
:10177000FC10061064130610F8B515001C000022BA
:10178000002306000F0010F0C7F8002803D0002344
:101790002B602360F8BD22003000390015F038FFBF
:1017A0000022114B10F076F810F09EF910F03EF97F
:1017B000002917DC12D0802223681206904206D03E
:1017C0001F3302DA0023002023602860E2E70029AB
:1017D000F6D1802001332360C005F1E780231B068A
:1017E0009842E8D915F03CF80000E041F0B583B02C
:1017F000009201931F23040001200D0008995B1A39
:10180000984010F0BFF8009A019B06000F002000DE
:10181000290010F03FF802000B003000390010F0F2
:1018200039F8294A294B04000D0010F093F8061EE0
:1018300015D10022264B2000290010F08BF800283B
:1018400032D0002200232000290010F065F8002883
:1018500007D0099B1E600A9B1E6003B0F0BD1A4CA6
:101860001A4D0A9A2000290015F0D2FE0022194BC9
:1018700010F010F810F038F910F0D8F8002913DC47
:101880001CD080220A9B12061B6890420ED01A00C0
:101890001F3205DA00230A9A1360099A1360DCE705
:1018A000099A1060002BD8DA14F0DAFF0029EED183
:1018B00080200A9A01331360C005E8E780231B06E5
:1018C0009842DED9F0E7C0460000C0FFFFFFDF41CD
:1018D0000000F03F0000E041F8B5CE46012381460C
:1018E0004746180098464B46984080B50138160088
:1018F0000F0010F047F84B46F21A20235B42040019
:101900000D00D31826D4414699400126300090405E
:1019100010F080F80B000200290020000FF0BAFF41
:1019200020235B4204000D00FB1818D431009940BD
:101930000120B84010F06EF802000B0020002900D2
:101940000FF09FFF10F022F910F034F80CBC904615
:101950009946F8BD202341469B1AD940D5E720235C
:101960003100DB1BD940E3E70B6810B502CB002A3E
:101970000BDB8A4209DA9200D158002905DB836823
:10198000002B04D1036D984710BD0020FCE74801EF
:101990001818F9E74B6810B502CB002A0BDB91420F
:1019A00009DD9200D158002905DB8368002B04D1A2
:1019B000036D984710BD0020FCE748011818F9E7AF
:1019C0000B6810B502CB002A0BDB8A4209DA9200C1
:1019D000D158002905DB8368002B04D1036D98479B
:1019E00010BD0020FCE748011818F9E7F0B5CE4615
:1019F000474680B51C008B6883B098469368050005
:101A00009946002C3AD0404610F040FD060048466A
:101A10000F0010F03BFD02000B00300039000FF00A
:101A200039FF0600A0680F0010F030FD02000B0027
:101A3000300039000FF013FF0A9B060098684C0035
:101A400010F024FD640802000B00300021000FF0AC
:101A500018FF1C4A1C4B0FF06DFF00280ED11B4BCA
:101A6000009336236C69FF332800194A1949A047AF
:101A7000012003B00CBC90469946F0BD4946404653
:101A800010F060FC0021041C10F098FC002805D127
:101A9000114B0093A1236C695B00E5E7201C10F05B
:101AA000F5FC0A9B040098680D0010F0EFFC0B0099
:101AB0000200290020000FF0E4FE0B9B1860596023
:101AC0000020D6E77B14AE47E17A943F281A06102F
:101AD000D0190610D01006104C1A0610F0B5C646E4
:101AE00000B51C00137F82B0032B21D0092B0ED030
:101AF000072B62D0334B344A009376234469FF337B
:101B00003249A047012002B004BC9046F0BD8025B8
:101B10007F266D429368D768984601290FD0032924
:101B20003BD002291CD0089B256000201E60EAE7FC
:101B30009368FF2600259846D7680129EFD1191C24
:101B4000002010F0FCFB10F0E5FC10F067FCC7195A
:101B5000AF4200DA2F00089B276000201E60D2E70A
:101B6000191C1B4810F0EBFB10F0D4FC10F056FCD5
:101B7000C019A84224DB2060FE204146800510F0F9
:101B8000DEFB10F0C7FC10F049FCC719B74200DDBE
:101B90003700089B00201F60B5E7191C002010F0DB
:101BA000CEFB10F0B7FC10F039FCC019A84200DAE7
:101BB0002800206041460748E1E7074E074DA9E7A6
:101BC0002800D8E7681A0610D0190610D0100610A1
:101BD000000080BF0000C040FF7F00000080FFFFCA
:101BE000F0B557464E464546DE46E0B51F000B7839
:101BF0008FB004000D001600012B14D00293864B09
:101C000001220193854B03920093D2234569200062
:101C1000834A8449A84701200FB03CBC90469946AE
:101C2000A246AB46F0BD1278012A08D003937A4B46
:101C3000029201937C4B00934569D423E7E77368D4
:101C4000002B09D1794B0093DE2345692000744AAB
:101C50007749A8470120DFE71A680592002A04D1D6
:101C6000744B00934569DF23F0E7059A1268012A57
:101C70000ADDFD20097F073901408A461DD06E4BE1
:101C800000936569E423E1E7189B88689B689846A0
:101C9000209B002B3EDC2B7F032B1BD0092B02D07B
:101CA0000020072BB8D1199B189A19781D9B20008A
:101CB00000931C9BFFF712FFAEE7317F092959D033
:101CC000092303935D4B029101935D4B009365697A
:101CD000E5239CE7002200230C920D930CAB0193AB
:101CE000189B3200009329003B002000FFF77EFE86
:101CF000002891D10C980D990BAB1A9AFFF73CFD77
:101D00000B9B1B9A5B4213602B7F092BCBD0032BC1
:101D1000C9D0C5E710F0BAFB08900991404610F011
:101D2000B5FB209B069007919B00994600239A469D
:101D30000CAB9B460BAB9846230054469A46059B3A
:101D4000586810F0A3FB089A099B0FF0A3FD069AB0
:101D5000079B0FF096FD5B464246FFF70DFD1E9B6D
:101D60000B9A1A511F9B0C9A1A5104344C45E6D118
:101D7000544690E72099914208D0324B0391019349
:101D8000314B029200936569E62340E772699B68D4
:101D900094469B0063445B68209A9A4208D0039360
:101DA0002A4B02920193274B00936569E9232EE7A2
:101DB000059BA8680433059310F068FB189B0890F6
:101DC0000991986810F062FB209B069007919B0098
:101DD00099460CAB9B460BAB9846230054469A465B
:101DE000059B185910F052FB089A099B0FF052FD01
:101DF000069A079B0FF045FD5B464246FFF7BCFC89
:101E00001E9B0B9A1A511F9B0C9A1A5104344C4575
:101E1000E6D154463FE7C0468C1A0610A81A0610B1
:101E2000D0190610701A0610C41A0610E01A06100F
:101E3000D0100610F41A0610101B06104C1B0610CA
:101E4000581B0610681B0610781B06109C1B0610FA
:101E500010B5836B3821984710BDC046F0B5574682
:101E60004E46DE464546E0B516003768FFB0BB4635
:101E7000F76A089030691F97376B81464042099393
:101E80008246899BB0692097776A4A6998461E9076
:101E90000B69886828974968B76A8C468A9C7B9248
:101EA0007A9371682997012A02D1012B00D1D3E1DD
:101EB00000B21BB22D90089360460BB20B935B46A9
:101EC000099D00B212B21BB22C9029006EA812928A
:101ED0000C9305F029FA2B68889968A8239305F0DC
:101EE00023FA889B41461B6862A8249305F01CFADC
:101EF00043461B6821005CA8219305F015FA002CCD
:101F000000D192E223681D936E9E689F5C9D6F9A3C
:101F1000052E00DC84E211685D9B052D00DC79E272
:101F200018682590884200DD2591052E00DC6FE2BF
:101F3000D0686999052F00DC5FE2CC68A246844234
:101F400000DD82460C68052D00DC54E2D8681C9444
:101F5000844200DD1C90052E00DC47E25068926848
:101F60000E900A92052F00DC3BE24A6811928A68C3
:101F70009346052D00DC27E25A689B68279226933A
:101F8000259B002B00DC1DE2002A00DC1AE2269BC8
:101F9000002B00DC1BE11C9B002B00DC17E1002365
:101FA00019930B9B5B422E930C9B5B422F932E9BB2
:101FB000229300231B932F9B159300231A93289B96
:101FC0001893299B179300231693119B002B00DC79
:101FD0003CE1719B729A19005143129848437099E1
:101FE0001490199841432298844661444B431599B3
:101FF0008C46239963448C466C99534388466344CA
:102000000D936B9B594313916A994B4341464B4344
:1020100016994B4324998C4663440C93089B844641
:102020005343099300230F934346002210935B46CA
:10203000002B36DD109B002798464B460C9E0D9DCD
:10204000159C0B93002C1EDB0A9BA3421BDD6346F1
:10205000002B18DB0E9B634515DD5346002B12DD6C
:102060000B9B5146A1460020BA461C002F56335602
:102070003F1B7B430130D2188842F7D123005746DB
:102080004C468A460B93089B01379946099B4C4462
:10209000994646444D44BB45D4D1434610930B9BCF
:1020A000994614980D9980461398414480460D91A5
:1020B0000C990F9B41440C91129901338846119958
:1020C0000F93C4448B42B2D12199002903D0169BAF
:1020D0009B00CB58D218189B1C68179B1968CB43E0
:1020E000DB170B40002900DC89E0002100260027D7
:1020F00088469A40E117D3172000150010F0FCF82D
:10210000AC4200D182E0002900DA8CE08023002478
:10211000DB05C01861414B00C00F18430122C317F3
:1021200013400740F618199B5E99169A59431B9B5A
:102130009C465F9B614459431A9B9C46614494466C
:10214000609B59431D9B63441C000123B74200DC84
:10215000002301225B421340424610411E9A1B1885
:1021600094461F9A6344934200DA1300209A9342E4
:1021700000DD1300189A635404321892179A169BC4
:10218000043217921C9A01331693934200D01CE735
:102190002C99159A8C461A9B62441592269A013303
:1021A0001A939A4200D00AE72D99229A8C461B9BDB
:1021B00062442292279A01331B93934200D0FAE69D
:1021C000199B259A013319939A4200DDEFE65C9B37
:1021D000052B00DDF6E0629B052B00DDF2E0689B3D
:1021E000052B00DDEEE06E9B052B00DDEAE0002014
:1021F0007FB03CBC90469946A246AB46F0BD012755
:1022000049428F40013F88467E1072E700291FDB5C
:1022100080220023D20580242406A54206D17F0017
:102220007F089C487FE701239B4A5B4212184B4181
:10223000D917490049082A9100212B912A982B99F6
:1022400012184B415800D20F104367E700223BE7BA
:102250000123914A5B42DEE7534674931E9B7790BD
:102260007593634676935B4678931F9B79917C9335
:10227000209B88997D93289B44A83093319705F043
:1022800053F809994AA805F04FF8210050A805F025
:102290004BF8414656A805F047F84A9B9B46449B9D
:1022A0001D00509B9C465B46052B00DCDFE04B9BF2
:1022B000519A19686346052B00DCE4E013688B42F1
:1022C00000DD0B005946052900DCDAE04B99C968AE
:1022D00045988246052D00DCC3E05046C068884220
:1022E00000DD0800514609686746052F00DCB5E0AF
:1022F000D768B946494500DD49465F463493052F06
:1023000000DCA5E04B9FB9467F6835974F46BF6814
:10231000B9464F46369738AF3790B9463891052DB4
:1023200000DC8DE055464F466D687D605546AD68D2
:10233000AA464D46E8603CA857468346AF60012058
:102340005D46409363463C906860A86040A8E960A1
:102350008246052B6CDD0300506858609368524636
:1023600093600023D160716B32933393002903DBB8
:102370000898436C98473290099B1A68889B1968A3
:1023800043461868002C59D023680693534605939A
:102390005B4603934B46049002910193009234AB49
:1023A00030AA74A932A808F0EDF8569B052B09DC79
:1023B000509B052B06DC4A9B052B03DC449B052B1D
:1023C00000DC14E714F04CFA5E9B27935F9B269386
:1023D000259B002B00DCFEE6279B002B00DDD6E5CD
:1023E000F9E66A9A11926B9A9346C2E5709A0E9238
:1023F000719A0A92B6E56098A9E56C9CA24684425F
:1024000000DD82460C009EE525929A4200DD259370
:1024100072988EE52591994200DC89E5259387E540
:102420005D9B052DF0DD11007AE500231D936BE522
:10243000529B0A930A9A539B426090E70023A4E7B9
:10244000469D0A954D460A9F6F60479DAA4670E7D4
:102450004C9F0A9735974D9FB9465AE7549FB94606
:1024600048E74898884200DD080051463CE763464B
:102470004B99519A052B00DD20E70B00914200DDBE
:1024800013004E9924E70B00914200DC1EE7130075
:102490001CE7C046FFFFFF7F010000C0F0B5DE462D
:1024A00057464E464546E0B5CB68B5B0002204001D
:1024B0000D000C938E68FFF757FA012229000700E0
:1024C0002000FFF751FA0022824629002000FFF782
:1024D00061FA8346002F00D17DE0796904C91E921C
:1024E000052A00DD6AE192001FA810F085F85B461E
:1024F0005B69190004C998462492052A00DD5DE154
:10250000920025A810F078F81E9B1F9A0B93944612
:10251000052B4DDC259B934200DD130012AA91464A
:1025200049467A6912939068D26848608A60229A14
:1025300010000A924A464146D06042468968D268F5
:102540008846944652461A934346526928999068A1
:102550001B9363461790D0681C93536818900A9891
:102560009B00169119901D91984619002000A36BAD
:102570009847A36B70624146200098472B68B06271
:102580001B68023B012B28D98D4B20000093656905
:1025900057238C4A8C49A84701200B9B052B00DD53
:1025A0000CE135B03CBC90469946A246AB46F0BD26
:1025B000259913688B4200DD0B0012A98946484615
:1025C000796912938A68C96842606246D2688160FC
:1025D0000A921000AEE71E9789E76B681B68012B13
:1025E0000ED001220293794B03920193784B200085
:1025F000009365695823734A7649A8470120CCE7C0
:102600004B469B680C9A0A934B465B6811690D9385
:1026100093680E9353689846189B013B4B430133D4
:102620001093179B5169013B4B4301330F93137870
:10263000012B00D1AEE0022B00D0A6E00E990D9B3D
:102640008C4618000F9B6044C01A0EF097FE431E84
:1026500011930A9B414643441800109BC01A0EF088
:102660008DFE119A431E0E98397F42430F9884467F
:102670000D986244121AD043C017024040464343AB
:10268000109884460A9863441B1AD843C017034025
:102690005810306050107060012003400240B36059
:1026A000F260012968D0002229002000FFF75CF9C0
:1026B00001220A9029002000FFF756F902228046E5
:1026C00029002000FFF77CF900220D90290020004E
:1026D000FFF760F9424653690A995A683300089235
:1026E000B26A30330792726A0593043B04930C3B41
:1026F0000393043B02930C9B06920C3301930090CE
:102700000D9B42462000FFF76BFA002800D044E7FB
:102710005246D268397FFB6872615A46D26833618B
:10272000B261092904D001235B427363002034E7BE
:102730005B422A930C9B2B929A6849462D925A68C9
:102740002AA82C925A691B6931920A9330937368B4
:1027500016AA2F9333682E93F36A3293336B339315
:102760001AAB07F06DFF0028DDDD320001003432C6
:10277000236C2000984710E7FB6833615346DB6801
:1027800073615B46DB68B361CDE701235B42119364
:102790001A0068E70D9B0E9918008C4660440138BA
:1027A0000EF0ECFD431E11930A9B41464344180072
:1027B00001380EF0E3FD119A431E54E714F050F86F
:1027C000241D0610C41C0610D01006101820061078
:1027D000481D0610701A0610F0B5DE464E465746E4
:1027E0004546E0B5CB68F3B004930B680E0059681A
:1027F000436D0700984733680400996838007B6D83
:102800009847336881461A68032A23D1D96838006B
:102810007B6D984780467368380059687B6D984790
:10282000237A027A0500934217D002931A4B03923F
:1028300001931A4B38000093D3237C695B00184A3C
:102840001849A047012073B03CBC90469946A24667
:10285000AB46F0BD00239846DDE74A46107A984221
:1028600005D038007B69104998470120EBE7B26832
:1028700003281DD0092801D100F052FC012800D105
:102880001EE27D69FEF716FC237A02000749380034
:10289000A8470120D7E7C046FC1B06100C1C0610F9
:1028A000C41C0610701A0610181C0610A81C06106E
:1028B0001369166A9A4653699B46936919930021D6
:1028C000535E06930421535E0793049B0420195E14
:1028D00029910820195E2E911020195E6CA805918F
:1028E00014215B5E21000E93D369189373422893E1
:1028F000D36A1A93136B1B9304F016FD23684946A1
:1029000066A8219304F010FD4B461B68414660A861
:10291000229304F009FD43461B6829005AA81C9322
:1029200004F002FD2B68002154A81D9304F0FCFC68
:102930006C9D669F5A99052D00DC9FE36D9B1A687C
:102940005B9B052900DCA4E318682690904200DD1B
:102950002692052D00DC9AE36D9AD068679A052FC0
:1029600000DC84E3D468A046844200DD804614681D
:102970005E98052900DDD8681694844200DD169023
:10298000052D00DC6EE36D98446880680B94089018
:10299000052F00DC5CE3506892680D909146052994
:1029A00000DC84E15A689B682A922793269B002BBF
:1029B00000DC40E1F343DB171E4032000120002120
:1029C0001E9614F0D5FD431E5A1024935B005B083D
:1029D00025932A9B2392002B00DC2CE1279B002BC4
:1029E00000DC28E1169B002B00DC24E1002313937C
:1029F000079B5B423093069B5B422F93189BDB1730
:102A00001F93309B2093002315934346C846994655
:102A10002F9B119300231493289BDB43DB172B93ED
:102A2000289B2B9A13401793002312934B46C146C1
:102A300098460D9B002B00DC33E16F9B209C190016
:102A4000A446709A0E98514348436E99109013987B
:102A5000414361444B4311998C46219963448C4610
:102A60006A995343080063440A93699B069158434B
:102A70000F90689843434B43129900204B4322998F
:102A80008C4663440993059BA44653430793002354
:102A90000C93434604934B46002B3EDD049B0027DA
:102AA00052469846099E0A9D119C002C26DB089BE5
:102AB000A34223DD6346002B20DB0B9B9C451DDAE4
:102AC0004346002B1ADD2B00A24645460021B8469E
:102AD0005C461F0004927B5C049A9B1A9B465A46F4
:102AE000735C01311B1B5343C018A942F3D13B0057
:102AF000A34647465446A8461D00049A059B013745
:102B00009A46079B54449A46069B55449A46564417
:102B1000B945CAD143469246049310990A9A884609
:102B20000F99424488460A92099A0C9B42440992A2
:102B30000E9A013390460D9A0C93C4449342AAD145
:102B4000049B98461C9A002A03D0129B9B00D358E2
:102B5000C018179B189D98402A00C1171F9B04009E
:102B60000FF0CAFBA5427CD0002900DA86E0802362
:102B70000024DB05C01861414B00C00F184301233E
:102B8000C1171940239B249D9C4605406144139B1B
:102B90005C9A129E5A43159B9C465D9B62445A4325
:102BA000149B9C466244B4465E9B5A431D9B6344FF
:102BB0001C0001238D4200DC002301215B420B40FD
:102BC0001E9908411818199B9C461A9B604498420C
:102BD00000DA18001B9B984200DD1800129BA054DD
:102BE000169A01331293934200D022E72999434663
:102BF0008C46119AC84662449946149B1192279AB2
:102C0000013314939A4200D00AE72E99209A8C46F9
:102C1000159B624420922A9A01331593934200D067
:102C2000F6E64B46C1469846139B269A013313930A
:102C30009A4200D0E5E6549B052B00DD06E25A9B44
:102C4000052B00DD02E2609B052B00DDFEE1669BAB
:102C5000052B00DDFAE16C9B052B00DDF6E1002081
:102C6000F1E500291FDB80220023D20580252D06F7
:102C7000AC4206D12399259D0F4888E701230F4ACE
:102C80005B4212184B41D917490049082C91002189
:102C90002D912C982D9912184B415800D20F1043AA
:102CA0006DE700204EE70123044A5B42DEE75C9BB0
:102CB0002A935D9B279379E6FFFFFF7F010000C009
:102CC000049B1B7B012B00D125E2032B00D11DE2CD
:102CD000022B00D114E2E14B1793E14B1693002134
:102CE000535E4EA89A460423D35E0993049B0421A5
:102CF0005A5E209208215A5E2C9210215A5E2100C1
:102D0000059214229B5E0F9304F00EFB2368494644
:102D100048A8069304F008FB4B461B68414642A8AE
:102D2000229304F001FB43461B6829003CA8199339
:102D300004F0FAFA2B68002136A8994604F0F4FA58
:102D40004E9B489A3C99239324922191052B00DCB9
:102D5000C4E14F9B1A683D9B052900DCCAE1196854
:102D60001D91914200DD1D92239A052A00DCBFE1EE
:102D70004F9AD26824984999052800DCA7E1C868D1
:102D80000D90904200DD0D920A682198052800DC24
:102D90009BE1D868824200DD02002398052800DC10
:102DA0008EE14F98446880680B9408902498052819
:102DB00000DC80E1486889680E900491219905291A
:102DC00000DC73E159689B6827911F931D9B002BC2
:102DD00000DC2BE14A993F988846279F4B99834610
:102DE0008C46509D519B529C4C9E3E994098002F82
:102DF00000DC1BE11F9F002F00DC17E1002A00DC34
:102E000014E15F4679438900414331914946269157
:102E10002900574659438900614330910999A5001B
:102E200059434942C91B069F6943B94689444F46E5
:102E3000634392002C9C1A920F9A9B005C435A4366
:102E4000634625975F467343474380002B90209845
:102E50009B0068431093059B32946B432A90644611
:102E600040460693B30007930D9B60439B009B462F
:102E700000238100080009992F934B423593534654
:102E80007043BF005B4233971B9011923493359B84
:102E90001C93259B2893269B299300232E93349BD8
:102EA0001293289B1893299B159300231E93229B12
:102EB0001393002314930E9B002B00DCF3E01C9B68
:102EC0009A46139B0993189B0A9300239946002363
:102ED0000C93049B002B33DD00239846099F0A9E28
:102EE000129D002D1DDB089BAB421ADD5346002BC3
:102EF00017DB0B9B534514DD0D9B002B11DD4B465F
:102F00000024A9461D1C395930590FF01BFA011C29
:102F1000281C0FF011FA0434051CA345F3D14D46CB
:102F2000814601239C46059BE0449C46069B6544E4
:102F30009C46079B66449C46049B67444345D0D10E
:102F400011990A9A8C46109962448C460A92099A01
:102F50000C9B624409920F9A013394460E9A0C938B
:102F6000E2449342B5D1199B002B00D199E0149A09
:102F7000985849460FF0E0F9169D041C291C0FF0E3
:102F800017FA002800D02C1C179D201C291C0FF0BC
:102F90001DFA159A149B002800D180E0D5501B998A
:102FA000139A8C46624413921A9A043314939A42E9
:102FB00081D12B99159A8C462A9962448C46159298
:102FC0002099189A1E9B62448C461892129A0133DB
:102FD000624412921F9A1E939A4200D067E7339977
:102FE000299A8C46329962448C4629922C99289AC7
:102FF0002E9B62448C4628921C9A013362441C9298
:10300000279A2E93934200D049E73199269A8C460D
:10301000309962448C462692259A2F9B62442592D1
:103020001D9A01332F93934200D030E7369B052B36
:103030000CDC219B052B09DC429B052B06DC249B29
:10304000052B03DC239B052B00DC08E613F008FCB2
:10305000689A0D92699A9146A1E4C046FFFF7F7F6E
:10306000FFFF7FFF6E980B906F98089090E46A9C2A
:10307000A046844200DD8046140079E46D9A5B9B93
:10308000052900DD60E426929A4200DD26937098BF
:1030900064E426929A4200DC5EE426935CE4D45019
:1030A0007DE7002065E7002399465CE73E9B279378
:1030B0003F9B1F938AE64A990E914B9904917DE6B6
:1030C00050980B905198089070E6409862E64C98A2
:1030D0000D90904200DD0D920A0056E621994F9A1C
:1030E0003D9B052900DD3AE61D929A4200DD1D93C5
:1030F000529A3FE61D929A4200DC39E61D9337E66C
:10310000FE239B0517930C4B1693E8E50B4B179387
:1031100000231693E3E50A4B179300231693DEE58D
:10312000434601934B4602950093049923003800CF
:10313000FEF794FEFFF787FB000080BF0000C04051
:10314000FFFF7F7F020030B5034B32CB32C232CB60
:1031500032C212CB12C230BDDC1B061010B5836B1D
:103160003821984710BDC046F0B557464E464546F3
:10317000DE461400E0B5FFB00A902069266815907D
:1031800040428346A0691D001C90889B8868B44615
:10319000666A4A69984682468B6948681D96A66A9F
:1031A00081468A9F7B937A926068C9681E96012B3C
:1031B00002D1012A00D1CEE106B2484600B22A90DF
:1031C0005046644600B21BB212B22B900E936DA80B
:1031D0000BB224B2290091462593099404F0A4F877
:1031E0002B68414667A8219304F09EF843461B686C
:1031F000899961A8229304F097F8899B39001B688C
:103200005BA81F9304F090F8002F00D171E23B6897
:103210001B936D9C679D5B986E9A052C00DC63E2A6
:1032200011685C9B052800DC58E21F6823978F42D9
:1032300000DD2391052C00DC49E251681191916871
:10324000D2680B912492052D00DC37E2689A516810
:1032500092680D919346052800DC22E25A689B682B
:1032600028922993239B002B00DC18E2002A00DC23
:1032700015E2299B002B00DC1FE1249B002B00DCC6
:103280001BE1259B002B00DC17E100231693734202
:103290002D93099B5B422C932D9B209300231A9323
:1032A0002C9B1293002319930022002318929A005A
:1032B0001492259ACA4694469C4462465C461792EC
:1032C00013930D9B002B00DC3EE1709B719D1A0057
:1032D0006A430E996F9E5143169A10915643209A55
:1032E0001399944666445E43129B6B9F9C46189BC1
:1032F00066449C466E43219B66449C4666448C46CD
:103300006A9B7B430F93229B63449B4653465D43DA
:1033100000230C9398462B0094465546DA46B34654
:103320001E00002C2DDD6346002B2ADB504659463B
:103330000022C146129B09900A91002B12DB0B99C7
:1033400099420FDD119961450CDD0A9915980978AC
:1033500049B2091A0998007840B2414388460C994D
:1033600041440C910A9901328846B04441460A9181
:1033700009995B198846B844414609919442DCD1C9
:10338000C846012399460E9BC8449946109BCC44DD
:1033900099460F9BCB4499460D9BCA449845C0D192
:1033A000AA461F9B002B07D0149A9B580993099A91
:1033B0000C9B944663440C93149B1D9AD6581E9AFA
:1033C000D258D343DB171340002A00DC92E00022DE
:1033D0000027904691460C9DF1179D403000EB1759
:1033E0002A000EF089FFAE4200D18CE0002900DAFD
:1033F00097E080220023D205801859414B00C00F6E
:10340000184301214346C2170A400340BF18169AC9
:103410005D9D139955431A9A94465E9A65445543A7
:10342000199A944665448C465F9A012155431B9A2C
:1034300062441600BB4200DC002101224B421340D3
:103440004A4610411C9A1B18944663447F2B4BDD5F
:103450007F23149A73550432139B1492179A0133E5
:1034600013939A4200D02CE71300189A2499013242
:10347000D146A3461892914200D018E72A99129A91
:103480008C46199B62441292299A013319939A42ED
:1034900000D009E72B99209A8C461A9B624420920F
:1034A000289A01331A939A4200D0F9E6169B239A80
:1034B00001331693934200DAEEE65B9B052B00DDA9
:1034C000EDE0619B052B00DDE9E0679B052B00DD4E
:1034D000E5E06D9B052B00DDE1E07FB03CBC904654
:1034E0009946A246AB46F0BD1A008032B1DA80237D
:1034F0005B42AEE752429146012249468A40013A78
:103500009046571067E7002921DB80220023D2056F
:1035100080263606B54207D143465B005B088648E5
:1035200075E70123854A5B4212184B41D9174900C0
:1035300049082691002127912698279912184B4176
:103540005800D20F10435CE700230C9329E70123B6
:103550007A4A5B42DCE75B4673931C9B79907493D9
:10356000534677934B4676936346789380235B422A
:103570007C93FF337D931D9B759143A841462F9308
:10358000309603F0D1FE290049A803F0CDFE3900A2
:103590004FA803F0C9FE899955A803F0C5FE499BC1
:1035A0009946052B00DCC5E04A9B1A684F98509954
:1035B00009900B00052800DD0B689A4200DD1A0017
:1035C000439B9C46052B00DCB2E0449BDB680998DA
:1035D000052800DCAAE0C9688B4200DD0B004946E3
:1035E0003392052900DC9AE04A994E6834968E6839
:1035F000C9683596664636914499052E00DC84E00C
:1036000037AEB1460E68486837964E468968706096
:10361000484681603BA98B46C360012158463F92D2
:10362000099A3B91416081603FA9C3608A46052A9F
:1036300062DD509A5068926840905146CB600023FA
:103640008A60616B31933293002903DB0A98436CE3
:103650009847319043461968899B2A681868002F5B
:1036600051D03B680693534605935B4603934B4604
:10367000049002910193009233AB2FAA73A931A851
:1036800008F09AFB559B052B09DC4F9B052B06DCAC
:10369000499B052B03DC439B052B00DC1DE713F046
:1036A000DFF85D9B28935E9B2993239B002B00DC16
:1036B00007E7289B002B00DDDBE502E7699A0D9206
:1036C0006A9A9346C7E52393934200DD23926F9A4B
:1036D0001192709A0B92719A2492B4E523919942B7
:1036E00000DCAAE52393A8E55C9B0528EBDD11002F
:1036F0009BE500231B938CE5519A09920A000999D6
:103700005160529A99E70023ACE73791459937A861
:103710000B91010081460B984860469978E74B99D8
:1037200034914C990B9135914D9963E7539953E737
:10373000479B4CE74A9A39E7FFFFFF7F010000C033
:10374000F0B5DE4657464E464546E0B51D000B69CE
:10375000F1B023935B4218934B69140024935B42AE
:1037600019938B690F6A2D9300228B5E7B9E1693B3
:1037700004228B5E17930422835E42930822835EA9
:1037800043931422835E9B461822835E0C22825E42
:103790001B933A92CA6A2E920A6B2F92CA692A9296
:1037A0007A423B925A46012A02D1012B00D1C3E151
:1037B00021006AA803F0B8FD2368290064A83493A7
:1037C00003F0B2FD2B687A995EA8359303F0ACFD47
:1037D0007A9B31001B6858A8279303F0A5FD002EA3
:1037E00000D14FE2336830936A9C649D58986B9A7D
:1037F000052C00DC41E21168599B052800DC36E20B
:103800001E6839968E4200DD3991052C00DC27E2D6
:1038100051681E919168D26818913E92052D00DC86
:1038200015E2659A516892681A919246052800DC63
:10383000F3E15A689B683F924193399B002B00DC6F
:10384000E9E1FB43DB171F400123BB40013B5A105A
:1038500037935B005B0838933F9B31973692002B80
:1038600000DCD8E1419B002B00DC27E13E9B002BD4
:1038700000DC23E13A9B002B00DC1FE100232593B1
:10388000179B5B424593169B5B4244932A9BDB1735
:103890003293459B339300232C93449B2093002326
:1038A0002B93002228923B9A0023D243D2174092B6
:1038B00040993B9A54460A40279929928C469A008F
:1038C000624422923A9ADA4694469C446246219394
:1038D00026921A9B002B00DC27E16D9B6E9D1A003F
:1038E0006A431B996C9E5143259A1D915643339A06
:1038F0002199944666445E43209B689F9C46289B82
:1039000066449C466E43349B66449C4666448C46A3
:10391000679B7B431C93359B63449B4653465D43A7
:10392000002319939946330094465646DA469B463F
:10393000002C2DDD6346002B2ADB50465946002221
:10394000209B16901791002B14DB1899994211DDDA
:103950001E9961450EDD169924980978091A1F9160
:10396000179908782399401A1F9941438846199955
:1039700041441991179901328846A844414617914C
:1039800016999B198846B844414616919442DAD15B
:10399000012398461B9BC14498461D9BC4449846EE
:1039A0001C9BC34498461A9BC2449945C0D1B24659
:1039B000279B002B07D0229B1B681693169A199BF6
:1039C000944663441993299B199D2A9E9D40320079
:1039D000E917329B28000EF08FFCAE4200D184E044
:1039E000002900DA8EE080220023D2058018594198
:1039F0004B00C00F18430123C1171940369B379E57
:103A00009C4606406144259B5A9A219F5A432C9B11
:103A10009C465B9B62445A432B9B9C466244BC463B
:103A20005C9B5A43309B63441D0001238E4200DCA3
:103A3000002301215B420B403199084118182D9B4E
:103A40009C462E9B6044984200DA18002F9B9842B7
:103A500000DD1800A854229A219B04322292269A53
:103A6000013321939A4200D033E71300289A3E99FC
:103A70000132D3462892A246914200D018E74299DB
:103A8000209A8C462B9B62442092419A01332B93BF
:103A90009A4200D005E74399339A8C462C9B6244A6
:103AA00033923F9A01332C939A4200D0F5E6259B3E
:103AB000399A013325939A4200DDEAE6589B052B9B
:103AC00000DDA8E05E9B052B00DDA4E0649B052BD8
:103AD00000DDA0E06A9B052B00DD9CE071B03CBCE2
:103AE00090469946A246AB46F0BD002920DB8022D5
:103AF0000023D20580263606B54206D13699389E77
:103B00006A4880E701236A4A5B4212184B41D91781
:103B1000490049083C9100213D913C983D9912187B
:103B20004B415800D20F104365E7002319933FE73C
:103B300001235F4A5B42DDE7290046A803F0F4FB5E
:103B4000469B052B00DCACE0479B5A689B6893467C
:103B50009A4621004CA803F0E7FB4C9B052B00DCA8
:103B600099E04D9B5A689F68DB6890469946310002
:103B700052A803F0D9FB529B052B00DC87E0539B36
:103B80005A68986894462D684346A8465546ADB293
:103B9000AA465D469AB24B46ADB2AB467A9DB9B2E3
:103BA00024689BB22F68002E6FD0356880B20F90CA
:103BB0002D982A9E0D90199814960C9018983B9E5B
:103BC0000B90012009900890439813960790429813
:103BD0002F9E069017981296059016982E9E049088
:103BE0003A981196039058460290504666460190C6
:103BF0004046B6B210960E950A970090200007F046
:103C0000FFFC529B052B06DC4C9B052B03DC469BE3
:103C1000052B00DC62E712F023FE5A9B3F935B9B6F
:103C20004193399B002B00DC4CE7FB43DB171F4023
:103C30000123BB40013B5A1037935B005B0838936C
:103C40003F9B31973692002B00DD0BE63AE7669AF0
:103C50001A92679A9246E9E53993934200DD3992C8
:103C60006C9A1E926D9A18926E9A3E92D6E5399190
:103C7000994200DCCCE53993CAE5599B0528EBDD78
:103C80001100BDE500233093AEE500258EE7549B7F
:103C900055989C4677E74E9B4F9F9846509B994678
:103CA00065E7489B9B46499B9A4652E7FFFFFF7F8B
:103CB000010000C0F0B5DE464E4645465746E0B529
:103CC0008B680E0099464B68CFB0CC685968436D3D
:103CD0000700984733688346596838007B6D9847DA
:103CE00033680500996838007B6D984733688046D3
:103CF0001A68032A1DD1D96838007B6D98470600E1
:103D0000287A032800D126E2092800D116E20128EA
:103D100011D07C69FDF7CEF92B7A0200D949380021
:103D2000A04701204FB03CBC90469946A246AB4606
:103D3000F0BD0026E4E7237C012B00D1F9E1032B41
:103D400000D1F1E1022B00D1E8E1CF4B1693CF4B2C
:103D500015934B4600229B5E290004934B46042298
:103D60009B5E36A805930422A35E26930822A35ED9
:103D700027931422A35E9A461822A35E0B930C226B
:103D8000A35E994603F0D0FA2B6841463CA80693FF
:103D900003F0CAFA43461B68310042A82D9303F092
:103DA000C3FA3368594648A8179303F0BDFA5B4637
:103DB000002B00D1B0E11E683C9A369B48982992AE
:103DC00028931E90379A052B00DCA0E11168499BCF
:103DD000052800DC95E118681B90884200DD1B91E6
:103DE0002899052900DC85E151680E919168D26817
:103DF00007911C92299A052A00DC72E13D9A5168CC
:103E00009268099193461E9A052A00DC54E15A688B
:103E10009B681F921D931B9B002B00DC4AE14B9B70
:103E20004A9F9C46389B399998463F9D3A9B4098BB
:103E30004C9C002A00DC3DE11D9A002A00DC12E1C6
:103E40001C9A002A00DC0EE14A46002A00DC0AE146
:103E5000A20064463192544342464A4392005A4378
:103E600030947C433492059A339454424A432496C6
:103E7000049E5242921B35947442069E2E94B44680
:103E80009C006243944462464B432592279A9B00D0
:103E90005A433292269A454362432F924A469200F1
:103EA00013920B9A5A43AB000C935346634304930B
:103EB0008300994600230D922A93359B1993259BE5
:103EC0002393249B229300232C932E9B1093239BBC
:103ED0002193229B209300232B93179B18932D9BB8
:103EE0001493219B1293209B119300231A93002378
:103EF0000F93099B002B00DCD4E0149A0F9B94468F
:103F000063440593129B0693199B984600230A93DA
:103F1000002308935B46002B1FDD4346002B1CDB70
:103F20000025059F069E109C002C0EDB079B9C42E3
:103F30000BDA0E9B984508DA396830680EF002FA01
:103F4000011C0A980EF0F8F90A90049B01359C4672
:103F5000544466444F44AB45E6D10B9A0D999446C0
:103F6000E0448C46069A0C9962448C460692059A67
:103F7000089B62440592099A013308939342C9D180
:103F8000179B002B00D193E0189B0F9A98580A9921
:103F90000EF0D2F9159D041C291C0EF009FA002818
:103FA00000D02C1C169D201C291C0EF00FFA119A13
:103FB0000F9B00286CD0D550139A04330F939A426C
:103FC00097D11199944608001899604411900800FF
:103FD00012991A9B0431129114991C9A013360446E
:103FE00061441A93189014919A4280D13199209A81
:103FF0008C462F9962448C4620922699219A2B9BBD
:1040000062448C462192109A0133624410921D9AA8
:104010002B93934200D060E73099229A8C463299D4
:1040200062448C4622922799239A2C9B62448C46A8
:104030002392199A0133624419921F9A2C93934246
:1040400000D042E73399249A8C46349962448C46D6
:104050002492259A2A9B624425921B9A01332A9323
:104060009A4200DD29E71E9B052B23DC429B052B92
:1040700020DC299B052B1DDC289B052B1ADC00204E
:1040800050E6C046A81C0610FFFF7F7FFFFF7FFFA2
:10409000D450139A04330F939A4292D0099B002B69
:1040A00000DD2AE700230A93179B002B00D06BE763
:1040B00000206CE712F0D4FB4A9B1F934B9B1D938F
:1040C0001B9B002BD2DD389B1F9A984639993A9B4F
:1040D0003F9D40984C9C002AC8DD17001D9A9446CD
:1040E000AAE63E9A09923F9A93468CE61B929A4220
:1040F00000DD1B93389A0E92399A07923A9A1C92D5
:1041000078E61B91994200DC6EE61B936CE6499BB6
:104110000528EBDD11005EE600264DE6FE239B053B
:104120001693124B159314E6114B16930023159317
:104130000FE6104B1693002315930AE65B46029395
:1041400043463800009301962B004A462100FFF7B2
:104150000BF80020E6E55B46009601932A004346F3
:1041600049462000FFF7ECFA89E7C046000080BF0F
:104170000000C040FFFF7F7FF0B5DE464E4645465B
:104180005746E0B5CB68BDB000220F9304000D0088
:104190008E68FDF7E9FB0122804629002000FDF72B
:1041A000E3FB0022814629002000FDF7F3FB434694
:1041B0001B7F83469A4643465B69DA689B680B928D
:1041C0000C934B465B69DA680D929A680E925246E0
:1041D000092A33D01F692000BF003900A36B98471C
:1041E000A36B70623900200098472B68B0621B688F
:1041F000023B012B0FD9AD4B656900934923200089
:10420000AB4AAC49A84701203DB03CBC904699461A
:10421000A246AB46F0BD6B681B68012B1DD0029314
:10422000A54B01220193A54B656900934A23039294
:1042300020009F4AA249A8470120E5E74A46127894
:10424000012A00D1E8E0012303939E4B02920193DF
:104250009D4B656900938123EAE701230F9A5B4236
:1042600051689768127873631091012A00D1DCE0DD
:10427000022A00D0ECE00C9B3900D8190E9BC01A22
:104280000DF07CF8431E119310990B9B8C4618007F
:104290000D9B6044C01A0DF071F8119A431E5743EC
:1042A0000E9A94460C9A6744BA1AD143C9170A4029
:1042B000109959430B000D998C460B9963445B1A76
:1042C000D943C9170B405910316051107160012159
:1042D0000B40B36053460A40F260012B33D00022FA
:1042E00029002000FDF740FB01221090290020004A
:1042F000FDF73AFB0222070029002000FDF760FBD2
:104300000022824629002000FDF744FB7B693A0029
:104310001B6910990893B36A0793736A0090069318
:10432000330030330593043B04930C3B0393043B6D
:1043300002930F9B2000103301935346FDF750FC6E
:10434000002800D060E74346DB6833614B46DB68FA
:1043500073615B46DB68B36143461B7F092B01D069
:10436000002051E74346596904C91F92052A00DD20
:1043700099E0920020A80EF03FF95B46596904C904
:104380002592052A00DD8EE0920026A80EF034F971
:104390004B46596904C92B92052A00DD83E092003F
:1043A0002CA80EF029F9269B209A9A4200DD1A00CB
:1043B0002F99299B8B4200DD0B000C9913921491CD
:1043C0000B991A93159123991B9216910121279A03
:1043D00017911E930E99736818911C920D99289A43
:1043E0003793336819910B921D92369317AA1BAB22
:1043F00013A931A807F020FD002808DD32000100D4
:104400003432236C200098470028A9D0FCE6012311
:104410005B4273630020F7E64A465268002A1AD1CD
:104420002A4B656900938723E9E60C9B3900D8196C
:1044300001380CF0A3FF431E119310990B9B8C467F
:104440001800604401380CF099FF119A431E26E7CA
:1044500011931A0023E71168002904D11C4B6569E8
:1044600000938823CBE65068002804D1194B656976
:1044700000938923C3E60A68012A07D019698A4292
:1044800004D0154B656900938D23B8E601688A4214
:1044900000D19FE6114B03910193114B02920093BF
:1044A00065698F23C4E612F0DBF9C046241D0610AF
:1044B0007C1D0610D010061018200610481D06108E
:1044C000701A06108C1A0610C41A0610E01A06108C
:1044D000F41A0610E81D0610081E06108C1E0610A1
:1044E000781B0610020030B5034B32CB32C232CB00
:1044F00032C212CB12C230BD5C1D061010B5836BE8
:104500001C21984710BDC046F0B557464E4645465B
:10451000DE46E0B51D001B7ACBB082460F001600C8
:10452000549C032B00D174E029002CA802F0FCFE5F
:10453000210032A802F0F8FE2C983299309B052811
:1045400001DD2D9BDB68369A052901DD339AD2689F
:10455000934200DD130001222092052800DC70E167
:104560002D9A506892682190229224AA90460122A6
:1045700023932492052945DD4146339A5068926879
:1045800048604146CB60BB688A6039937B68396973
:10459000389373683B9333683A9373693C93B36978
:1045A0003D9328AB994601234A462893D3600023C4
:1045B0005160F9681E93916031691F93994204DB41
:1045C000534650465B6C98471E902B68002C00D0D9
:1045D0002468424601924A460294009238A920AAD1
:1045E0001EA807F017FF329B052B00DD27E12C9B4F
:1045F000052B00DD23E14BB03CBC90469946A2461A
:10460000AB46F0BD349A0492424604995160359A03
:10461000B7E78B6844A81A934B6815930B691B93F3
:10462000CB68290016930422B35E1C930022B35E6C
:104630001D9373690B93B3690C9302F075FE2B689D
:1046400021003EA80F9302F06FFE002C00D11DE167
:1046500023680A9344983E99459A052800DC10E1A6
:1046600014683F9B052900DC05E11D681195A542F2
:1046700000DD1194052800DCFBE0D568429C05298B
:1046800000DDDC680895A54200DD0894052800DC03
:10469000E6E05068926819901392052900DCD6E094
:1046A0005A689B6817921293119B002B00DCC6E09E
:1046B00000230593179B002B00DCB2E01C9B9C465B
:1046C0005A4200230E92199A099362441892129B3F
:1046D000002B00DC95E018990E9B199ADB178A1ABB
:1046E00013400D931B9B1491994200DD14931D9B65
:1046F0009C465A4200230792139A069362441092F2
:10470000089B002B6DDD109A079B1399DB17561A37
:104710001E40169B15009A4200DD1D0000230493E5
:10472000AB1B9846149B9A460D98504500DB8DE0D4
:10473000479B48991A004A43059C9346469A00278E
:1047400062430E9CB946A446624484466244534385
:10475000079A04009446049A634494469B194B4379
:104760000F9A634494469C44330067460020260019
:104770009C46AC4508DA3A006346147801330019C8
:104780005218AB42F9D1C14401365F445645F0D1CD
:10479000059B409C66465C43099B049A9C46419B52
:1047A00064445C43069B4F469C4664449446429B4B
:1047B00039005C430A9B634499467B1018180CF03F
:1047C000DDFD0B9B984200DA18000C9B984200DD3F
:1047D00018004B461855049B089A013304939342E2
:1047E000A2D10799159A080094461099069B8A1A37
:1047F0001092129A0133604406930790934200D0BE
:104800007EE70E991A9A080094461899099B8A1A0D
:104810001892179A0133604409930E90934200D086
:1048200055E7059B119A013305939A4200DD41E754
:104830003E9B052B03DC449B052B00DCDBE612F0E2
:104840000FF82E9A049221922F9A8DE6FFDE409B5C
:104850001793419B1293119B002B00DD28E7EAE799
:10486000469A1992479A139217E711929A4200DDDD
:104870001193489D02E711949C4200DCFDE61193E0
:10488000FBE63F9B0529F0DD1400EEE60A94E1E625
:10489000F0B5DE4657464E464546E0B50B680C007F
:1048A000DFB0CD688E685968436D8246984707002F
:1048B000504663685968436D98470400387A032866
:1048C00015D0092800D142E1012800D1D1E1534699
:1048D0005C69FCF7EFFBD34902005046A04701207A
:1048E0005FB03CBC90469946A246AB46F0BDAB6873
:1048F00039001B936B6840A816932B691C93EB68D7
:1049000017930422B35E98460023F55E73699A46B6
:10491000B369994602F008FD3B68210046A8109350
:1049200002F002FD002C00D1A1E123680B93409816
:104930004699419A052800DC94E11468479B0529B3
:1049400000DC89E11E681396A64200DD1394052859
:1049500000DC7FE1D6684A9C052900DDDC68099609
:10496000A64200DD0994052800DC6AE150689268DF
:104970001A901592052900DC56E15A689B68189236
:104980001493139B002B00DC49E1189B002B00DCE7
:1049900045E1149B002B00DCCBE0099B002B00DCE5
:1049A000C7E00023059343461A9A5B4294461E9340
:1049B0004346159A63441D936B4294461F932B0004
:1049C00058A9634420930A91534669463820DBB2C4
:1049D00009180B700C934A466B464421D2B25B18FF
:1049E0000D921A701E9B0F931D9B19930023089321
:1049F00019990F9B1A9ADB178A1A13401C9A9A4628
:104A00008C46914200DD94461F9B0693209B129397
:104A100000230793069B1299DB171F00159A179B1B
:104A20008A1A17400C00994200DD1C0000239946A9
:104A300000220A9B1A70E24500DB86E0439B449DFE
:104A40001A006A4305999046429A00204A430F99FA
:104A50008B465A44524453431E00069B9B46109B70
:104A60005E449B463B00F6196E434E445E4437005D
:104A70009B465646A3450ADA3A005B461178013355
:104A8000521981425DD8A342F8D1010008000136D5
:104A900047446645EED15F46059B489A38255A4300
:104AA000089B9846499B42445A43079B98464A9B19
:104AB00042445A430B9B4B4419006B465B190C9DB7
:104AC0001B78854200D2031C0D9DD8B2A84203D9A1
:104AD0006B4644201B181B788B5401239846099B76
:104AE000C1449945A4D10699169A08009046129996
:104AF000079B8A1A1292149A013340440793069036
:104B0000934287D10F991B9A080094461999089BE4
:104B10008A1A1992189A0133604408930F909342AD
:104B200000D065E7059B139A01330593934200DAA1
:104B300058E7469B052B72DC409B052B6FDC002061
:104B4000CEE6A342A2D0080098E70020A4E73900EF
:104B50004CA802F0E9FB52A8210002F0E5FB4C98BA
:104B6000509B052801DD4D9BDB685299569A05291B
:104B700001DD539AD268934200DD1300012228928E
:104B8000052800DC00E24D9A5068926829902A922C
:104B90002CAA904601222B932C92052900DCECE1F3
:104BA0004146539A5068926848604146CB6058AB82
:104BB0000A9330AB99468A60AA68012359926A68C1
:104BC0002969589272685B92326830935A9272697E
:104BD0005C92B2695D924A465160E968D3600023F5
:104BE0009160316926932793994204DB53465046DE
:104BF0005B6C984726903B68002C00D024684246A6
:104C000001924A46029400920A9928AA26A807F01F
:104C1000FDFC529B052B02DC4C9B052B8FDD11F01C
:104C20001FFEC046201F0610489B1893499B1493F3
:104C3000139B002B00DC7FE7189B002B00DDA8E610
:104C40007AE7429A1A92439A159293E61393934203
:104C500000DD1392449E7EE61393A34200DC79E6C6
:104C6000139477E6479B0529F0DD14006AE60B9460
:104C70005DE62B7D012B00D17AE1032B00D172E19F
:104C8000022B00D169E1C34B0C93C34B0B93AB6870
:104C9000390020936B6834A819932B692193EB6832
:104CA0001A930422B35E98460023F55E02F03CFBA3
:104CB0003B6821003AA8119302F036FB002C00D18A
:104CC00049E123681893349B3A981D931B90359AB9
:104CD000052B00DC39E111683B9B052800DC2EE147
:104CE00018681490884200DD14911D99052900DC94
:104CF00023E1D0681B99052900DC18E1D9680E90E2
:104D0000884200DD0E911D99052900DC0AE15168F9
:104D100092681F9116921B9A052A00DCF6E05A68E9
:104D20009B681C921593149B002B00DC77E71C9B5F
:104D3000002B00DC73E7159B002B00DCD3E00E9BFF
:104D4000002B00DCCFE000230D9343461F9A5B420B
:104D5000944623934346169A634422936B422493CA
:104D600094462B0063442593239B1093229B1E9310
:104D7000002317931E99109B1F9ADB178A1A134062
:104D80000F93219B0591994200DD0593249B0A9383
:104D9000259B13930023129313990A9B169ADB17F2
:104DA0008A1A134006931A9B8B46994200DD9B4654
:104DB0000D9A3C9B5343179A94463D9A6344534340
:104DC000129A94463E9A634453430792189A9B0062
:104DD000944663440993002308936F4B0F98059AF8
:104DE0005893904200DB8DE0379B389A190051436D
:104DF00089000D9C0791369982466143109C664E4E
:104E0000A4466144844661444B430A99371C8C464E
:104E1000069963448C46089963448C461199534320
:104E2000894663449B009944930098460023069C5E
:104E30005C450EDA4D462E68391C301C0DF0C6FA62
:104E400001344544002857D15C45F4D13E1C012370
:104E5000371C01229446079AE2449446059AE1449D
:104E60009245E4D1002B4FD10B9C391C201C0DF036
:104E7000ADFA002800D0271C0C9C381C211C0DF01A
:104E8000A5FA099B00283BD010C30993089B0E9AF2
:104E9000013308939342A0D10A99199A08009446C5
:104EA0001399129B8A1A1392159A01336044129334
:104EB0000A909A4200D06FE71099209A0800944611
:104EC0001E99179B8A1A1E921C9A013360441793ED
:104ED00010909A4200D04DE70D9B149A01330D9328
:104EE000934200DA40E71B9B052B00DD97E61D9BF4
:104EF000052B00DC23E692E65C45A8D0371C9AE738
:104F000080C3C2E7244FAFE75896ADE73C9B1C93A4
:104F10003D9B1593149B002BE9DD1C9B002B00DDB2
:104F200009E7E4E7369A1F92379A1692F3E63E991C
:104F3000E5E61493934200DD14923898DAE6149172
:104F4000994200DCD5E61493D3E61B993B9B0529D7
:104F5000EFDD1100C4E61894B5E6FE239B050C9323
:104F60000E4B0B9393E60E4B0C9300230B938EE6A4
:104F7000084B0C9300230B9389E6549A0592424602
:104F800005995160559A10E64E9A059229924F9ACA
:104F9000FDE5C046FFFF7F7FFFFF7FFF000080BF72
:104FA0000000C040F0B5DE46454657464E46E0B5E7
:104FB0008B680D0098460B68B9B0CF685968436D8F
:104FC000060098476B68040059683000736D984775
:104FD0000500207A032812D0092810D0012817D004
:104FE0007469FCF767F8D64902003000A047012039
:104FF00039B03CBC90469946A246AB46F0BD009500
:105000002300424639003000FFF77EFA0020EFE728
:105010003B7D012B00D1A0E1032B00D198E1022BB5
:1050200000D187E1C74B0993C74B0893BB682100A8
:1050300024937B682CA811933B692593FB681293FA
:1050400043460427DF5F434600269E5F02F06CF96B
:105050002368290032A8139302F066F9002D00D0CE
:105060002D682C9B32981A9314902D99052B00DCF7
:105070005AE10B68339A052800DC4FE110680D9067
:10508000984200DD0D931A9B052B00DC44E1CB68B0
:105090001498052800DC39E1D068834200DD030064
:1050A0001A98052800DC2CE1486889681C9010914A
:1050B0001499052900DC0FE15168926816910F924E
:1050C0000D9A002A00DC00E12E9A309C23922F9A40
:1050D00035991B92349A36989446169A002A00DC29
:1050E000F3E00F9A002A00DCE8E0002B00DCE5E0AA
:1050F00062464A43920042439B002792EA185B4271
:1051000018931B9B414363439B000493A3009B465E
:10511000002320928A002692820015921C9A1F93E7
:1051200022937B42944629933B00109A6344289330
:1051300073422A939446330063442B93299B19931B
:10514000289B1D93209B1E93002321931D99199B3F
:105150001C9ADB178A1A13400A93259B02919942E5
:1051600000DD02931F9A2A9B94460B932B9B0A9A6D
:105170000C93199B634494461B9A63445A431E9BA9
:105180001792079300230E930C990B9B109ADB1731
:105190008A1A13400393129B8846994200DD984671
:1051A000189A079B9446179A634494460693039A69
:1051B0000B9B634494465A4663445343139A944664
:1051C000634405930A9B02998B4200DB81E0059AB8
:1051D000002692469946371C039CA0450FDD554694
:1051E0002968381C0DF0A8F8FE21071C8905301C21
:1051F0000DF0A2F80134061C5D44A045F0D1012356
:105200009C46049BE1449C46029BE2449945E3D1C1
:10521000311C381C0DF093F8089D041C291C0DF05E
:10522000C7F8002800D02C1C099D201C291C0DF05B
:10523000CDF8069B00284AD020C3059A0693043275
:105240000592079A9342BDD10B99119A0800944692
:105250000C9960448A1A15990C928C46079A0E9BF9
:10526000624407920F9A01330E930B9093428BD1B5
:105270001999249A080094461D9960448A1A26991F
:105280001D928C461E9A219B62441E92169A0133EF
:1052900021931990934200D058E723991F9A8C4686
:1052A000279962448C461F92209A229B6244209246
:1052B0000D9A013322939A4200DD3FE7149B052BA0
:1052C00003DC1A9B052B00DCA0E611F0C9FA10C321
:1052D000B3E70026371C9BE7349A1692359A0F9253
:1052E0000D9A002AEDDD2E9A309C23922F9A359943
:1052F0001B92349A36989446169A002A00DDF0E6FE
:10530000DFE72E991C912F991091D1E63698C4E6CB
:105310000D928A4200DD0D91309BB9E60D939342C8
:1053200000DCB4E60D92B2E6149B339A052BEFDD58
:105330000B00A3E6FE239B050993044B089375E637
:10534000F41E0610FFFF7F7FFFFF7FFF000080BF7E
:10535000044B09930023089368E6034B0993002349
:10536000089363E60000C040FFFF7F7FF0B5DE4694
:1053700057464E464546E0B5002293B0CD68884674
:1053800006008C68FCF7F0FA070000224146300066
:10539000FCF700FB7B6905909A68DB6892469B46A8
:1053A000AB6899466B6898462B690293EB68039348
:1053B0002B78012B00D17CE0022B62D001235B42D1
:1053C0001A00049349464A4302998C465146624466
:1053D000521AD143C9170A4041464B4303998C46A0
:1053E000594663445B1AD943C9170B4059102160D1
:1053F0005110616001210B400A40A360E2603B7FD5
:10540000012B51D023001833297D059A00933000D9
:10541000043BFCF763FB00282CD101223B7F524266
:105420002261092B26D1796904C90692052A59DC23
:10543000920007A80DF0E0F8059B002B4FD05969AA
:1054400004C90C92052A4DDC92000DA80DF0D4F889
:105450000A9B1099994200DD19000F9807F0D4F8C3
:10546000002837DD220001001032336C30009847ED
:10547000002832D013B03CBC90469946A246AB46B9
:10548000F0BD1000029B4844C01A49460BF076FF5D
:10549000431E58460493039B4044C01A41460BF0F8
:1054A0006DFF049A431E8DE701235B4223610020B8
:1054B000E0E710004844494601380BF05FFF431E07
:1054C000584640440138414604930BF057FF049A74
:1054D000431E77E701235B4223610020CAE70C9358
:1054E0000A9BB6E711F0BCF9F0B5DE4657464E46CA
:1054F0004546E0B5002287B0CD680F0006008C68F5
:10550000FCF732FA8146002239003000FCF742FAFB
:105510004B465B6905909A68DB6893469A46AB6890
:105520006F6898462B690293EB6803932B78012BE5
:105530004ED0022B39D00120404202000490434655
:105540005A43029B47439C465B466244D21A039BE4
:10555000D1439C4653466744FF1AFB43DB171F4069
:10556000C9177B100A4023605310636001231F405A
:105570001A404B46A760E2601B7F012B0AD0230034
:105580001833297D059A00933000043BFCF7A6FAF6
:10559000002803D1012300205B42236107B03CBCFB
:1055A00090469946A246AB46F0BD1000029B40448F
:1055B000C01A41460BF0E2FE431E04935346D8192D
:1055C000039B3900C01A0BF0D9FE049A0138B6E7E4
:1055D00010004044414601380BF0D0FE431E0493B6
:1055E0005346D819013839000BF0C8FE049A013827
:1055F000A5E7C046020030B5034B32CB32C232CBF6
:1056000032C212CB12C230BDB41E061010B5836B6D
:105610003821984710BDC046FE2110B589050CF011
:105620008BFE011CFE2080050CF089FE10BDC046DB
:1056300010B50CF035FF10BDF0B5DE464E464546C0
:1056400057468846E0B58BB0149905004E1E101CD5
:10565000414604921F00059302960CF06AFE041C5A
:1056600030000CF0B9FE011C201C0CF068FEFC217F
:10567000890581460CF066FE0390002E66DD00244D
:1056800020000CF0A9FE49460CF05CFE41460CF0EF
:1056900053FE061CA8478E21C9050CF053FE0CF0E2
:1056A00039FF0134019020000CF096FE49460CF0C1
:1056B00049FE41460CF040FEA8478346301CA847EF
:1056C0008E21C9050CF03EFE0CF024FF8E2182468F
:1056D000C90558460CF036FE51460CF02DFEFC2153
:1056E00089050CF02FFE0CF015FF03998246301C43
:1056F0000CF022FEA8478E21C9050CF023FE0CF009
:1057000009FF011C50460CF014FEFC2189050CF029
:1057100019FE0CF0FFFE011C01980CF00AFEC723D5
:105720001B06191C061C079008930CF041FE00286C
:1057300037D12249301C09910CF048FE002832D0A4
:105740001F4B3B80029B02379C4299D10498A8478B
:105750008E21C9050CF0F6FD0CF0DCFEC721090610
:10576000041C0CF025FE002807D11449201C0CF065
:105770002DFE002803D0124805E0C7242406201C73
:105780000CF04CFE00B20F4A149B9446059A6344F9
:105790005B0098520BB03CBC90469946A246AB4683
:1057A000F0BDC7263606301C0CF038FE029B388050
:1057B00002379C4200D063E7C8E7C04600FEFF46C0
:1057C000FF7F0000FFFFFF7FF0B5D6464F464646FD
:1057D000C0B50B6888B01B6804000D00012B13D006
:1057E0000293C54B01220193C44B039200936223A1
:1057F00045692000C24AC349A847012008B01CBC23
:1058000090469946A246F0BD4A681268012A08D01F
:105810000393B94B02920193BB4B009345696323F9
:10582000E7E70022FCF7A0F88246002809D1B74B31
:105830000093652365692000B14AB549A847012056
:10584000DCE743691B68002B04DCB24B00936569FD
:105850006623F0E7002229002000FCF79BF8071ED2
:1058600004D1AD4B009365696823E4E7AB689846C3
:10587000002B04D1A94B009365696A23DBE75346EB
:105880001B7F072B16D1A6492000A36B9847002841
:105890001ED04346A24998622000A36B9847002877
:1058A00004D1A04B009365697423C4E74346D862D2
:1058B00053461B7F387F072840D0984224D002935C
:1058C000994B03900193994B009365697E2390E770
:1058D000974B009365697023ADE74346954E0022D0
:1058E00000969B6A94499548FFF7A6FE4346FE2220
:1058F0000096DB6A920500219148FFF79DFE434622
:10590000FA68DA61BA681A6253469B68EE6899468B
:1059100053461D7F032D00D189E0092D73D0072D3B
:1059200064D0012D52D1387F012812D130680CF09B
:10593000ADFD43461860596000205FE7092B29D070
:10594000032B27D0072B18D07E4B009365697C234F
:1059500071E76669FBF7AEFB07002800FBF7AAFBBF
:10596000794B03900193704B0297009356232000CC
:10597000634A7649B047012040E7FB68002BACD072
:1059800000220293724B03920193724B009365695C
:1059900083232EE753469B68EE68994653461D7F46
:1059A000032DBAD16569FBF785FB06000320FBF7E1
:1059B00081FB694B039001935B4B2000009302969F
:1059C00029234F4A6149A847012017E72800666943
:1059D000FBF770FB05000120FBF76CFB5A4B0390B3
:1059E0000193524B029500935523C0E7FB68002BAF
:1059F0002ED000220293564B03920193554B0093F5
:105A000065692C23F5E6387F07285AD0092849D143
:105A1000FB681A00803262D0802202934F4B5242C0
:105A200001934C4B0392009365693723E1E6387F7D
:105A30000328B7D1FB68002B00D1C4E000220293F9
:105A4000434B03920193434B009365692A23D0E6AD
:105A5000E021BF688905381C0CF0B8FC002800D193
:105A6000ABE0E021381C89050CF063FC3C490CF0EC
:105A7000ADFC051E00D183E0FC2300229B05381CF1
:105A8000049205930CF002FD364B029003910193B2
:105A9000354B00932E2365692000194A3349A847E6
:105AA0000120ABE66669FBF705FB07002800FBF762
:105AB00001FB2F4B039001931B4B0297009336235E
:105AC00055E7FB682B4A934200D1A4E002932A4B8E
:105AD000039201931F4B00936569322389E6EE21FF
