:020000041000EA
:1000000000B5324B212058609868022188439860DF
:10001000D860186158612E4B002199600221596106
:100020000121F02299502B49196001219960352056
:1000300000F044F80222904214D00621196600F024
:1000400034F8196E01211966002018661A6600F04E
:100050002CF8196E196E196E052000F02FF8012189
:100060000842F9D1002199601B49196000215960AB
:100070001A491B48016001219960EB211966A021F2
:10008000196600F012F800219960164914480160C1
:100090000121996001BC002800D000471248134993
:1000A000086003C880F30888084703B5996A0420EC
:1000B0000142FBD001200142F8D103BD02B5186610
:1000C0001866FFF7F2FF186E186E02BD00000240BE
:1000D000000000180000070000035F00212200005C
:1000E000F4000018222000A00001001008ED00E03C
:1000F00000000000000000000000000074B24E7A12
:1001000000200420F7010010C3010010C5010010F9
:10011000C1010010C1010010C1010010C101001097
:10012000C1010010C1010010C1010010C701001081
:10013000C1010010C1010010C9010010CB01001065
:10014000CD010010CD010010CD010010CD01001037
:10015000CD010010CD010010CD010010CD01001027
:10016000CD010010CD010010CD010010CD01001017
:10017000CD010010CD010010CD010010CD01001007
:10018000CD010010CD010010CD010010CD010010F7
:10019000CD010010CD010010CD010010CD010010E7
:1001A000CD010010CD010010CD010010CD010010D7
:1001B000CD010010CD010010CD010010CD010010C7
:1001C00000BE00BE00BE00BE00BE00BE00F04BF888
:1001D000103800BEF2EB8871147B0910307B0910D7
:1001E0003402001090A31AE700202149086006C8D5
:1001F00081F3088810471F48006800282FD10DA4FC
:100200000ECC002902D000F012F8F9E71A491B4A77
:10021000002000E001C19142FCD1194988471949E9
:1002200088471949884700BEFDE701C901C29A42C3
:10023000FBD37047307B0910C0000020B00D0020B8
:1002400020880910000004200000042020880910E4
:1002500000100420001004200000000070470B482C
:100260003FF07EF80047EFF30580C0B27047000012
:1002700008ED00E0000000D0B00D0020D84A0220B8
:100280007DCD0310E9030010A1CE031057560000E6
:1002900006005250ABB36053A877091006005250C5
:1002A000861C0302B8770910060052505422A29D02
:1002B000D477091005005250DE65F46820880910D3
:1002C000F8B5C0460448054B10B5834203D0044B33
:1002D000002B00D0984710BDB00D0020B00D0020BD
:1002E0000000000006480749091A8910CB0F591869
:1002F00010B5491003D0044B002B00D0984710BD17
:10030000B00D0020B00D00200000000010B5074C1B
:100310002378002B09D1FFF7D5FF054B002B02D026
:10032000044800E000BF0123237010BDB82902205B
:100330000000000018410410054B10B5002B03D03D
:100340000449054800E000BFFFF7CCFF10BDC046E0
:1003500000000000BC2902201841041070B50C30C8
:100360000C00002136F076FE002833D00169806948
:1003700000282EDD00231D000A1D94425D412A0045
:10038000251DA9425B4113430922824292415242F8
:100390001A4221D00B0023439B071DD100230022CA
:1003A0008508E6580132CE5004339542F9D803232C
:1003B00002009A43130090420BD0A256CA545A1C12
:1003C000904206DDA55602338D54984201DDE25677
:1003D000CA5470BD0021CAE70023E256CA54013353
:1003E0009842FAD1F5E7C046F0B54646D6464F46A4
:1003F000C0B58D4C86B08D4E05AB0594336037F09B
:10040000E3FA002800D1D4E037F0E2FA884D8046C4
:10041000280002F019F8874B874F5A781978120292
:100420000A43997809040A43D9787C600906114384
:10043000C918824B3960BB60019387230022804C2E
:100440009B02029200932A007E4B200036F09CFD16
:10045000200036F0C3FE7C4C7C4D380021002F601C
:10046000FFF77CFF37F0B4FA4346C71A784B9F4238
:1004700000DDA9E037F0A8FA0100FA2080007843F7
:100480003EF09CFF734B00909846734A3B004146F8
:10049000306800F023F937F097FA002800D188E09F
:1004A00037F096FA2F68814638000C3036F064FF3A
:1004B000002800D09EE037F08BFA4B46C71A644BF9
:1004C0009F4200DD8BE037F07FFA0100FA208000C8
:1004D00078433EF073FF00903B00604A414630682D
:1004E00000F0FCF837F070FA002862D037F070FAAC
:1004F000210082462868FFF731FF594B0A249946AC
:100500002F6838000C3036F037FF002803D04946FA
:10051000B86800F0E3F8013C002CF1D137F058FA4C
:100520005346C41A4A4B9C4269DD37F04DFAFA2112
:1005300089003EF043FF010020003EF03FFF0090A5
:100540002300484A4146306800F0C8F837F03CFACA
:1005500000282ED037F03CFA434982462868FFF73E
:10056000FDFE3F4B0A2499462F6838000C3036F0C8
:1005700003FF002803D04946B86800F0AFF8013CFB
:10058000002CF1D137F024FA5346C41A304B9C4268
:100590003EDC37F019FA0100FA20800060433EF09B
:1005A0000DFF00902300314A4146306800F096F874
:1005B00003E02F49306800F091F8002006B01CBC21
:1005C00090469946A246F0BD37F0FEF9FA2189001F
:1005D0003EF0F4FE010038003EF0F0FE52E737F046
:1005E000F3F9FA2189003EF0E9FE010038003EF0FF
:1005F000E5FE70E71A49B86800F070F85BE737F07D
:10060000E3F90100FA20800060433EF0D7FE96E750
:1006100037F0DAF9FA2189003EF0D0FE010020001F
:100620003EF0CCFEBDE7C04610720910503D0220DE
:100630001C2A022000660410AC3C0220B03C0220C0
:10064000B83C0220B00D002018FC0810182A022027
:100650009BC4200054410410384104108041041010
:1006600070410410A8410410FC410410D041041052
:1006700018410410013080007047C04670B5030077
:1006800088421CD0002807D0002905D00C681A68C1
:100690000020944202D070BD0020FCE7002C0EDD4B
:1006A0004A685D68AA42F6D1082205E0161D9D58E9
:1006B0008A589542F0D1320001308442F6D10120AF
:1006C000E9E7C0460D2803D8024B8000C0587047A8
:1006D0000148FCE718200910502009100EB400B59D
:1006E00082B003AA02CA036801929B68984702B0CD
:1006F00008BC03B01847C0460CB400B583B004AAC8
:1007000002CA036801929B68984703B008BC02B014
:100710001847C04610B513000C2837D8204B80006E
:100720001B589F460C2300200B7010BD0D2300208A
:100730000B70FAE7012300200B70F6E70A23002074
:100740000B70F2E7022300200B70EEE7032300207A
:100750000B70EAE7042300200B70E6E70523002076
:100760000B70E2E7062300200B70DEE70723002072
:100770000B70DAE7082300200B70D6E7092300206E
:100780000B70D2E70B2300200B70CEE700220A701B
:10079000020004491800FFF7A1FF0120C5E7C04689
:1007A000D8200910FC2109100020704770B51D00E9
:1007B000136882B004000E0010001B6801220221A1
:1007C0009847002839D00023037043702368E31A48
:1007D0001A880A2A2DD9598900292AD0615C0B2947
:1007E00027D10C2A25D99B89E418002B21D0236816
:1007F0009C466444002C1CD023680122E31A19880B
:10080000042915D99A880026002A06D0A25C013A4C
:10081000D2B2042A01D80F4EB65C06700122062916
:1008200006D9DB88002B03D0E25C531E9A41D2B27A
:1008300042702860002002B070BD074B074A019348
:10084000E2239B0000933100054B3000FFF754FF7B
:100850000120F0E7A8210910C8220910B0220910D0
:100860004C220910F0B5C646160000B5984613682C
:1008700082B004000F001B6801220121300098475C
:10088000051E25D0002303702368E31A1A880A2A5C
:1008900017D95989002914D0615C282911D10C2A53
:1008A0000FD99B89E418002B0BD023689C46644425
:1008B000002C06D02368E31A1A88042A14D80123CE
:1008C0002B70434600201D6002B004BC9046F0BD72
:1008D000224B234A0193234B390000933800224BCB
:1008E000FFF70AFF0120EFE79B88002BE7D0E25CCF
:1008F0000C2A03D81D4B92009B589F461C49380078
:10090000FFF7ECFE336830005B6829009847012050
:10091000DAE707230370D4E706230370D1E7052342
:100920000370CEE704230370CBE703230370C8E70B
:1009300002230370C5E70A230370C2E70D23037087
:10094000BFE70C230370BCE70B230370B9E709234F
:100950000370B6E708230370B3E7C046C822091046
:10096000B0220910A20300004C2209100C2109102A
:10097000FC210910F0B5C646160000B5984613686C
:1009800082B004000F001B6801220121300098474B
:10099000051E25D0002303702368E31A1A880A2A4B
:1009A00017D95989002914D0615C392911D10C2A31
:1009B0000FD99B89E418002B0BD023689C46644414
:1009C000002C06D02368E31A1A88042A14D80123BD
:1009D0002B70434600201D6002B004BC9046F0BD61
:1009E000224B234A0193234B390000933800224BBA
:1009F000FFF782FE0120EFE79B88002BE7D0E25C47
:100A00000C2A03D81D4B92009B589F461C49380066
:100A1000FFF764FE336830005B68290098470120C7
:100A2000DAE707230370D4E706230370D1E7052331
:100A30000370CEE704230370CBE703230370C8E7FA
:100A400002230370C5E70A230370C2E70D23037076
:100A5000BFE70C230370BCE70B230370B9E709233E
:100A60000370B6E708230370B3E7C046C822091035
:100A7000B0220910BB0300004C22091040210910CC
:100A8000FC2109100020704770B51D00136882B06A
:100A900004000E0010001B6804220821984700285B
:100AA00025D00023036003712368E31A1A880A2AF9
:100AB00019D95989002916D0615C0A2913D10C2A49
:100AC00011D99B89E418002B0DD023689C466444FF
:100AD000002C08D02368E31A1A88062A13D80021AC
:100AE000042A1CD801602860002002B070BD0F4BA2
:100AF0000F4A01930F4B3100009330000E4BFFF76C
:100B0000FBFD0120F1E7DA880021002A06D0A25C73
:100B1000013AD2B2042A01D80849895C01719B8844
:100B20000021002BDED0E1580160DCE7C82209106B
:100B3000B0220910DE0300004C220910A821091080
:100B4000F0B51E00136883B004000F0010001B688E
:100B5000042218219847051E58D0182200213FF082
:100B6000D1FE2368E31A1A880A2A4BD95989002929
:100B700048D0615C012945D10C2A43D99B89E418EE
:100B8000002B3FD023689C466444002C3AD0236855
:100B9000E31A1A88042A45D99888002806D02156D5
:100BA000002950D001394842414149002970062AA4
:100BB00039D9D8880021002843D16960082A32D960
:100BC0001889002100283AD1A96000210A2A09D9F0
:100BD0005889002806D0205C0138C0B2042801D80A
:100BE0001A49095C29730C2A22D998890121002805
:100BF00023D1296101210E2A03D9DB89002B00D0E2
:100C0000E15869610020356003B0F0BD104B114A16
:100C10000193114B390000933800104BFFF76CFD26
:100C20000120F1E729700021A96029730C2ADCD882
:100C3000012301212B616961E4E72158D9E721589B
:100C4000C2E72158B9E70121B0E7C046A821091041
:100C5000C8220910B0220910F90300004C22091023
:100C600000207047F0B51E00136883B004000F0029
:100C700010001B6804221C219847051E00D160E06B
:100C80001C2200213FF03EFE2368E31A1A880A2A3C
:100C900053D95989002950D0615C02294DD10C2AC1
:100CA0004BD99B89E418002B47D023689C466444A9
:100CB000002C42D02368E31A1A88042A52D9988853
:100CC0000139002806D0215600295AD0013948425E
:100CD000414149002970062A46D9D88800210028B8
:100CE0004DD16960082A3FD918890021002844D1D4
:100CF000A9600A2A3AD95889002100283BD1E96025
:100D000000210C2A09D99889002806D0205C0138D6
:100D1000C0B2042801D81C49095C29740E2A1CD9C8
:100D2000D8890121002824D169610121102A03D921
:100D30001B8A002B00D0E158A9610020356003B068
:100D4000F0BD124B124A0193124B39000093380048
:100D5000114BFFF7D1FC0120F1E7012301216B6169
:100D6000A961EAE7012129700021A9600021E96059
:100D7000D3E72158D8E72158C1E72158B8E72158CF
:100D8000AFE70121A6E7C046A8210910C822091033
:100D9000B0220910230400004C22091000207047E3
:100DA0000020704700207047F0B5C646160000B519
:100DB0009846136882B004000F001B6801220421CA
:100DC00030009847051E4FD0042200213FF09AFDC5
:100DD0002368E31A1A880A2A38D95989002935D094
:100DE000615C082932D10C2A30D99B89E418002B88
:100DF0002CD023689C466444002C27D02368E31A37
:100E00001A88042A29D999880020002906D0615C13
:100E10000139C9B2042901D82448405C2870082A45
:100E20001DD91889002100282FD1A9700A2A04D9B8
:100E300059890022002923D1EA70DB88002B10D0C9
:100E4000E356002B0DD0012B24D16B7043460020BC
:100E50001D6002B004BC9046F0BD00212970062A36
:100E6000EBD800236B70F1E7114B124A0193124B40
:100E7000390000933800114BFFF73EFC0120E8E7F2
:100E8000625C511E8A41D2B2D6E7215C481E814184
:100E9000C9B2CAE70A493800FFF720FC33683000BE
:100EA0005B68290098470120D3E7C046A8210910B4
:100EB000C8220910B0220910670400004C22091052
:100EC0002022091000207047002070470020704742
:100ED00070B51D00136882B004000E0010001B687E
:100EE00001220121984700282CD000230370236899
:100EF000E31A1A880A2A21D9598900291ED0615C6F
:100F00000C291BD10C2A19D99B89E418002B15D068
:100F100023689C466444002C10D023680022E31A06
:100F20001988042909D99B88002B06D0E35C013B72
:100F3000DBB2042B01D8094AD25C02702860002081
:100F400002B070BD064B074A0193074B3100009376
:100F50003000064BFFF7D0FB0120F1E7A821091074
:100F6000C8220910B0220910AC0400004C2209105C
:100F70000020704700207047002070470020704715
:100F80000020704700207047002070470020704705
:100F90000020704770B51D00136882B004000E0079
:100FA00010001B6801220121984700282CD0002343
:100FB00003702368E31A1A880A2A21D9598900295B
:100FC0001ED0615C15291BD10C2A19D99B89E41804
:100FD000002B15D023689C466444002C10D0236855
:100FE0000022E31A1988042909D99B88002B06D00E
:100FF000E35C013BDBB2042B01D8094AD25C0270EE
:101000002860002002B070BD064B074A0193074BD1
:10101000310000933000064BFFF76EFB0120F1E733
:10102000A8210910C8220910B02209100C050000DF
:101030004C220910002070470020704770B51D0039
:10104000136882B004000E0010001B6804220821FF
:101050009847002830D00023036043602368E31AD8
:101060001A880A2A21D9598900291ED0615C3B2996
:101070001BD10C2A19D99B89E418002B15D02368A1
:101080009C466444002C10D02368E31A1A88042A72
:101090000FD99E880021002E1AD10160062A08D996
:1010A000DB88002B05D0E35843602860002002B0A5
:1010B00070BD00234360F8E7064B074A0193074BD6
:1010C000310000933000064BFFF716FB0120EEE7DE
:1010D000A159E2E7C8220910B02209103505000025
:1010E0004C2209100020704700207047F0B51E0008
:1010F000136883B004000F0010001B68042228212D
:101100009847051E58D0282200213FF0FBFB23689A
:10111000E31A1A880A2A4BD95989002948D0615CF8
:10112000052945D10C2A43D99B89E418002B3FD0CF
:1011300023689C466444002C3AD02368E31A1A883A
:10114000042A45D998880439002806D02156002958
:1011500051D001394842414149002970062A39D904
:10116000D8880021002844D16960082A32D918891A
:10117000002100283BD1A9600A2A2DD958890021D5
:10118000002832D1E9600C2A28D99889002100284A
:1011900029D1296100210E2A09D9DB89002B06D02B
:1011A000E35C013BDBB2042B01D8144AD15C297506
:1011B0000020356003B0F0BD114B124A0193124B71
:1011C000390000933800114BFFF796FA0120F1E740
:1011D00001232B700023AB600023EB600023002170
:1011E0002B612975E4E72158D3E72158CAE7215834
:1011F000C1E72158B8E70121AFE7C046A82109108F
:10120000C8220910B02209105E0500004C22091006
:10121000002070470020704770B51D00136882B031
:1012200004000E0010001B680122012198470028CD
:1012300029D0002303702368E31A1A880A2A1ED9CA
:10124000598900291BD0615C1B2918D10C2A16D999
:101250009B89E418002B12D023689C466444002C20
:101260000DD023680022E31A1988042906D99B8827
:10127000002B03D0E25C531E9A41D2B20270286068
:10128000002002B070BD064B064A0193064B3100A8
:1012900000933000054BFFF72FFA0120F1E7C0461D
:1012A000C8220910B02209108E0500004C22091036
:1012B0000020704700207047F0B5C646160000B504
:1012C0009846136882B004000F001B680422242192
:1012D00030009847051E52D0242200213FF012FB17
:1012E0002368E31A1A880A2A42D9598900293FD06B
:1012F000615C11293CD10C2A3AD99B89E418002B56
:1013000036D023689C466444002C31D02368E31A0D
:101310001A88042A2CD99B88002B29D0E41823682A
:101320009C466444002C23D02368082B34D8002B1F
:101330001DD062682A60012B19D0A2686A60022B56
:1013400015D0E268AA60032B11D02269EA60042B51
:101350000DD062692A61052B09D0A2696A61062B4A
:1013600005D0E269AA61072B01D0226AEA612B62EB
:10137000434600201D6002B004BC9046F0BD0C4BFB
:101380000C4A0193B723DB00009339000A4B380065
:10139000FFF7B2F90120EEE7084A09493800FFF7E4
:1013A0009DF9336830005B68290098470120E2E727
:1013B000C8220910B02209104C220910B0210910CE
:1013C000B821091070B51D00136882B004000E002A
:1013D00010001B68012202219847002833D0002307
:1013E000037043702368E31A1A880A2A24D959899A
:1013F000002921D0615C4A291ED10C2A1CD99B8965
:10140000E418002B18D023689C466444002C13D0A9
:101410002368E31A1A88042A12D99E880021002E14
:101420001ED10170062A0BD9DB88002B08D0E35CA3
:101430005A1E9341DBB243702860002002B070BD99
:1014400000234370F8E7094B094A0193BF23DB00EF
:1014500000933100074B3000FFF74EF90120EDE714
:10146000A15D4E1EB141C9B2DBE7C046C8220910DA
:10147000B02209104C22091000207047002070474C
:10148000F0B5C646160000B59846136882B0040051
:101490000F001B680122012130009847051E25D04E
:1014A000002303702368E31A1A880A2A17D9598976
:1014B000002914D0615C372911D10C2A0FD99B89DE
:1014C000E418002B0BD023689C466444002C06D003
:1014D0002368E31A1A88042A14D801232B70434680
:1014E00000201D6002B004BC9046F0BD224B234A90
:1014F0000193234B390000933800224BFFF7FCF88F
:101500000120EFE79B88002BE7D0E25C0C2A03D890
:101510001D4B92009B589F461C493800FFF7DEF890
:10152000336830005B68290098470120DAE7072319
:101530000370D4E706230370D1E705230370CEE7D9
:1015400004230370CBE703230370C8E7022303706F
:10155000C5E70A230370C2E70D230370BFE70C231E
:101560000370BCE70B230370B9E709230370B6E7E8
:1015700008230370B3E7C046C8220910B02209103F
:101580001F0600004C22091074210910FC210910CB
:101590000020704770B51D00136882B004000E0073
:1015A00010001B68042204219847002826D000223E
:1015B00023680260E31A19880A291BD95E89002E64
:1015C00018D0A65D092E15D10C2913D99B89E418D2
:1015D000002B0FD023689C466444002C0AD023685B
:1015E000111CE31A1E88042E03D99B88002B00D0FF
:1015F000E15801602860002002B070BD054B064A2A
:101600000193064B310000933000054BFFF774F84F
:101610000120F1E7C8220910B0220910410600009C
:101620004C22091070B51D00136882B004000E0032
:1016300010001B68042204219847002826D00023AC
:1016400003602368E31A1A880A2A1BD959890029DA
:1016500018D0615C232915D10C2A13D99B89E41871
:10166000002B0FD023689C466444002C0AD02368CA
:101670000022E31A1988042903D99B88002B00D083
:10168000E25802602860002002B070BD054B064A97
:101690000193064B310000933000054BFFF72CF807
:1016A0000120F1E7C8220910B022091059060000F4
:1016B0004C22091070B51D00136882B004000E00A2
:1016C00010001B68042204219847002826D000231C
:1016D00003602368E31A1A880A2A1BD9598900294A
:1016E00018D0615C4F2915D10C2A13D99B89E418B5
:1016F000002B0FD023689C466444002C0AD023683A
:101700000022E31A1988042903D99B88002B00D0F2
:10171000E25802602860002002B070BD054B064A06
:101720000193064B310000933000054BFEF7E4FFB8
:101730000120F1E7C8220910B0220910710600004B
:101740004C2209100020704700207047F0B51E00A1
:10175000136883B004000F0010001B6804221421DA
:101760009847051E44D0142200213FF0CBF823688F
:10177000E31A1A880A2A37D95989002934D0615CBA
:10178000202931D10C2A2FD99B89E418002B2BD08A
:1017900023689C466444002C26D02368E31A1A88E8
:1017A000042A31D99888002100283AD12960062AD4
:1017B0002AD9D8880021002831D16960082A23D984
:1017C00018890021002828D1A9600A2A1ED9588921
:1017D000002100281FD1E96000210C2A03D99B8930
:1017E000002B00D0E15829610020356003B0F0BD26
:1017F0000D4B0E4A01930E4B3900009338000D4BF0
:10180000FEF77AFF0120F1E70023AB6000230021FF
:10181000EB602961E8E72158DDE72158D4E721583A
:10182000CBE72158C2E7C046C8220910B0220910F0
:101830009B0600004C22091070B51D00136882B091
:1018400004000E0010001B680122022198470028A6
:1018500039D00023037043702368E31A1A880A2AD8
:101860002DD9598900292AD0615C1C2927D10C2A3D
:1018700025D99B89E418002B21D023689C46644419
:10188000002C1CD023680122E31A1988042915D9D9
:101890009A880026002A06D0A25C013AD2B2042A15
:1018A00001D80F4EB65C06700122062906D9DB88E6
:1018B000002B03D0E25C531E9A41D2B242702860E2
:1018C000002002B070BD074B074A0193074B31005F
:1018D00000933000064BFEF70FFF0120F1E7C046F2
:1018E000A8210910C8220910B0220910B70600006B
:1018F0004C22091070B51D00136882B004000E0060
:1019000010001B68042208219847002839D00023C2
:101910000360037143712368E31A1A880A2A2CD9D9
:101920005989002929D0615C062926D10C2A24D99D
:101930009B89E418002B20D023689C466444002C2B
:101940001BD02368E31A1A88042A09D99E8800212B
:10195000002E2AD10160062A02D9D98800291CD17B
:10196000002101710021082A06D91B89002B03D010
:10197000E15C4B1E9941C9B241712860002002B060
:1019800070BD0B4B0B4A01930B4B310000933000A1
:101990000A4BFEF7B1FE0120F1E7615C0139C9B2E3
:1019A0000429DDD8064E715CDBE7A159D2E7C046B9
:1019B000C8220910B0220910D10600004C220910DB
:1019C000A82109100020704770B51D00136882B06F
:1019D00004000E0010001B6804220821984700280C
:1019E00030D00023036043602368E31A1A880A2A70
:1019F00021D9598900291ED0615C40291BD10C2AAC
:101A000019D99B89E418002B15D023689C4664449F
:101A1000002C10D02368E31A1A88042A0FD99E8854
:101A20000021002E1AD10160062A08D9DB88002B7C
:101A300005D0E35843602860002002B070BD002349
:101A40004360F8E7064B074A0193074B31000093C8
:101A50003000064BFEF750FE0120EEE7A159E2E709
:101A6000C8220910B0220910F40600004C22091007
:101A7000F8B5CE4647461D000023040080B52B6014
:101A800090460E0036F04AF823688146E31A1A8819
:101A90000127082A02D91989002928D14946832912
:101AA00029D820290DD033683A001B6830009847A8
:101AB000030028600020002B2AD00CBC90469946D9
:101AC000F8BD062A1ED9D98800291BD064182368BE
:101AD0009C466444002C15D03368211D5B683A0095
:101AE00030009847286043425841C0B2E5E7675844
:101AF00049468329D5D94A460B494046FEF7EEFDB3
:101B00000120DAE709494046FEF7E8FD0120D4E765
:101B10004B46074A9B00D25806493B004046FEF719
:101B2000DDFD0120C9E7C046F02409107C2509101D
:101B3000DC22091044250910F8B515001C0000220C
:101B4000002306000F003DF007FF002803D000230C
:101B50002B602360F8BD22003000390042F0B4FA57
:101B60000022114B3DF0B6FE3DF0F6FF3DF08AFF3E
:101B7000002917DC12D0802223681206904206D07A
:101B80001F3302DA0023002023602860E2E70029E7
:101B9000F6D1802001332360C005F1E780231B06C6
:101BA0009842E8D941F028FA0000E041F0B517006A
:101BB00083B01E0000221E4B04000D003DF0D4FE39
:101BC000002833D000220023200029003DF0E2FE4F
:101BD00000282BD001AA2000290042F075FA00222B
:101BE000144B3DF077FE3DF0B7FF3DF04BFF002971
:101BF0001CDC17D08022019B120690420BD01A00E9
:101C00001F3205DB3860002B10DC336003B0F0BD01
:101C100000233B60F9E70029F1D1802001330193D3
:101C2000C005ECE780231B069842E3D941F0E4F9B4
:101C30000000F03F0000E041F0B583B00092019356
:101C40001F23040001200D0008995B1A98403DF005
:101C5000B9FE009A019B06000F00200029003DF00C
:101C600039FE02000B00300039003DF033FE294AF6
:101C7000294B04000D003DF08DFE061E15D10022FB
:101C8000264B200029003DF085FE002832D000229E
:101C90000023200029003DF05FFE002807D0099BAB
:101CA0001E600A9B1E6003B0F0BD1A4C1A4D0A9AC2
:101CB0002000290042F008FA0022194B3DF00AFEEC
:101CC0003DF04AFF3DF0DEFE002913DC1CD08022EF
:101CD0000A9B12061B6890420ED01A001F3205DACA
:101CE00000230A9A1360099A1360DCE7099A1060CE
:101CF000002BD8DA41F080F90029EED180200A9A31
:101D000001331360C005E8E780231B069842DED943
:101D1000F0E7C0460000C0FFFFFFDF410000F03FDA
:101D20000000E041F8B5CE46012381464746180041
:101D300098464B46984080B5013816000F003DF09C
:101D400041FE4B46F21A20235B4204000D00D318DB
:101D500026D4414699400126300090403DF07AFE5D
:101D60000B000200290020003DF0B4FD20235B425F
:101D700004000D00FB1818D4310099400120B84030
:101D80003DF068FE02000B00200029003DF099FDA7
:101D90003DF034FF3DF02EFE0CBC90469946F8BD58
:101DA000202341469B1AD940D5E720233100DB1B75
:101DB000D940E3E70B6810B502CB002A0BDB8A425F
:101DC00009DA9200D158002905DB8368002B04D181
:101DD000036D984710BD0020FCE748011818F9E78B
:101DE0004B6810B502CB002A0BDB914209DD920053
:101DF000D158002905DB8368002B04D1036D984777
:101E000010BD0020FCE748011818F9E70B6810B571
:101E100002CB002A0BDB8A4209DA9200D158002952
:101E200005DB8368002B04D1036D984710BD0020AB
:101E3000FCE748011818F9E7F0B5CE46474680B5EB
:101E40001C008B6883B09846936805009946002C67
:101E50003AD040463EF064FB060048460F003EF094
:101E60005FFB02000B00300039003DF033FD06003F
:101E7000A0680F003EF054FB02000B003000390058
:101E80003DF00DFD0A9B060098684C003EF048FBB3
:101E9000640802000B00300021003DF012FD1C4AD6
:101EA0001C4B3DF067FD00280ED11B4B00933623E1
:101EB0006C69FF332800194A1949A047012003B073
:101EC0000CBC90469946F0BD494640463EF072FA39
:101ED0000021041C3EF0B2FA002805D1114B0093FA
:101EE000A1236C695B00E5E7201C3EF019FB0A9B0F
:101EF000040098680D003EF013FB0B00020029005F
:101F000020003DF0DEFC0B9B186059600020D6E7F6
:101F10007B14AE47E17A943F082C0910B02B0910CE
:101F2000B02209102C2C0910F0B5C64600B51C00D3
:101F3000137F82B0032B21D0092B0ED0072B62D048
:101F4000334B344A009376234469FF333249A04728
:101F5000012002B004BC9046F0BD80257F266D4272
:101F60009368D768984601290FD003293BD00229EE
:101F70001CD0089B256000201E60EAE79368FF26BE
:101F800000259846D7680129EFD1191C00203EF0A2
:101F90000EFA3EF043FB3EF085FAC719AF4200DA75
:101FA0002F00089B276000201E60D2E7191C1B48E9
:101FB0003EF0FDF93EF032FB3EF074FAC019A84243
:101FC00024DB2060FE20414680053EF0F0F93EF023
:101FD00025FB3EF067FAC719B74200DD3700089BC2
:101FE00000201F60B5E7191C00203EF0E0F93EF02C
:101FF00015FB3EF057FAC019A84200DA280020600D
:1020000041460748E1E7074E074DA9E72800D8E712
:10201000482C0910B02B0910B0220910000080BF15
:102020000000C040FF7F00000080FFFFF0B5574672
:102030004E464546DE46E0B51F000B788FB00400E3
:102040000D001600012B14D00293864B0122019340
:10205000854B03920093D22345692000834A84492B
:10206000A84701200FB03CBC90469946A246AB461B
:10207000F0BD1278012A08D003937A4B02920193A3
:102080007C4B00934569D423E7E77368002B09D1A3
:10209000794B0093DE2345692000744A7749A847AD
:1020A0000120DFE71A680592002A04D1744B0093DF
:1020B0004569DF23F0E7059A1268012A0ADDFD2051
:1020C000097F073901408A461DD06E4B0093656930
:1020D000E423E1E7189B88689B689846209B002BC7
:1020E0003EDC2B7F032B1BD0092B02D00020072BBB
:1020F000B8D1199B189A19781D9B200000931C9B3E
:10210000FFF712FFAEE7317F092959D00923039366
:102110005D4B029101935D4B00936569E5239CE75C
:10212000002200230C920D930CAB0193189B3200FC
:10213000009329003B002000FFF77EFE002891D18C
:102140000C980D990BAB1A9AFFF7F6FC0B9B1B9A98
:102150005B4213602B7F092BCBD0032BC9D0C5E783
:102160003EF0DEF90890099140463EF0D9F9209BF7
:10217000069007919B00994600239A460CAB9B461C
:102180000BAB9846230054469A46059B58683EF090
:10219000C7F9089A099B3DF09DFB069A079B3DF005
:1021A00090FB5B464246FFF7C7FC1E9B0B9A1A51F9
:1021B0001F9B0C9A1A5104344C45E6D1544690E7C3
:1021C0002099914208D0324B03910193314B0292F6
:1021D00000936569E62340E772699B6894469B001B
:1021E00063445B68209A9A4208D003932A4B029278
:1021F0000193274B00936569E9232EE7059BA868A7
:10220000043305933EF08CF9189B08900991986867
:102210003EF086F9209B069007919B0099460CABF7
:102220009B460BAB9846230054469A46059B18598B
:102230003EF076F9089A099B3DF04CFB069A079B05
:102240003DF03FFB5B464246FFF776FC1E9B0B9A38
:102250001A511F9B0C9A1A5104344C45E6D154462E
:102260003FE7C0466C2C0910882C0910B02B0910D0
:10227000502C0910A42C0910C02C0910B0220910F0
:10228000D42C0910F02C0910083B09102C2D091032
:102290003C2D09104C2D0910702D091010B54969FD
:1022A0004069FEF7EBF9431E9841C0B210BDC0462D
:1022B00000230360436083607047C04630B5202927
:1022C00013D00E4BC558002D0FD002008469383250
:1022D00000238C4206D10EE020321400203C2468FA
:1022E0008C4204D00133AB42F6D1002030BD5B01FB
:1022F0000433C018FAE70430F8E7C04604100000C1
:102300007047C0460E4B30B5C558002D0FD00D4B51
:10231000C35C8B420DD00C4BC218002304E0013289
:10232000541E24788C4205D001339D42F7D1002001
:1023300030BD0023054A944663449B001858F7E7D4
:10234000881200000810000009100000220400009C
:10235000F0B5C6460F4B00B5C65807008846002E9C
:1023600014D004000025183403E001352034B542B0
:102370000CD02368202BF8D14146606841F070FAF8
:102380000028F2D16D01281D381800E0002004BC9F
:102390009046F0BD041000000368124A5B6970B5F6
:1023A00093421BD1202913D00F4BC558002D0FD0BD
:1023B0000200846938320023A14206D110E02032A5
:1023C0001400203C2468A14204D001339D42F6D180
:1023D000002070BD5B010433C018FAE79847F8E7A6
:1023E0000430F6E7BD22001004100000F0B5C64628
:1023F0000368134A9B6900B50700884693421CD1C5
:10240000104BC658002E14D004000025183403E0E9
:1024100001352034B5420CD02368202BF8D1414639
:10242000606841F01DFA0028F2D16D01281D3818AE
:1024300000E0002004BC9046F0BD9847FAE7C04693
:102440005123001004100000F0B5DE464E4645460C
:102450005746E0B5002389B06D460400E34EE44AD8
:1024600083518350E34A8350E34B0360280020F0FC
:10247000F7FAA059002801D102F01BFDA369652BD2
:1024800001D101F0A0F922000021383208E0203209
:1024900019001300203B1B68652B01D101F093F953
:1024A0004B1C8342F3D1802801D001F029FDD14B90
:1024B000E058002804D080236522D049FEF70EF9A9
:1024C000280006F061F9C94BE058002801D102F05C
:1024D000E5FCA369002B01D101F081F92200002164
:1024E000383208E0203219001300203B1B68002B13
:1024F00001D101F074F94B1C8342F3D1802801D043
:1025000001F0DCFCBB4BE058002804D08023002203
:10251000BA49FEF7E3F8280003F0DAFFB34BE058BE
:10252000002801D102F0BEFCA369382B01D101F0D3
:1025300062F922000021383208E02032190013002D
:10254000203B1B68382B01D101F055F94B1C83420D
:10255000F3D1802801D002F01BF9A64BE0580028E7
:1025600004D080233822A549FEF7B8F8280003F0EC
:10257000BBFF9E4BE058002801D102F04FFCA3693D
:102580004F2B01D101F043F922000021383208E03D
:10259000203219001300203B1B684F2B01D101F0A2
:1025A00036F94B1C8342F3D1802801D001F0BCFDE9
:1025B000904BE058002804D080234F228F49FEF72B
:1025C0008DF828000DF004FA884BE058002801D15E
:1025D00002F0F1FBA369012B01D101F024F92200E3
:1025E0000021383208E0203219001300203B1B681C
:1025F000012B01D101F017F94B1C8342F3D1802844
:1026000001D001F049FD7B4BE058002804D0802325
:1026100001227A49FEF762F8280004F08DF8734B26
:10262000E058002801D102F000FCA369682B01D119
:1026300001F005F922000021383208E020321900AB
:102640001300203B1B68682B01D101F0F8F84B1CEC
:102650008342F3D1802801D001F0FCFC654BE058A7
:10266000002804D0802368226449FEF737F8280048
:102670001BF0AAFF5D4BE058002801D102F0D9FB06
:10268000A369022B01D101F0E6F8220000213832C3
:1026900008E0203219001300203B1B68022B01D1F7
:1026A00001F0D9F84B1C8342F3D1802801D001F00E
:1026B0005DFD504BE058002804D0802302224F4992
:1026C000FEF70CF8280007F0E5F9484BE058002821
:1026D00001D102F09DFBA369032B01D101F0C7F8E2
:1026E00022000021383208E0203219001300203B7C
:1026F0001B68032B01D101F0BAF84B1C8342F3D1C4
:10270000802801D002F035FB3A4BE058002804D075
:10271000802303223949FDF7E1FF280020F0BAF9B0
:10272000324BE058002801D102F07CFBA3696C2BEE
:1027300001D101F0A8F822000021383208E020324F
:1027400019001300203B1B686C2B01D101F09BF892
:102750004B1C8342F3D1802801D002F03BFA254B79
:10276000E058002804D080236C222449FDF7B6FFEE
:10277000280008F05FFB1D4BE058002801D102F053
:1027800077FBA369042B01D101F089F82200002115
:10279000383208E0203219001300203B1B68042B5C
:1027A00001D101F07CF84B1C8342F3D1802801D089
:1027B00002F054FA0F4BE058002804D08023042282
:1027C0000E49FDF78BFF28001DF058FA074BE05823
:1027D000002801D102F04FFBA369062B01D101F0C3
:1027E0006AF822000021383213E0C04604100000CD
:1027F000881200008C120000B82D0910282E091034
:10280000203219001300203B1B68062B01D101F078
:1028100052F84B1C8342F3D1802801D002F0FCF91E
:10282000CD4BE058002804D080230622CB49FDF789
:1028300055FF1FF021FECA4B8046E7587F2F01D875
:1028400001F04CF8C44BE058002804D08023C54A5E
:10285000C549FDF743FF28001BF00AFBC04BE058B9
:10286000002801D102F0ABFAA369472B01D101F096
:1028700067F822000021383208E0203219001300E6
:10288000203B1B68472B01D101F05AF84B1C8342B7
:10289000F3D1802801D002F028FAAF4BE05800288D
:1028A00004D080234722AD49FDF718FF20F044F9FA
:1028B000071E12D020F042F9A94B8146E3589846F2
:1028C0007F2B01D801F04AFAA34BE058002804D02E
:1028D00080234A46A449FDF701FF280020F09EF915
:1028E0009F4BE058002801D102F095FAA369082B0C
:1028F00001D101F031F822000021383208E0203205
:1029000019001300203B1B68082B01D101F024F8AB
:102910004B1C8342F3D1802801D002F008FA8E4B81
:10292000E058002804D0802308228C49FDF7D6FE09
:10293000280009F05DF98A4BE058002801D102F027
:1029400022FBA369092B01D101F012F8220000211A
:10295000383208E0203219001300203B1B68092B95
:1029600001D101F005F84B1C8342F3D1802801D03E
:1029700001F02EFA784BE058002804D08023092279
:102980007649FDF7ABFE28001BF08CFA744BE0583B
:10299000002801D102F0E0FAA3693D2B01D100F03B
:1029A000F3FF22000021383208E020321900130022
:1029B000203B1B683D2B01D100F0E6FF4B1C8342FE
:1029C000F3D1802801D001F005FF634BE0580028C7
:1029D00004D080233D226149FDF780FE28001BF0D2
:1029E0006FFA5F4BE058002801D102F0C0FAA369EA
:1029F0003E2B01D100F0D4FF22000021383208E044
:102A0000203219001300203B1B683E2B01D100F03F
:102A1000C7FF4B1C8342F3D1802801D001F052FE46
:102A20004D4BE058002804D080233E224B49FDF74F
:102A300055FE280020F038FC494BE058002801D111
:102A400002F086FAA369752B01D100F0B5FF2200D0
:102A50000021383208E0203219001300203B1B68A7
:102A6000752B01D100F0A8FF4B1C8342F3D18028C5
:102A700001D001F047FC384BE058002804D08023F7
:102A800075223649FDF72AFE280021F0F3FA344B6F
:102A9000E058002801D102F0DCF9A3690B2B01D129
:102AA00000F096FF22000021383208E020321900A1
:102AB0001300203B1B680B2B01D100F089FF4B1C3E
:102AC0008342F3D1802801D001F0FAFB224BE05879
:102AD000002804D080230B222049FDF7FFFD2800A9
:102AE0001BF0FCF91E4BE058002801D102F0B5F9AB
:102AF000A3693A2B01D100F077FF22000021383280
:102B000008E0203219001300203B1B683A2B01D14A
:102B100000F06AFF4B1C8342F3D1802801D001F002
:102B2000ADFB0D4BE058002804D080233A220B491E
:102B3000FDF7D4FD28001BF0DDF9094BE058002813
:102B400001D102F0D7F9A3693F2B01D100F058FF62
:102B500022000021383212E08C120000282E0910C9
:102B6000041000006C2E09108C2E09102032190060
:102B70001300203B1B683F2B01D100F041FF4B1C91
:102B80008342F3D1802801D001F0AAFCCE4BE0585B
:102B9000002804D080233F22CC49FDF79FFD280068
:102BA0001FF086FFCA4BE058002801D102F0E3F97C
:102BB000A369492B01D100F02FFF220000213832F8
:102BC00008E0203219001300203B1B68492B01D17B
:102BD00000F022FF4B1C8342F3D1802801D001F08A
:102BE0005DFCB94BE058002804D080234922B74946
:102BF000FDF774FD280021F0AFFEB54BE05800282A
:102C000001D102F062F9A369562B01D100F010FF47
:102C100022000021383208E0203219001300203B46
:102C20001B68562B01D100F003FF4B1C8342F3D1EC
:102C3000802801D001F08AFFA34BE058002804D07F
:102C400080235622A149FDF749FD28001FF066FFA9
:102C50009F4BE058002801D102F03AF9A369572BA5
:102C600001D100F0F1FE22000021383208E02032CC
:102C700019001300203B1B68572B01D100F0E4FE24
:102C80004B1C8342F3D1802801D001F071FC8E4BA4
:102C9000E058002804D0802357228C49FDF71EFD00
:102CA000280021F04DFE8A4BE058002801D102F0A7
:102CB00034F9A369542B01D100F0D2FE2200002187
:102CC000383208E0203219001300203B1B68542BD7
:102CD00001D100F0C5FE4B1C8342F3D1802801D006
:102CE00001F0ACFE784BE058002804D08023542239
:102CF0007649FDF7F3FC280021F0CEFE744BE05836
:102D0000002801D102F0FAF8A3690E2B01D100F0DE
:102D1000B3FE22000021383208E0203219001300EF
:102D2000203B1B680E2B01D100F0A6FE4B1C8342FA
:102D3000F3D1802801D001F0E7FE634BE058002872
:102D400004D080230E226149FDF7C8FC280022F040
:102D5000E5F95F4BE058002801D102F0BDF8A36906
:102D6000372B01D100F094FE22000021383208E018
:102D7000203219001300203B1B68372B01D100F0D3
:102D800087FE4B1C8342F3D1802801D001F09AFECC
:102D90004D4BE058002804D0802337224B49FDF7E3
:102DA0009DFC28000CF020FE494BE058002801D182
:102DB00002F095F8A369112B01D100F075FE2200F5
:102DC0000021383208E0203219001300203B1B6834
:102DD000112B01D100F068FE4B1C8342F3D18028F7
:102DE00001D001F04DFE384BE058002804D080237C
:102DF00011223649FDF772FC280029F003FA344B02
:102E0000E058002801D102F0BAF8A369282B01D1BB
:102E100000F056FE22000021383208E0203219006E
:102E20001300203B1B68282B01D100F049FE4B1CEE
:102E30008342F3D1802801D001F000FC224BE058FE
:102E4000002804D0802328222049FDF747FC2800D1
:102E500022F070F91E4BE058002801D102F060F812
:102E6000A369392B01D100F037FE2200002138324E
:102E700008E0203219001300203B1B68392B01D1D8
:102E800000F02AFE4B1C8342F3D1802801D001F0D0
:102E9000B3FB0D4BE058002804D0802339220B49A6
:102EA000FDF71CFC28000AF0C1FA094BE058002885
:102EB00001D102F017F8A369122B01D100F018FE1E
:102EC0002200002138320EE08C120000282E09105A
:102ED00004100000203219001300203B1B68122B45
:102EE00001D100F005FE4B1C8342F3D1802801D0B4
:102EF00001F060FBCE4BE058002804D08023122262
:102F0000CC49FDF7EBFB280023F08CFDCA4BE058C1
:102F1000002801D101F0EAFFA3693B2B01D100F0A9
:102F2000F3FD22000021383208E02032190013009E
:102F3000203B1B683B2B01D100F0E6FD4B1C83427C
:102F4000F3D1802801D001F09BFBB94BE058002859
:102F500004D080233B22B749FDF7C0FB28001AF0BC
:102F600093FFB54BE058002801D101F0E3FFA369BE
:102F7000482B01D100F0D4FD22000021383208E0B6
:102F8000203219001300203B1B68482B01D100F0B0
:102F9000C7FD4B1C8342F3D1802801D001F05CFABD
:102FA000A34BE058002804D080234822A149FDF714
:102FB00095FB280024F03EF89F4BE058002801D1F3
:102FC00001F03BFFA369532B01D100F0B5FD2200B6
:102FD0000021383208E0203219001300203B1B6822
:102FE000532B01D100F0A8FD4B1C8342F3D1802864
:102FF00001D000F041FF8E4BE058002804D0802320
:1030000053228C49FDF76AFB280025F0E7FD8A4B27
:10301000E058002801D101F0A2FFA369222B01D1C1
:1030200000F096FD22000021383208E0203219001D
:103030001300203B1B68222B01D100F089FD4B1CA3
:103040008342F3D1802801D001F080FB784BE05817
:10305000002804D0802322227649FDF73FFB280078
:1030600025F0C8FD744BE058002801D101F07BFF2A
:10307000A3693C2B01D100F077FD220000213832FA
:1030800008E0203219001300203B1B683C2B01D1C3
:1030900000F06AFD4B1C8342F3D1802801D001F07F
:1030A00033FB634BE058002804D080233C22614965
:1030B000FDF714FB280026F059FD5F4BE05800286F
:1030C00001D101F031FFA369362B01D100F058FD89
:1030D00022000021383208E0203219001300203B82
:1030E0001B68362B01D100F04BFD4B1C8342F3D102
:1030F000802801D001F05EFC4D4BE058002804D040
:10310000802336224B49FDF7E9FA280027F0AEF973
:10311000494BE058002801D101F010FFA369722B40
:1031200001D100F039FD22000021383208E02032C0
:1031300019001300203B1B68722B01D100F02CFDFD
:103140004B1C8342F3D1802801D001F0EDFB384BBA
:10315000E058002804D0802372223649FDF7BEFAD9
:10316000280029F05BF8344BE058002801D101F029
:10317000C8FEA369522B01D100F01AFD22000021E4
:10318000383208E0203219001300203B1B68522B14
:1031900001D100F00DFD4B1C8342F3D1802801D0FA
:1031A00001F0A0FB224BE058002804D080235222DB
:1031B0002049FDF793FA280002F0F0FA1E4BE05880
:1031C000002801D101F0A0FEA369132B01D100F06A
:1031D000FBFC22000021383208E0203219001300E5
:1031E000203B1B68132B01D100F0EEFC4B1C9842D6
:1031F000F3D1802801D001F0FFFB0D4BE0580028EF
:1032000004D0802313220B49FDF768FA280002F04E
:10321000D1FA094BE058002801D101F022FEA36940
:10322000152B01D100F0DCFC2200002138320EE029
:103230008C120000282E0910041000002032190002
:103240001300203B1B68152B01D100F0C9FC4B1C5F
:103250009842F3D1802801D001F09AFCCC4BE05881
:10326000002804D080231522CA49FDF737FA280028
:1032700029F0C2FCC84BE058002801D101F057FEEC
:10328000A369162B01D100F0B7FC220000213832CF
:1032900008E0203219001300203B1B68162B01D1D7
:1032A00000F0AAFC4B1C9842F3D1802801D001F019
:1032B000F7FAB74BE058002804D080231622B5490E
:1032C000FDF70CFA28002AF07DFAB34BE0580028ED
:1032D00001D101F01CFEA369612B01D100F098FC23
:1032E00022000021383208E0203219001300203B70
:1032F0001B68612B01D100F08BFC4B1C8342F3D186
:10330000802801D001F0AAFAA14BE058002804D08F
:10331000802361229F49FDF7E1F928002AF0A4FBF0
:103320009D4BE058002801D101F0F4FDA369742BF6
:1033300001D100F079FC22000021383208E020326F
:1033400019001300203B1B68742B01D100F06CFCAA
:103350004B1C9842F3D1802801D001F05DFA8C4BD0
:10336000E058002804D0802374228A49FDF7B6F97A
:1033700028001FF0B7FB884BE058002801D101F06E
:10338000E0FDA3694C2B01D100F05AFC2200002182
:10339000383208E0203219001300203B1B684C2B08
:1033A00001D100F04DFC4B1C9842F3D1802801D094
:1033B00001F00EF8764BE058002804D080234C2210
:1033C0007449FDF78BF928002AF0B8FB724BE058DE
:1033D000002801D101F048FDA3694D2B01D100F077
:1033E0003BFC22000021383208E020321900130093
:1033F000203B1B684D2B01D100F02EFC4B1C98424A
:10340000F3D1802801D000F0C1FF614BE0580028C3
:1034100004D080234D225F49FDF760F928001FF09A
:103420002BFB5D4BE058002801D101F00AFDA36998
:10343000422B01D100F01CFC22000021383208E0B0
:10344000203219001300203B1B68422B01D100F0F1
:103450000FFC4B1C8342F3D1802801D000F074FF95
:103460004B4BE058002804D0802342224949FDF705
:1034700035F928000CF000FE474BE058002801D138
:1034800001F0E3FCA369192B01D100F0FDFB220040
:103490000021383208E0203219001300203B1B685D
:1034A000192B01D100F0F0FB4B1C9842F3D180287E
:1034B00001D000F0AFFF364BE058002804D0802345
:1034C00019223449FDF70AF928002AF069FB324B2A
:1034D000E058002801D101F0D9FCA369312B00D1BB
:1034E000DDE322000021383207E02032190013000A
:1034F000203B1B68312B00D1D1E34B1C9842F4D107
:10350000802801D000F054FE214BE058002804D060
:10351000802331221F49FDF7E1F828002BF04AF8FB
:103520001D4BE058002801D101F00FFDA369662B67
:1035300000D1BEE322000021383207E0203219001A
:103540001300203B1B68662B00D1B2E34B1C984252
:10355000F4D1802801D001F0A6FB0D4BE0580028E3
:1035600004D0802366220B49FDF7B8F828001FF02D
:10357000ADFA094BE058002801D101F07FFCA369A6
:103580004B2B00D19FE32200002138320EE0C046D1
:103590008C120000282E091004100000203219009F
:1035A0001300203B1B684B2B00D18CE34B1C984233
:1035B000F4D1802801D000F03FFEDB4BE05800281A
:1035C00004D080234B22D949FDF788F828001FF04A
:1035D00097FAD74BE058002801D101F053FCA369BA
:1035E0005C2B00D179E322000021383207E0203241
:1035F00019001300203B1B685C2B00D16DE34B1CB2
:103600009842F4D1802801D000F0F4FDC64BE05878
:10361000002804D080235C22C449FDF75FF828000D
:103620002DF0A6FEC24BE058002801D101F03DFC70
:10363000A3692D2B00D15AE322000021383207E084
:10364000203219001300203B1B682D2B00D14EE3C4
:103650004B1C8342F4D1802801D000F0B7FCB24B60
:10366000E058002804D080232D22B049FDF736F819
:10367000280030F003F8AE4BE058002801D101F0EB
:1036800009FCA369292B00D13BE322000021383239
:1036900007E0203219001300203B1B68292B00D1C2
:1036A0002FE34B1C9842F4D1802801D000F06CFC31
:1036B0009D4BE058002804D0802329229B49FDF728
:1036C0000DF828000EF094FD994BE058002801D128
:1036D00001F0F3FBA3691B2B00D121E322000021A1
:1036E000383207E0203219001300203B1B681B2BE7
:1036F00000D115E34B1C9842F4D1802801D000F092
:1037000021FC894BE058002804D080231B228749E4
:10371000FCF7E4FF280030F067F8854BE0580028FC
:1037200001D101F0CEFBA3691C2B00D102E32200E2
:103730000021383207E0203219001300203B1B68BB
:103740001C2B00D1F6E24B1C9842F4D1802801D00A
:1037500000F05EFC744BE058002804D080231C224B
:103760007249FCF7BBFF280031F0F4FB704BE058C6
:10377000002800D14EE3A369582B00D1E4E22200D7
:103780000021383207E0203219001300203B1B686B
:10379000582B00D1D8E24B1C9842F4D1023180283A
:1037A00000D038E3604BE058002804D08023582232
:1037B0005E49FCF793FF200009B03CBC9046994657
:1037C000A246AB46F0BD584BE058002801D1FEF7A9
:1037D00077FE65225749FCF781FFFEF771FE524BD9
:1037E000E058002801D1FEF796FE00225149FCF76F
:1037F00075FFFEF790FE4C4BE058002801D1FEF714
:10380000B5FE38224B49FCF769FFFEF7AFFE464B89
:10381000E058002801D1FEF7D4FE4F224549FCF7BD
:103820005DFFFEF7CEFE404BE058002801D1FEF7C9
:10383000F3FE01223F49FCF751FFFEF7EDFE3A4B44
:10384000E058002801D1FEF712FF68223949FCF741
:1038500045FFFEF70CFF344BE058002801D1FEF77E
:1038600031FF02223349FCF739FFFEF72BFF2E4BC5
:10387000E058002801D1FEF750FF03222D49FCF744
:103880002DFFFEF74AFF284BE058002801D1FEF734
:103890006FFF6C222749FCF721FFFEF769FF224BDF
:1038A000E058002801D1FEF78EFF04222149FCF7E1
:1038B00015FFFEF788FF1C4BE058002801D1FEF7EA
:1038C000B8FF06221B49FCF709FF1EF0D5FD184B77
:1038D0008046E7587F2F01D9FEF7B4FF002F00D1B3
:1038E0005EE226007B0118369A46B346124BD3445B
:1038F000994603E020365E4500D155E23368202B1F
:10390000F8D1494670683FF0ABFF0028F2D1064B72
:10391000E058002801D1FEF79EFF4A460749FCF710
:10392000DDFEFEF798FFC0468C120000282E09101D
:1039300004100000D82D09106C2E0910D02E09108B
:10394000F54BE058002801D1FEF7B0FF4722F349BC
:10395000FCF7C4FEFEF7AAFFEF4BE058002801D1A8
:10396000FEF7E6FF0822ED49FCF7B8FEFEF7E0FFA0
:10397000E94BE058002801D1FFF705F80922E74993
:10398000FCF7ACFEFEF7FFFFE34BE058002801D147
:10399000FFF724F83D22E149FCF7A0FEFFF71EF8EF
:1039A000DD4BE058002801D1FFF743F83E22DB4908
:1039B000FCF794FEFFF73DF8D74BE058002801D103
:1039C000FFF762F87522D549FCF788FEFFF75CF82F
:1039D000D14BE058002801D1FFF781F80B22CF49E5
:1039E000FCF77CFEFFF77BF8CB4BE058002801D1B9
:1039F000FFF7A0F83A22C949FCF770FEFFF79AF8E2
:103A0000C54BE058002801D1FFF7C9F83F22C34950
:103A1000FCF764FEFFF7C3F8BF4BE058002801D164
:103A2000FFF7E8F84922BD49FCF758FEFFF7E2F836
:103A3000B94BE058002801D1FFF707F95622B749E2
:103A4000FCF74CFEFFF701F9B34BE058002801D119
:103A5000FFF726F95722B149FCF740FEFFF720F99E
:103A6000AD4BE058002801D1FFF745F95422AB498E
:103A7000FCF734FEFFF73FF9A74BE058002801D1CF
:103A8000FFF764F90E22A549FCF728FEFFF75EF95F
:103A9000A14BE058002801D1FFF783F937229F4955
:103AA000FCF71CFEFFF77DF99B4BE058002801D185
:103AB000FFF7A2F911229949FCF710FEFFF79CF9D4
:103AC000954BE058002801D1FFF7C1F9282293490E
:103AD000FCF704FEFFF7BBF98F4BE058002801D13B
:103AE000FFF7E0F939228D49FCF7F8FDFFF7DAF925
:103AF000894BE058002801D1FFF705FA12228749C7
:103B0000FCF7ECFDFFF7FFF9834BE058002801D1EB
:103B1000FFF724FA3B228149FCF7E0FDFFF71EFA8C
:103B20007D4BE058002801D1FFF743FA48227B493A
:103B3000FCF7D4FDFFF73DFA774BE058002801D1A0
:103B4000FFF762FA53227549FCF7C8FDFFF75CFAEC
:103B5000714BE058002801D1FFF781FA22226F490A
:103B6000FCF7BCFDFFF77BFA6B4BE058002801D156
:103B7000FFF7A0FA3C226949FCF7B0FDFFF79AFA7B
:103B8000654BE058002801D1FFF7BFFA36226349A0
:103B9000FCF7A4FDFFF7B9FA5F4BE058002801D10C
:103BA000FFF7DEFA72225D49FCF798FDFFF7D8FABD
:103BB000594BE058002801D1FFF7FDFA522257492E
:103BC000FCF78CFDFFF7F7FA534BE058002801D1C2
:103BD000FFF71CFB13225149FCF780FDFFF716FB92
:103BE0004D4BE058002801D1FFF741FB15224B490E
:103BF000FCF774FDFFF73BFB474BE058002801D171
:103C0000FFF760FB16224549FCF768FDFFF75AFBFA
:103C1000414BE058002801D1FFF77FFB61223F496B
:103C2000FCF75CFDFFF779FB3B4BE058002801D126
:103C3000FFF79EFB74223949FCF750FDFFF798FB14
:103C4000354BE058002801D1FFF7BDFB4C2233492A
:103C5000FCF744FDFFF7B7FB2F4BE058002801D1DC
:103C6000FFF7DCFB4D222D49FCF738FDFFF7D6FBB3
:103C7000294BE058002801D1FFF7FBFB42222749DE
:103C8000FCF72CFDFFF7F5FB234BE058002800D193
:103C90001AE419222149FCF721FDFFF715FC1E4B00
:103CA000E058002800D138E431221C49FCF716FD09
:103CB00033E4194BE058002800D157E46622174935
:103CC000FCF70CFD52E4144BE058002800D17DE4D1
:103CD0004B221249FCF702FD78E40F4BE058002814
:103CE00000D19CE45C220D49FCF7F8FC97E40A4BF8
:103CF000E058002800D1BBE42D220849FCF7EEFC77
:103D0000B6E4054BE058002800D1DAE42922034943
:103D1000FCF7E4FCD5E4C0468C120000D82D091055
:103D2000EE4BE058002800D1F4E41B22EC49FCF7EC
:103D3000D5FCEFE4E94BE058002800D113E51C2244
:103D4000E749FCF7CBFC0EE5E44BE058002800D136
:103D500031E55822E249FCF7C1FC2CE59A46002BDC
:103D600076D026005B0118369A46B346D34402E06B
:103D700020365E456CD03368202BF9D149467068F7
:103D80003FF06EFD0028F3D1D44BE058002801D15C
:103D9000FEF7A3FD4A46D349FCF7A0FCFEF79DFDC4
:103DA000D14B994600239A46D04A7B1CA3505346D8
:103DB000E218111D0B00474643CF43C343CF43C313
:103DC00003CF03C3202393614B46D361FEF743FD2A
:103DD0008A1C94465B01E3181E1D32002800C2C8ED
:103DE000C2C2C2C8C2C242C842C209206246C04E54
:103DF0009861B446BD4BBF49E2506358E218624433
:103E00001070BD4ABD489A1892000133105163509A
:103E1000FEF7B9FD012140012018021D1300C4CD99
:103E2000C4C3C4CDC4C344CD44C358258561B04880
:103E3000AE4B8446E150AF49B1486358E218624442
:103E40001570AD4A9A189200013310516350B2E4D4
:103E50004346A64A0133A3505346E218111D0B00F6
:103E600043CF43C343CF43C303CF03C32023936153
:103E70004B46D361FEF731FD8B1C9C464001201858
:103E8000061D33002A00C2CAC2C3C2CAC2C342CA84
:103E900042C35326624686619548944B84469549B1
:103EA000E25063589748E21862441670924A9A1892
:103EB0009200013310516350FFF7A6F88B1C9C460B
:103EC00040012018061D33002A00C2CAC2C3C2CA5C
:103ED000C2C342CA42C30026624686618448834BFD
:103EE00084468449E25063588748E2186244167059
:103EF000814A9A189200013310516350FEF70BFB70
:103F00008B1C9C4640012018061D33002A00C2CAA3
:103F1000C2C3C2CAC2C342CA42C3652662468661E0
:103F20007348724B84467349E25063587748E218ED
:103F300062441670704A9A1892000133105163500F
:103F4000FEF7BEFA8B1C9C4640012018061D33006C
:103F50002A00C2CAC2C3C2CAC2C342CA42C31B26C3
:103F6000624686616248614B84466249E25063580A
:103F70006748E218624416705F4A9A18920001334B
:103F800010516350FFF7C6FB8B1C9C464001201864
:103F9000061D33002A00C2CAC2C3C2CAC2C342CA73
:103FA00042C32926624686615148504B8446514996
:103FB000E25063585748E218624416704E4A9A1805
:103FC0009200013310516350FFF77BFB8B1C9C4622
:103FD00040012018061D33002A00C2CAC2C3C2CA4B
:103FE000C2C342CA42C32D266246866140483F4B47
:103FF00084464049E25063584748E21862441670CC
:104000003D4A9A189200013310516350FFF730FB7C
:104010008B1C9C4640012018061D33002A00C2CA92
:10402000C2C3C2CAC2C342CA42C31C266246866118
:104030002F482E4B84462F49E25063583748E218E8
:10404000624416702C4A9A18920001331051635042
:10405000FFF789FB8B1C9C4640012018061D33008E
:104060002A00C2CAC2C3C2CAC2C342CA42C3682665
:10407000624686611E481D4B84461E49E2506358C5
:104080002748E218624416701B4A9A1892000133BE
:1040900010516350FEF7EBFA8B1C9C464001201830
:1040A000061D33002A00C2CAC2C3C2CAC2C342CA62
:1040B00042C30126624686610D480C4B84460D4979
:1040C000E25063581748E218624416700A4A9A1878
:1040D0009200013310516350FEF79EFA8C120000DB
:1040E000D82D0910D02E09106C2E091004100000D4
:1040F000081000008812000022040000A90D001022
:10410000C91900103D100010AD070010A9070010DC
:10411000F5180010391800104D170010C5190010BF
:10412000850A0010ED1000108B1C9C4640012018E1
:10413000061D33002A00C2CAC2C3C2CAC2C342CAD1
:1041400042C34F2662468661F648F74B8446F749DC
:10415000E2506358F648E21862441670F54A9A181D
:104160009200013310516350FEF72BFA8B1C9C46D2
:1041700040012018061D33002A00C2CAC2C3C2CAA9
:10418000C2C342CA42C3022662468661E548E64B84
:104190008446E649E2506358E748E21862441670E4
:1041A000E44A9A189200013310516350FEF78AFADC
:1041B0008B1C9C4640012018061D33002A00C2CAF1
:1041C000C2C3C2CAC2C342CA42C331266246866162
:1041D000D448D54B8446D549E2506358D748E218B5
:1041E00062441670D34A9A189200013310516350FA
:1041F000FFF793F98B1C9C4640012018061D3300E5
:104200002A00C2CAC2C3C2CAC2C342CA42C35C26CF
:1042100062468661C348C44B8446C449E250635831
:10422000C748E21862441670C24A9A1892000133D5
:1042300010516350FFF7F3F98B1C9C464001201886
:10424000061D33002A00C2CAC2C3C2CAC2C342CAC0
:1042500042C34B2662468661B248B34B8446B3499B
:10426000E2506358B748E21862441670B14A9A188F
:104270009200013310516350FFF7A8F98B1C9C4644
:1042800040012018061D33002A00C2CAC2C3C2CA98
:10429000C2C342CA42C33A2662468661A148A24BC3
:1042A0008446A249E2506358A748E2186244167057
:1042B000A04A9A189200013310516350FEF73AFC5D
:1042C0008B1C9C4640012018061D33002A00C2CAE0
:1042D000C2C3C2CAC2C342CA42C30B266246866177
:1042E0009048914B84469149E25063589748E218B0
:1042F000624416708F4A9A1892000133105163502D
:10430000FEF7EDFB8B1C9C4640012018061D330078
:104310002A00C2CAC2C3C2CAC2C342CA42C37526A5
:10432000624686617F48804B84468049E2506358EC
:104330008748E218624416707E4A9A189200013348
:1043400010516350FEF7A0FB8B1C9C4640012018C7
:10435000061D33002A00C2CAC2C3C2CAC2C342CAAF
:1043600042C34226624686616E486F4B84466F495F
:10437000E25063587748E218624416706D4A9A1802
:104380009200013310516350FFF773F88B1C9C4669
:1043900040012018061D33002A00C2CAC2C3C2CA87
:1043A000C2C342CA42C34D26624686615D485E4B27
:1043B00084465E49E25063586748E21862441670CA
:1043C0005C4A9A189200013310516350FFF726F8A7
:1043D0008B1C9C4640012018061D33002A00C2CACF
:1043E000C2C3C2CAC2C342CA42C34C266246866125
:1043F0004C484D4B84464D49E25063585748E218AB
:10440000624416704B4A9A1892000133105163505F
:10441000FEF7D9FF8B1C9C4640012018061D330077
:104420002A00C2CAC2C3C2CAC2C342CA42C31926F0
:10443000624686613B483C4B84463C49E2506358A7
:104440004748E218624416703A4A9A1892000133BB
:1044500010516350FFF738F88B1C9C464001201820
:10446000061D33002A00C2CAC2C3C2CAC2C342CA9E
:1044700042C34826624686612A482B4B84462B4914
:10448000E25063583748E21862441670294A9A1875
:104490009200013310516350FEF78BFD8B1C9C463C
:1044A00040012018061D33002A00C2CAC2C3C2CA76
:1044B000C2C342CA42C349266246866119481A4BA2
:1044C00084461A49E25063582748E218624416703D
:1044D000184A9A189200013310516350FEF78AFB74
:1044E0008B1C9C4640012018061D33002A00C2CABE
:1044F000C2C3C2CAC2C342CA42C33F266246866121
:104500000848094B84460949E25063581748E218A5
:1045100062441670074A9A18920001331051635092
:10452000FEF73DFB08100000041000008812000098
:104530007509001022040000890A001025160010D9
:104540004917001045170010710F0010D10E001010
:10455000CD0E001091150010811400107D14001074
:104560009515001039100010790F0010750F00100C
:104570008B1C9C4640012018061D33002A00C2CA2D
:10458000C2C3C2CAC2C342CA42C357266246866178
:10459000F648F74B8446F749E2506358F648E2186C
:1045A00062441670F54A9A18920001331051635014
:1045B000FEF776FB8B1C9C4640012018061D33003D
:1045C0002A00C2CAC2C3C2CAC2C342CA42C3122656
:1045D00062468661E548E64B8446E649E250635808
:1045E000E748E21862441670E44A9A1892000133D0
:1045F00010516350FEF787FC8B1C9C46400120182D
:10460000061D33002A00C2CAC2C3C2CAC2C342CAFC
:1046100042C3392662468661D448D54B8446D54983
:10462000E2506358D748E21862441670D34A9A1889
:104630009200013310516350FEF734FC8B1C9C46F2
:1046400040012018061D33002A00C2CAC2C3C2CAD4
:10465000C2C342CA42C3282662468661C348C44BCD
:104660008446C449E2506358C748E2186244167051
:10467000C24A9A189200013310516350FEF7E7FBCB
:104680008B1C9C4640012018061D33002A00C2CA1C
:10469000C2C3C2CAC2C342CA42C33B266246866183
:1046A000B248B34B8446B349E2506358B748E21866
:1046B00062441670B14A9A18920001331051635047
:1046C000FEF74CFC8B1C9C4640012018061D330055
:1046D0002A00C2CAC2C3C2CAC2C342CA42C33E2619
:1046E00062468661A148A24B8446A249E2506358C3
:1046F000A748E21862441670A04A9A189200013343
:1047000010516350FEF795F98B1C9C464001201810
:10471000061D33002A00C2CAC2C3C2CAC2C342CAEB
:1047200042C33C26624686619048914B844691493B
:10473000E25063589748E218624416708F4A9A18FC
:104740009200013310516350FEF7B4FC8B1C9C4661
:1047500040012018061D33002A00C2CAC2C3C2CAC3
:10476000C2C342CA42C32226624686617F48804B4A
:1047700084468049E25063588748E21862441670C4
:104780007E4A9A189200013310516350FEF767FC7D
:104790008B1C9C4640012018061D33002A00C2CA0B
:1047A000C2C3C2CAC2C342CA42C338266246866175
:1047B0006E486F4B84466F49E25063587748E21861
:1047C000624416706D4A9A1892000133105163507A
:1047D000FDF7CCFE8B1C9C4640012018061D3300C3
:1047E0002A00C2CAC2C3C2CAC2C342CA42C33D2609
:1047F000624686615D485E4B84465E49E25063587E
:104800006748E218624416705C4A9A1892000133B5
:1048100010516350FEF7E2F88B1C9C4640012018B3
:10482000061D33002A00C2CAC2C3C2CAC2C342CADA
:1048300042C37426624686614C484D4B84464D49BE
:10484000E25063585748E218624416704B4A9A186F
:104850009200013310516350FEF78AFD8B1C9C4679
:1048600040012018061D33002A00C2CAC2C3C2CAB2
:10487000C2C342CA42C36126624686613B483C4B82
:1048800084463C49E25063584748E2186244167037
:104890003A4A9A189200013310516350FEF73DFDD9
:1048A0008B1C9C4640012018061D33002A00C2CAFA
:1048B000C2C3C2CAC2C342CA42C316266246866186
:1048C0002A482B4B84462B49E25063583748E2185C
:1048D00062441670294A9A189200013310516350AD
:1048E000FEF7F0FC8B1C9C4640012018061D33008F
:1048F0002A00C2CAC2C3C2CAC2C342CA42C35226E3
:104900006246866119481A4B84461A49E250635838
:104910001D48E21862441670184A9A189200013332
:1049200010516350FEF747FC8B1C9C464001201839
:10493000061D33002A00C2CAC2C3C2CAC2C342CAC9
:1049400042C37226624686610848094B844609497B
:10495000E25063581648E21862441670074A9A18E3
:104960009200013310516350FEF7FAFB081000006B
:104970000410000088120000810F001022040000C3
:10498000950F0010910F0010191200103510001033
:10499000C90E0010E9100010E510001065080010A5
:1049A000C50E001079140010C5130010B9120010C4
:1049B000151200108B1C9C4640012018061D330068
:1049C0002A00C2CAC2C3C2CAC2C342CA42C336262E
:1049D00062468661FB48FC4B8446FC49E2506358C2
:1049E000FB48E21862441670FA4A9A1892000133A2
:1049F00010516350FEF789FB8B1C9C464001201828
:104A0000061D33002A00C2CAC2C3C2CAC2C342CAF8
:104A100042C3132662468661EA48EB4B8446EB4963
:104A2000E2506358EC48E21862441670E94A9A185A
:104A30009200013310516350FEF7E8FB8B1C9C463B
:104A400040012018061D33002A00C2CAC2C3C2CAD0
:104A5000C2C342CA42C3542662468661D948DA4B71
:104A60008446DA49E2506358DC48E2186244167022
:104A7000D84A9A189200013310516350FEF73BF95F
:104A80008B1C9C4640012018061D33002A00C2CA18
:104A9000C2C3C2CAC2C342CA42C3112662468661A9
:104AA000C848C94B8446C949E2506358CC48E2180B
:104AB00062441670C74A9A1892000133105163502D
:104AC000FEF79AF98B1C9C4640012018061D330006
:104AD0002A00C2CAC2C3C2CAC2C342CA42C337261C
:104AE00062468661B748B84B8446B849E25063587D
:104AF000BC48E21862441670B64A9A189200013314
:104B000010516350FEF74DF98B1C9C464001201854
:104B1000061D33002A00C2CAC2C3C2CAC2C342CAE7
:104B200042C30E2662468661A648A74B8446A74923
:104B3000E2506358AC48E21862441670A54A9A18CD
:104B40009200013310516350FEF700F98B1C9C4614
:104B500040012018061D33002A00C2CAC2C3C2CABF
:104B6000C2C342CA42C35626624686619548964BE6
:104B700084469649E25063589C48E2186244167095
:104B8000944A9A189200013310516350FEF75DF871
:104B90008B1C9C4640012018061D33002A00C2CA07
:104BA000C2C3C2CAC2C342CA42C315266246866194
:104BB0008448854B84468549E25063588C48E21806
:104BC00062441670834A9A18920001331051635060
:104BD000FEF74DFB8B1C9C4640012018061D330040
:104BE0002A00C2CAC2C3C2CAC2C342CA42C36C26D6
:104BF000624686617348744B84467449E250635838
:104C00007C48E21862441670724A9A189200013386
:104C100010516350FDF7ACFD8B1C9C4640012018E1
:104C2000061D33002A00C2CAC2C3C2CAC2C342CAD6
:104C300042C30626624686616248634B84466349E6
:104C4000E25063586C48E21862441670614A9A1840
:104C50009200013310516350FDF7EBFD8B1C9C4615
:104C6000042340012018061D98462A003300C2CABA
:104C7000C2C3C2CAC2C342CA42C343466246836178
:104C80005048514B844640465049E2506358E21820
:104C9000624410704F4A59489A18920001331051DB
:104CA0006350FDF790FD8B1C9C4640012018061DAB
:104CB00033002A00C2CAC2C3C2CAC2C342CA42C364
:104CC0006626624686613F483F4B84463F49E25034
:104CD00063584B48E218624416703E4A9A18920094
:104CE000013310516350FEF741FC8B1C9C46400180
:104CF0002018061D33002A00C2CAC2C3C2CAC2C3DA
:104D000042CA42C34726624686612E482E4B8446DD
:104D10002E49E25063583B48E218624416702D4A0F
:104D20009A189200013310516350FDF7BFFD8B1CA0
:104D30009C4640012018061D33002A00C2CAC2C387
:104D4000C2CAC2C342CA42C30826624686611D481F
:104D50001D4B84461D49E25063582B48E2186244BB
:104D600016701C4A9A189200013310516350FDF7D7
:104D7000DFFD8B1C9C4640012018061D33002A00D5
:104D8000C2CAC2C3C2CAC2C342CA42C3032662461F
:104D900086610C480C4B84460C49E25063581B4812
:104DA000E218624416700B4A9A18920001331051AF
:104DB0006350FDF7B2FC01239C46FFF76FF9012316
:104DC0009C4694E7081000000410000088120000C0
:104DD0001112001022040000B1120010850F001003
:104DE000ED1000108D0F0010890F00107D0F0010C6
:104DF000B5120010610C00109D0D0010650C001024
:104E0000B5160010A10D0010A50D0010410B0010EB
:104E100001239C46AFE701239C468AE701239C4679
:104E2000FFF784F901239C46D6E601239C46FFF751
:104E300013F901239C46FFF79BF901239C46FFF7DA
:104E40001DF801239C46FFF781FA01239C46FFF7DA
:104E5000E3FA01239C46FFF735FA01239C46FFF74E
:104E60000FFA01239C4695E601239C46FFF790FA32
:104E700001239C46F4E601239C46CFE601239C4691
:104E8000FFF7DCF901239C46FFF7B6F901239C46A6
:104E9000FFF790F901239C46FFF778F801239C4621
:104EA000FFF70EF801239C4674E401239C46FFF7AC
:104EB0008FF801239C46FFF725F801239C46FFF756
:104EC00043F801239C46FFF7A5F801239C463FE6E3
:104ED00001239C46FFF74EFB01239C46F4E501238A
:104EE0009C46CFE501239C46FFF766FB01239C46C9
:104EF000FFF7C8FB01239C46FFF7F4FA01239C4609
:104F000004E601239C46EFE401239C4676E5012359
:104F10009C46A5E401239C4680E401239C468FE542
:104F200001239C46FFF76AFB01239C4644E50123CD
:104F30009C46B7E401239C46FFF790FA01239C4668
:104F4000F4E401239C46FFF745FA01239C46ACE6B6
:104F500001239C46FFF7D8F901239C463CE401233A
:104F60009C46FFF7F5FB01239C46FFF7CFFB01238F
:104F70009C46FFF7A9FB01239C46FFF791FA01230A
:104F80009C46FFF75DFB012200239446FEF722FFBB
:104F900010B5836B1C21984710BDC04610B5836BBC
:104FA0000421984710BDC046F0B5002283B004002C
:104FB0008D68FCF7FFFE031E0AD12A4B20000093E8
:104FC0006569CD23284A2949A847012003B0F0BDCF
:104FD000027F092A1FD00020032AF7D199682448AC
:104FE000DC683BF0E4F93BF09BFA3AF0B5FD0600D3
:104FF0000F0020003AF0E6FC32003B003AF058FC8B
:105000003AF0F8FC00282ADDFF23FE2825DDAB70EE
:10501000EC700020DAE78168C46815483BF0C7F9F6
:105020003BF07EFA3AF098FD06000F0020003AF0BF
:10503000C9FC3B0032003AF03BFC3AF0DBFC0300D9
:105040007F3304DB7F237E2803DC43B201E080232F
:105050005B422B706C700020B8E7C3B2D7E7002327
:10506000D5E7C046D02F0910702F0910B0220910C3
:105070000000C040F0B5D6464F464646C0B58B68E6
:105080000D0099460B68A4B05968436D0400984719
:105090006B68070059682000636D98478046387A2E
:1050A000032800D18CE0092856D001280DD065696D
:1050B000FBF708FB6D4902002000A847012024B03F
:1050C0001CBC90469946A246F0BD390068461EF0C9
:1050D00001F93B68414606A89A461EF0FBF8434694
:1050E000002B00D19EE01B689846009B9946052B3B
:1050F00000DCA8E0019B4A4601269100591804CB28
:1051000056439942FBD1002E1EDD002500270CE0FE
:105110000021201C3BF084F9002800D000244346E5
:1051200001375C510435BE420EDD53465C5950498F
:10513000201C3BF08BF90028EAD043464C4C013749
:105140005C510435BE42F0DC069B052B36DC4B4639
:10515000052B33DC0020B2E74B4601260024390042
:105160000CA89E571C571EF0B5F8414612A83D6882
:105170001EF0B0F84346002B59D01F680C99052942
:1051800069DD0D9B01228900591801CB42438B42F6
:10519000FBD1002A0CDD0023B446E9568C424DDBDE
:1051A00060468E4200DA081CF85401339342F4DB67
:1051B000129B052B02DC0C9B052BCBDD3DF01CFF6D
:1051C0004B46390018A8DE789C781EF083F84146DB
:1051D0001EA83D681EF07EF84346002B25D01F68B0
:1051E0001899052933DD199B01228900591801CB33
:1051F00042439942FBD1002A0CDD0023B446E95C0E
:105200008C4216D360468E4200D2081CF8540133FB
:105210009342F4DB1E9B052BD0DC189B052BCDDCC9
:1052200000204CE7002398465FE70027D8E70027D7
:10523000A4E7FC5401339342E1DBEBE7FC54013378
:105240009342AADBB4E7002B0DDD01AB53E7002945
:1052500007DD19ABC8E7002901DD0DAB92E701229C
:1052600099E70122C9E701264FE7C046E42F09105C
:105270000000C040F0B5C64600B5002290B0040062
:105280000D008F68FCF796FD061E0DD1454B00936F
:105290008E236569444A45492000A8470125280016
:1052A00010B004BC9046F0BD002229002000FCF79D
:1052B00097FD8046002804D13D4B009365699023FB
:1052C000E8E7337F092B35D00025032BE7D1816830
:1052D000B0683BF06CF83BF023F9029003917169E0
:1052E00004C90A92052A5BDC92000BA83BF010FB74
:1052F00043465B691B68052B52DC029803993B000F
:105300003A0018331432FCF717FC43460020996822
:10531000DC683BF04CF83BF081F93BF0C3F8001936
:10532000C343DB171840FF23BB60F3687860FB6062
:105330003C61B4E78168B0683BF039F83BF0F0F8C5
:105340000D007169040004C90492052A28DC92004A
:1053500005A83BF0DDFA43465B691B68052B1FDCA3
:105360003B003A002000143218332900FCF7E4FB1C
:10537000434600209968DC683BF019F83BF04EF991
:105380003BF090F800190300803301DA802040429E
:105390007F23BB60F3687860FB603C6100257EE79B
:1053A0003DF02AFED02F0910702F0910B0220910ED
:1053B0005C2F0910F0B5DE4657464E464546E0B52F
:1053C0000B680C00AFB08F685968436D05009847B3
:1053D00063680600596828006B6D98470400307AAE
:1053E000032800D1C8E009284CD001280ED06C69F0
:1053F000FBF768F9CC4902002800A04701202FB034
:105400003CBC90469946A246AB46F0BD31000AA886
:105410001DF060FF3368210010A89A461DF05AFF66
:10542000002C00D126E1236898460A9B9946052B5B
:1054300000DCA4E10B9B4A4601259100591804CBDE
:1054400055439942FBD1002D12DD00230024002694
:105450009B4653461F590021381C3AF0E1FF434652
:10546000002800D009E101361F510434AE42F0DBC0
:10547000109B052B00DD64E14B46052B00DD60E150
:105480000020BCE7310016A81DF024FF21001CA855
:105490001DF020FF33680193002C00D1E7E0236862
:1054A0000293169A052A00DC61E1179B0121920004
:1054B0009A1801CB41439342FBD18846002900DC76
:1054C00041E100239B4601339A4643465C460393E1
:1054D0003CE0002200269146934699408846434688
:1054E000E917DB17424628003AF03EFFA84500D1F5
:1054F000DBE0002900DAE8E080220023D2058018F2
:1055000059414B00C00F184351464B46C2170A4041
:105510000340B61801219E4200DB002152464B4257
:1055200013405A46009910418C461B187A68634410
:10553000934200DA1300BA68934200DD1300029A26
:105540001355039B0134A34200DCFCE03B69BA69BC
:105550000093019B7D691957FB68C91AD343DB1778
:105560001340002AB5DC52429346524658468240C8
:10557000013A91465610B0E7310022A81DF0AAFE6C
:10558000210028A81DF0A6FE33680193002C6BD0E3
:1055900023680293229A052A00DCECE0239B012178
:1055A00092009A1801CB41439342FBD18A460029CD
:1055B00000DCBFE000239B460133984653465C461F
:1055C00003933BE000220026924693469940894689
:1055D0004B46E917DB174A4628003AF0C5FEA945B5
:1055E00053D0002900DA87E080220023D2058018FA
:1055F00059414B00C00F184341465346C2170A4059
:105600000340B61801219E4200DB002142464B4276
:1056100013405A46009910418C461B187A6863441F
:10562000934200DA1300BA68934200DD1300029A35
:105630001355039B0134A34200DC7BE03B69BA694C
:105640000093019B7D69195DFB68C91AD343DB1781
:105650001340002AB6DC52429346424658468240E6
:10566000013A92465610B1E70023029392E70023D5
:10567000029316E700239846D7E65A4601361A5198
:105680000434B54200DDE4E6F2E6002969DB80225D
:105690000023D2050492059380231B069D4230D13E
:1056A00053465B005B082148ACE7002953DB8022AE
:1056B0000023D2050492059380231B069D4209D145
:1056C0004B465B005B08194824E70123184A5B42FC
:1056D00004920593049A059B12184B41D91749006F
:1056E00049080691002107910698079912184B4125
:1056F0005800D20F104307E701230D4A5B42049282
:105700000593049A059B12184B41D9174900490883
:105710000891002109910898099912184B415800E5
:10572000D20F104368E7C046E42F0910FFFFFF7F48
:10573000010000C0289B052B03DC229B052B00DC0D
:105740009EE63DF059FC1C9B052BFADC169B052BB5
:10575000F7DC002053E601230F4A5B4204920593D5
:10576000AAE701230C4A5B420492059394E7002ABE
:105770000EDD17AB9AE6002A07DD23AB0FE7002BFF
:1057800001DD0BAB57E601255FE601239A4611E7E1
:105790000123984695E6C046010000C0020030B5DE
:1057A000034B32CB32C232CB32C212CB12C230BD2B
:1057B0001C2F0910020030B5044B203332CB32C20B
:1057C00032CB32C212CB12C230BDC0461C2F0910E0
:1057D000F0B5DE4657464E464546E0B50B680D002F
:1057E000ADB05968436D040098472B68070099686D
:1057F0002000636D98476B68060059682000636D50
:1058000098470500307A022814D1287A022811D14D
:10581000387A032800D1BDE009281AD0012800D128
:105820005AE16569FAF74EFFA94902002000A8472E
:10583000012007E06569FAF745FFA649020020004C
:10584000A84701202DB03CBC90469946A246AB46E5
:10585000F0BD39000EA81DF03DFD3468290008A8F0
:105860003F681DF037FD2B68216899460E9E002980
:1058700000DAA9E2052E00DD64E20EAA94468B0050
:1058800063445D684B1C002900DCAAE20F9A934632
:1058900001291DD0109A01925A46019C62439346F9
:1058A000022915D0119A01925A46019C62439346EF
:1058B00003290DD0129A01925A46019C62439346E5
:1058C000042905D0139A01925A4601994A439346F6
:1058D0009E4200DC9EE20EA98C469A006244546807
:1058E0005A1C964218DD92006244526854439A1C36
:1058F000964211DD9200624452685443DA1C96428B
:105900000ADD920062445268043354439E4203DD30
:105910009B0063445B685C435B46002B30DD002CDE
:105920002EDD2B0063430193A30002930023B846AE
:105930009A46A0444346CC461E1B00203056012DFB
:1059400000DC47E200270123321900215156814231
:1059500001DD08001F0001331219AB42F5D1634687
:10596000013680C39C464645E7D101239C46019BF6
:10597000E2449C46029BE0449C46E144D345D9DC8A
:10598000089B052B00DDA1E00E9B052B00DD9DE0B3
:10599000002057E739001AA81DF09CFC3468290044
:1059A00014A83F681DF096FC2B68216899461A9E42
:1059B000002900DA0AE2052E00DD80E11AAA9446E9
:1059C0008B0063445D684B1C002900DC11E21B9ACC
:1059D000934601291DD01C9A01925A46019C6243AC
:1059E0009346022915D01D9A01925A46019C6243A2
:1059F000934603290DD01E9A01925A46019C624398
:105A00009346042905D01F9A01925A4601994A43A8
:105A100093469E4200DC03E21AA98C469A00624437
:105A200054685A1CB24218DA9200624452685443D5
:105A30009A1CB24211DA9200624452685443DA1C52
:105A4000B2420ADA920062445268043354439E42DE
:105A500003DD9B0063445B685C435B46002B2EDDEB
:105A6000002C2CDD23006B430193A3000293002341
:105A7000B8469A46A0444346CC461E1B3078012DBA
:105A800000DCA9E10027012332191178884201D2F4
:105A900008001F00013312199D42F6D163460136FA
:105AA00080C39C464645E9D101239C46019BE244C4
:105AB0009C46029BE0449C46E144D345DBDC149BBE
:105AC000052B03DC1A9B052B00DC61E73DF094FA03
:105AD0001030091054300910390026A81DF0FAFBC7
